{
  "_format": "hh-sol-artifact-1",
  "contractName": "DynamicMultiSigValidatorManager",
  "sourceName": "contracts/DynamicMultiSigValidatorManager.sol",
  "abi": [
    {
      "inputs": [
        {
          "internalType": "address",
          "name": "initialAdmin",
          "type": "address"
        },
        {
          "internalType": "address[]",
          "name": "_initialValidators",
          "type": "address[]"
        }
      ],
      "stateMutability": "nonpayable",
      "type": "constructor"
    },
    {
      "anonymous": false,
      "inputs": [
        {
          "indexed": true,
          "internalType": "address",
          "name": "admin",
          "type": "address"
        },
        {
          "indexed": false,
          "internalType": "uint256",
          "name": "newThreshold",
          "type": "uint256"
        }
      ],
      "name": "AdminAdded",
      "type": "event"
    },
    {
      "anonymous": false,
      "inputs": [
        {
          "indexed": true,
          "internalType": "uint256",
          "name": "proposalId",
          "type": "uint256"
        },
        {
          "indexed": true,
          "internalType": "address",
          "name": "candidate",
          "type": "address"
        },
        {
          "indexed": false,
          "internalType": "bool",
          "name": "isAddition",
          "type": "bool"
        }
      ],
      "name": "AdminProposalCreated",
      "type": "event"
    },
    {
      "anonymous": false,
      "inputs": [
        {
          "indexed": true,
          "internalType": "uint256",
          "name": "proposalId",
          "type": "uint256"
        },
        {
          "indexed": true,
          "internalType": "address",
          "name": "candidate",
          "type": "address"
        }
      ],
      "name": "AdminProposalExecuted",
      "type": "event"
    },
    {
      "anonymous": false,
      "inputs": [
        {
          "indexed": true,
          "internalType": "uint256",
          "name": "proposalId",
          "type": "uint256"
        },
        {
          "indexed": true,
          "internalType": "address",
          "name": "admin",
          "type": "address"
        }
      ],
      "name": "AdminProposalSigned",
      "type": "event"
    },
    {
      "anonymous": false,
      "inputs": [
        {
          "indexed": true,
          "internalType": "address",
          "name": "admin",
          "type": "address"
        },
        {
          "indexed": false,
          "internalType": "uint256",
          "name": "newThreshold",
          "type": "uint256"
        }
      ],
      "name": "AdminRemoved",
      "type": "event"
    },
    {
      "anonymous": false,
      "inputs": [
        {
          "indexed": true,
          "internalType": "address",
          "name": "candidate",
          "type": "address"
        },
        {
          "indexed": false,
          "internalType": "string",
          "name": "organization",
          "type": "string"
        }
      ],
      "name": "ApplicationSubmitted",
      "type": "event"
    },
    {
      "anonymous": false,
      "inputs": [
        {
          "indexed": true,
          "internalType": "address",
          "name": "validator",
          "type": "address"
        }
      ],
      "name": "ValidatorApproved",
      "type": "event"
    },
    {
      "anonymous": false,
      "inputs": [
        {
          "indexed": true,
          "internalType": "uint256",
          "name": "proposalId",
          "type": "uint256"
        },
        {
          "indexed": true,
          "internalType": "address",
          "name": "candidate",
          "type": "address"
        },
        {
          "indexed": false,
          "internalType": "bool",
          "name": "isApproval",
          "type": "bool"
        }
      ],
      "name": "ValidatorProposalCreated",
      "type": "event"
    },
    {
      "anonymous": false,
      "inputs": [
        {
          "indexed": true,
          "internalType": "uint256",
          "name": "proposalId",
          "type": "uint256"
        },
        {
          "indexed": true,
          "internalType": "address",
          "name": "candidate",
          "type": "address"
        }
      ],
      "name": "ValidatorProposalExecuted",
      "type": "event"
    },
    {
      "anonymous": false,
      "inputs": [
        {
          "indexed": true,
          "internalType": "uint256",
          "name": "proposalId",
          "type": "uint256"
        },
        {
          "indexed": true,
          "internalType": "address",
          "name": "admin",
          "type": "address"
        }
      ],
      "name": "ValidatorProposalSigned",
      "type": "event"
    },
    {
      "anonymous": false,
      "inputs": [
        {
          "indexed": true,
          "internalType": "address",
          "name": "validator",
          "type": "address"
        }
      ],
      "name": "ValidatorRemoved",
      "type": "event"
    },
    {
      "inputs": [],
      "name": "adminProposalCount",
      "outputs": [
        {
          "internalType": "uint256",
          "name": "",
          "type": "uint256"
        }
      ],
      "stateMutability": "view",
      "type": "function"
    },
    {
      "inputs": [
        {
          "internalType": "uint256",
          "name": "",
          "type": "uint256"
        }
      ],
      "name": "adminProposals",
      "outputs": [
        {
          "internalType": "address",
          "name": "candidate",
          "type": "address"
        },
        {
          "internalType": "bool",
          "name": "isAddition",
          "type": "bool"
        },
        {
          "internalType": "bool",
          "name": "executed",
          "type": "bool"
        },
        {
          "internalType": "uint256",
          "name": "createdAt",
          "type": "uint256"
        }
      ],
      "stateMutability": "view",
      "type": "function"
    },
    {
      "inputs": [
        {
          "internalType": "uint256",
          "name": "",
          "type": "uint256"
        }
      ],
      "name": "admins",
      "outputs": [
        {
          "internalType": "address",
          "name": "",
          "type": "address"
        }
      ],
      "stateMutability": "view",
      "type": "function"
    },
    {
      "inputs": [
        {
          "internalType": "address",
          "name": "",
          "type": "address"
        }
      ],
      "name": "applications",
      "outputs": [
        {
          "internalType": "address",
          "name": "candidate",
          "type": "address"
        },
        {
          "internalType": "string",
          "name": "organization",
          "type": "string"
        },
        {
          "internalType": "string",
          "name": "contactEmail",
          "type": "string"
        },
        {
          "internalType": "uint256",
          "name": "submittedAt",
          "type": "uint256"
        },
        {
          "internalType": "bool",
          "name": "isPending",
          "type": "bool"
        }
      ],
      "stateMutability": "view",
      "type": "function"
    },
    {
      "inputs": [
        {
          "internalType": "string",
          "name": "organization",
          "type": "string"
        },
        {
          "internalType": "string",
          "name": "contactEmail",
          "type": "string"
        }
      ],
      "name": "applyToBeValidator",
      "outputs": [],
      "stateMutability": "nonpayable",
      "type": "function"
    },
    {
      "inputs": [],
      "name": "getAdminCount",
      "outputs": [
        {
          "internalType": "uint256",
          "name": "",
          "type": "uint256"
        }
      ],
      "stateMutability": "view",
      "type": "function"
    },
    {
      "inputs": [
        {
          "internalType": "uint256",
          "name": "proposalId",
          "type": "uint256"
        }
      ],
      "name": "getAdminProposalSignatures",
      "outputs": [
        {
          "internalType": "address[]",
          "name": "",
          "type": "address[]"
        }
      ],
      "stateMutability": "view",
      "type": "function"
    },
    {
      "inputs": [],
      "name": "getAdmins",
      "outputs": [
        {
          "internalType": "address[]",
          "name": "",
          "type": "address[]"
        }
      ],
      "stateMutability": "view",
      "type": "function"
    },
    {
      "inputs": [],
      "name": "getThreshold",
      "outputs": [
        {
          "internalType": "uint256",
          "name": "",
          "type": "uint256"
        }
      ],
      "stateMutability": "view",
      "type": "function"
    },
    {
      "inputs": [],
      "name": "getValidatorCount",
      "outputs": [
        {
          "internalType": "uint256",
          "name": "",
          "type": "uint256"
        }
      ],
      "stateMutability": "view",
      "type": "function"
    },
    {
      "inputs": [
        {
          "internalType": "uint256",
          "name": "proposalId",
          "type": "uint256"
        }
      ],
      "name": "getValidatorProposalSignatures",
      "outputs": [
        {
          "internalType": "address[]",
          "name": "",
          "type": "address[]"
        }
      ],
      "stateMutability": "view",
      "type": "function"
    },
    {
      "inputs": [],
      "name": "getValidators",
      "outputs": [
        {
          "internalType": "address[]",
          "name": "",
          "type": "address[]"
        }
      ],
      "stateMutability": "view",
      "type": "function"
    },
    {
      "inputs": [
        {
          "internalType": "address",
          "name": "",
          "type": "address"
        }
      ],
      "name": "isAdmin",
      "outputs": [
        {
          "internalType": "bool",
          "name": "",
          "type": "bool"
        }
      ],
      "stateMutability": "view",
      "type": "function"
    },
    {
      "inputs": [
        {
          "internalType": "address",
          "name": "",
          "type": "address"
        }
      ],
      "name": "isValidator",
      "outputs": [
        {
          "internalType": "bool",
          "name": "",
          "type": "bool"
        }
      ],
      "stateMutability": "view",
      "type": "function"
    },
    {
      "inputs": [
        {
          "internalType": "address",
          "name": "newAdmin",
          "type": "address"
        }
      ],
      "name": "proposeAddAdmin",
      "outputs": [
        {
          "internalType": "uint256",
          "name": "proposalId",
          "type": "uint256"
        }
      ],
      "stateMutability": "nonpayable",
      "type": "function"
    },
    {
      "inputs": [
        {
          "internalType": "address",
          "name": "candidate",
          "type": "address"
        },
        {
          "internalType": "string",
          "name": "reason",
          "type": "string"
        }
      ],
      "name": "proposeApproval",
      "outputs": [
        {
          "internalType": "uint256",
          "name": "proposalId",
          "type": "uint256"
        }
      ],
      "stateMutability": "nonpayable",
      "type": "function"
    },
    {
      "inputs": [
        {
          "internalType": "address",
          "name": "validator",
          "type": "address"
        },
        {
          "internalType": "string",
          "name": "reason",
          "type": "string"
        }
      ],
      "name": "proposeRemoval",
      "outputs": [
        {
          "internalType": "uint256",
          "name": "proposalId",
          "type": "uint256"
        }
      ],
      "stateMutability": "nonpayable",
      "type": "function"
    },
    {
      "inputs": [
        {
          "internalType": "address",
          "name": "admin",
          "type": "address"
        }
      ],
      "name": "proposeRemoveAdmin",
      "outputs": [
        {
          "internalType": "uint256",
          "name": "proposalId",
          "type": "uint256"
        }
      ],
      "stateMutability": "nonpayable",
      "type": "function"
    },
    {
      "inputs": [
        {
          "internalType": "uint256",
          "name": "proposalId",
          "type": "uint256"
        }
      ],
      "name": "signAdminProposal",
      "outputs": [],
      "stateMutability": "nonpayable",
      "type": "function"
    },
    {
      "inputs": [
        {
          "internalType": "uint256",
          "name": "proposalId",
          "type": "uint256"
        }
      ],
      "name": "signValidatorProposal",
      "outputs": [],
      "stateMutability": "nonpayable",
      "type": "function"
    },
    {
      "inputs": [],
      "name": "validatorProposalCount",
      "outputs": [
        {
          "internalType": "uint256",
          "name": "",
          "type": "uint256"
        }
      ],
      "stateMutability": "view",
      "type": "function"
    },
    {
      "inputs": [
        {
          "internalType": "uint256",
          "name": "",
          "type": "uint256"
        }
      ],
      "name": "validatorProposals",
      "outputs": [
        {
          "internalType": "address",
          "name": "candidate",
          "type": "address"
        },
        {
          "internalType": "bool",
          "name": "isApproval",
          "type": "bool"
        },
        {
          "internalType": "bool",
          "name": "executed",
          "type": "bool"
        },
        {
          "internalType": "string",
          "name": "reason",
          "type": "string"
        },
        {
          "internalType": "uint256",
          "name": "createdAt",
          "type": "uint256"
        }
      ],
      "stateMutability": "view",
      "type": "function"
    }
  ],
  "bytecode": "0x60806040523480156200001157600080fd5b50604051620022a9380380620022a98339810160408190526200003491620002fa565b6001600160a01b038216620000805760405162461bcd60e51b815260206004820152600d60248201526c24b73b30b634b21030b236b4b760991b60448201526064015b60405180910390fd5b60008054600180820183557f290decd9548b62a8d60345a988386fc84ba6bc95484008f6362f93160ef3e56390910180546001600160a01b0319166001600160a01b03861690811790915580835260208290526040909220805460ff191690911790557f723c2b747529ca7f5eb53a74808f4a8b9bf264f0fc450fd904900151da74548a6200010e62000293565b60405190815260200160405180910390a260005b81518110156200028a576000828281518110620001435762000143620003e3565b6020026020010151905060006001600160a01b0316816001600160a01b031603620001a55760405162461bcd60e51b815260206004820152601160248201527024b73b30b634b2103b30b634b230ba37b960791b604482015260640162000077565b6001600160a01b03811660009081526003602052604090205460ff1615620002105760405162461bcd60e51b815260206004820152601360248201527f4475706c69636174652076616c696461746f7200000000000000000000000000604482015260640162000077565b6002805460018181019092557f405787fa12a823e0f2b7631cc41b3ba8828b3321ca811111fa75cd3aa3bb5ace0180546001600160a01b039093166001600160a01b031990931683179055600091825260036020526040909120805460ff191690911790558062000281816200040f565b91505062000122565b5050506200046a565b60008054808203620002a757600091505090565b620002b46002826200042b565b620002c19060016200044e565b91505090565b80516001600160a01b0381168114620002df57600080fd5b919050565b634e487b7160e01b600052604160045260246000fd5b600080604083850312156200030e57600080fd5b6200031983620002c7565b602084810151919350906001600160401b03808211156200033957600080fd5b818601915086601f8301126200034e57600080fd5b815181811115620003635762000363620002e4565b8060051b604051601f19603f830116810181811085821117156200038b576200038b620002e4565b604052918252848201925083810185019189831115620003aa57600080fd5b938501935b82851015620003d357620003c385620002c7565b84529385019392850192620003af565b8096505050505050509250929050565b634e487b7160e01b600052603260045260246000fd5b634e487b7160e01b600052601160045260246000fd5b600060018201620004245762000424620003f9565b5060010190565b6000826200044957634e487b7160e01b600052601260045260246000fd5b500490565b80820180821115620004645762000464620003f9565b92915050565b611e2f806200047a6000396000f3fe608060405234801561001057600080fd5b50600436106101425760003560e01c80637c3bf42d116100b8578063c3be1e5e1161007c578063c3be1e5e14610316578063cffb80c114610329578063d9dae6391461033c578063e75235b81461034f578063facd743b14610357578063fd605f531461037a57600080fd5b80637c3bf42d146102c65780638b7bf3eb146102ea5780639c192074146102f2578063b3e7b16314610305578063b7ab4db51461030e57600080fd5b80633ebffb911161010a5780633ebffb9114610256578063567687c61461026b5780635e998e941461027e5780637071688a14610287578063749511b11461028f57806378d46b6f146102a257600080fd5b8063043ce19a1461014757806314bfd6d01461016d57806324d7806c14610198578063309179f6146101cb57806331ae450b14610241575b600080fd5b61015a610155366004611897565b61038d565b6040519081526020015b60405180910390f35b61018061017b3660046118ea565b610540565b6040516001600160a01b039091168152602001610164565b6101bb6101a6366004611903565b60016020526000908152604090205460ff1681565b6040519015158152602001610164565b6102116101d93660046118ea565b6006602052600090815260409020805460038201546004909201546001600160a01b0382169260ff600160a01b909304831692169084565b604080516001600160a01b0390951685529215156020850152901515918301919091526060820152608001610164565b61024961056a565b6040516101649190611925565b6102696102643660046118ea565b6105cc565b005b6102496102793660046118ea565b610607565b61015a60075481565b60025461015a565b61015a61029d366004611903565b610676565b6102b56102b03660046118ea565b6107e7565b6040516101649594939291906119b8565b6102d96102d4366004611903565b6108b2565b6040516101649594939291906119fe565b60005461015a565b6102496103003660046118ea565b6109ff565b61015a60055481565b610249610a6c565b610269610324366004611a4e565b610acc565b61015a610337366004611903565b610cd1565b61026961034a3660046118ea565b610e2e565b61015a610e66565b6101bb610365366004611903565b60036020526000908152604090205460ff1681565b61015a610388366004611897565b610e95565b3360009081526001602052604081205460ff166103c55760405162461bcd60e51b81526004016103bc90611aba565b60405180910390fd5b6001600160a01b0384166000908152600460208190526040909120015460ff1661042a5760405162461bcd60e51b81526020600482015260166024820152752737903832b73234b7339030b8383634b1b0ba34b7b760511b60448201526064016103bc565b6001600160a01b03841660009081526003602052604090205460ff16156104875760405162461bcd60e51b815260206004820152601160248201527020b63932b0b23c903b30b634b230ba37b960791b60448201526064016103bc565b6007805490600061049783611af4565b90915550600081815260086020526040902080546001600160a81b0319166001600160a01b03871617600160a01b178155909150600481016104da848683611ba5565b5042600582015560038101805460ff19169055604051600181526001600160a01b0386169083907f99a9453978db7a4776921d726ac9555b28ec48a38e0d70d543575e469115c467906020015b60405180910390a361053882610fbc565b509392505050565b6000818154811061055057600080fd5b6000918252602090912001546001600160a01b0316905081565b606060008054806020026020016040519081016040528092919081815260200182805480156105c257602002820191906000526020600020905b81546001600160a01b031681526001909101906020018083116105a4575b5050505050905090565b3360009081526001602052604090205460ff166105fb5760405162461bcd60e51b81526004016103bc90611aba565b61060481610fbc565b50565b60008181526006602090815260409182902060010180548351818402810184019094528084526060939283018282801561066a57602002820191906000526020600020905b81546001600160a01b0316815260019091019060200180831161064c575b50505050509050919050565b3360009081526001602052604081205460ff166106a55760405162461bcd60e51b81526004016103bc90611aba565b6001600160a01b0382166106ed5760405162461bcd60e51b815260206004820152600f60248201526e496e76616c6964206164647265737360881b60448201526064016103bc565b6001600160a01b03821660009081526001602052604090205460ff16156107465760405162461bcd60e51b815260206004820152600d60248201526c20b63932b0b23c9030b236b4b760991b60448201526064016103bc565b6005805490600061075683611af4565b9091555060008181526006602090815260409182902080546001600160a81b0319166001600160a01b038716908117600160a01b17825542600483015560038201805460ff191690559251600181529394509284917f966679fa335999c25fd1535bab454f8d83fac689c0f29b98cf46791e15197bad91015b60405180910390a36107e0826110d6565b505b919050565b6008602052600090815260409020805460038201546004830180546001600160a01b03841694600160a01b90940460ff90811694931692919061082990611b23565b80601f016020809104026020016040519081016040528092919081815260200182805461085590611b23565b80156108a25780601f10610877576101008083540402835291602001916108a2565b820191906000526020600020905b81548152906001019060200180831161088557829003601f168201915b5050505050908060050154905085565b600460205260009081526040902080546001820180546001600160a01b0390921692916108de90611b23565b80601f016020809104026020016040519081016040528092919081815260200182805461090a90611b23565b80156109575780601f1061092c57610100808354040283529160200191610957565b820191906000526020600020905b81548152906001019060200180831161093a57829003601f168201915b50505050509080600201805461096c90611b23565b80601f016020809104026020016040519081016040528092919081815260200182805461099890611b23565b80156109e55780601f106109ba576101008083540402835291602001916109e5565b820191906000526020600020905b8154815290600101906020018083116109c857829003601f168201915b50505050600383015460049093015491929160ff16905085565b60008181526008602090815260409182902060010180548351818402810184019094528084526060939283018282801561066a576020028201919060005260206000209081546001600160a01b0316815260019091019060200180831161064c5750505050509050919050565b606060028054806020026020016040519081016040528092919081815260200182805480156105c2576020028201919060005260206000209081546001600160a01b031681526001909101906020018083116105a4575050505050905090565b3360009081526003602052604090205460ff1615610b205760405162461bcd60e51b815260206004820152601160248201527020b63932b0b23c903b30b634b230ba37b960791b60448201526064016103bc565b336000908152600460208190526040909120015460ff1615610b7a5760405162461bcd60e51b81526020600482015260136024820152724170706c69636174696f6e2070656e64696e6760681b60448201526064016103bc565b6040518060a00160405280336001600160a01b0316815260200185858080601f016020809104026020016040519081016040528093929190818152602001838380828437600092019190915250505090825250604080516020601f8601819004810282018101909252848152918101919085908590819084018382808284376000920182905250938552505042602080850191909152600160409485018190523384526004825293909220845181546001600160a01b0319166001600160a01b03909116178155918401519192830191610c55915082611c66565b5060408201516002820190610c6a9082611c66565b50606082015160038201556080909101516004909101805460ff191691151591909117905560405133907f4d954d97ff5f7e3ceb48557e63515f2b6d839b08e9cb52c79f8be5347e86ad5590610cc39087908790611d26565b60405180910390a250505050565b3360009081526001602052604081205460ff16610d005760405162461bcd60e51b81526004016103bc90611aba565b6001600160a01b03821660009081526001602052604090205460ff16610d575760405162461bcd60e51b815260206004820152600c60248201526b2737ba1030b71030b236b4b760a11b60448201526064016103bc565b600054600110610da95760405162461bcd60e51b815260206004820152601860248201527f43616e6e6f742072656d6f7665206c6173742061646d696e000000000000000060448201526064016103bc565b60058054906000610db983611af4565b90915550600081815260066020908152604080832080546001600160a81b0319166001600160a01b038816908117825542600483015560038201805460ff1916905591519384529394509184917f966679fa335999c25fd1535bab454f8d83fac689c0f29b98cf46791e15197bad91016107cf565b3360009081526001602052604090205460ff16610e5d5760405162461bcd60e51b81526004016103bc90611aba565b610604816110d6565b60008054808203610e7957600091505090565b610e84600282611d55565b610e8f906001611d77565b91505090565b3360009081526001602052604081205460ff16610ec45760405162461bcd60e51b81526004016103bc90611aba565b6001600160a01b03841660009081526003602052604090205460ff16610f1e5760405162461bcd60e51b815260206004820152600f60248201526e2737ba1030903b30b634b230ba37b960891b60448201526064016103bc565b60078054906000610f2e83611af4565b90915550600081815260086020526040902080546001600160a81b0319166001600160a01b03871617815590915060048101610f6b848683611ba5565b5042600582015560038101805460ff19169055604051600081526001600160a01b0386169083907f99a9453978db7a4776921d726ac9555b28ec48a38e0d70d543575e469115c46790602001610527565b6000818152600860205260409020600381015460ff1615610fef5760405162461bcd60e51b81526004016103bc90611d90565b33600090815260028201602052604090205460ff16156110425760405162461bcd60e51b815260206004820152600e60248201526d105b1c9958591e481cda59db995960921b60448201526064016103bc565b6001808201805480830182556000918252602080832090910180546001600160a01b03191633908117909155808352600285019091526040808320805460ff1916909417909355915184917f8846ea2a63364a808ee2d91447d3d3060ccb1815f121af4dae662e71f505f8a891a360006110ba610e66565b600183015490915081116110d1576110d1836111ea565b505050565b6000818152600660205260409020600381015460ff16156111095760405162461bcd60e51b81526004016103bc90611d90565b33600090815260028201602052604090205460ff161561115c5760405162461bcd60e51b815260206004820152600e60248201526d105b1c9958591e481cda59db995960921b60448201526064016103bc565b6001808201805480830182556000918252602080832090910180546001600160a01b03191633908117909155808352600285019091526040808320805460ff1916909417909355915184917e86296fcd865a0c7481829148e2eb440cceedc80ee1411c1f379a0c3bf4aaf891a360006111d3610e66565b600183015490915081116110d1576110d18361153d565b6000818152600860205260409020600381015460ff161561121d5760405162461bcd60e51b81526004016103bc90611d90565b6000611227610e66565b60018301549091508111156112785760405162461bcd60e51b8152602060048201526017602482015276496e73756666696369656e74207369676e61747572657360481b60448201526064016103bc565b60038201805460ff191660011790558154600160a01b900460ff161561134f5781546002805460018181019092557f405787fa12a823e0f2b7631cc41b3ba8828b3321ca811111fa75cd3aa3bb5ace0180546001600160a01b0319166001600160a01b03938416179055835482166000908152600360209081526040808320805460ff19908116909517905586548516835260049182905280832090910180549093169092558454915191909216917f6b872750794b9ce90f9678e8d33652e3c79a1bc2868bf145d74bb04e7da83af891a26114ff565b6002546001106113a15760405162461bcd60e51b815260206004820152601c60248201527f43616e6e6f742072656d6f7665206c6173742076616c696461746f720000000060448201526064016103bc565b60005b6002548110156114ae578254600280546001600160a01b0390921691839081106113d0576113d0611dba565b6000918252602090912001546001600160a01b03160361149c57600280546113fa90600190611dd0565b8154811061140a5761140a611dba565b600091825260209091200154600280546001600160a01b03909216918390811061143657611436611dba565b9060005260206000200160006101000a8154816001600160a01b0302191690836001600160a01b03160217905550600280548061147557611475611de3565b600082815260209020810160001990810180546001600160a01b03191690550190556114ae565b806114a681611af4565b9150506113a4565b5081546001600160a01b03908116600090815260036020526040808220805460ff19169055845490519216917fe1434e25d6611e0db941968fdc97811c982ac1602e951637d206f5fdda9dd8f19190a25b81546040516001600160a01b039091169084907faa7d5b36b1e0c99cab5c4320471151b5f60b6702fd392b465595d7a0a264180790600090a3505050565b6000818152600660205260409020600381015460ff16156115705760405162461bcd60e51b81526004016103bc90611d90565b600061157a610e66565b60018301549091508111156115cb5760405162461bcd60e51b8152602060048201526017602482015276496e73756666696369656e74207369676e61747572657360481b60448201526064016103bc565b60038201805460ff191660011790558154600160a01b900460ff161561169357815460008054600181810183557f290decd9548b62a8d60345a988386fc84ba6bc95484008f6362f93160ef3e56390910180546001600160a01b0319166001600160a01b0394851617905584548316825260208190526040909120805460ff191690911790558254167f723c2b747529ca7f5eb53a74808f4a8b9bf264f0fc450fd904900151da74548a61167d610e66565b60405190815260200160405180910390a26117f9565b60005b600054811015611797578254600080546001600160a01b0390921691839081106116c2576116c2611dba565b6000918252602090912001546001600160a01b03160361178557600080546116ec90600190611dd0565b815481106116fc576116fc611dba565b600091825260208220015481546001600160a01b0390911691908390811061172657611726611dba565b6000918252602082200180546001600160a01b0319166001600160a01b03939093169290921790915580548061175e5761175e611de3565b600082815260209020810160001990810180546001600160a01b0319169055019055611797565b8061178f81611af4565b915050611696565b5081546001600160a01b039081166000908152600160205260409020805460ff191690558254167fa0726c73cf6ad18ddb855ba65d1ddd4d7fd37d320f4e52f6b154c13d386f5fd96117e7610e66565b60405190815260200160405180910390a25b81546040516001600160a01b039091169084907fff9570ddbb56eaadb90efbf8535721fb9e257c518a8f9fcb3dfcd42b9837c73190600090a3505050565b80356001600160a01b03811681146107e257600080fd5b60008083601f84011261186057600080fd5b50813567ffffffffffffffff81111561187857600080fd5b60208301915083602082850101111561189057600080fd5b9250929050565b6000806000604084860312156118ac57600080fd5b6118b584611837565b9250602084013567ffffffffffffffff8111156118d157600080fd5b6118dd8682870161184e565b9497909650939450505050565b6000602082840312156118fc57600080fd5b5035919050565b60006020828403121561191557600080fd5b61191e82611837565b9392505050565b6020808252825182820181905260009190848201906040850190845b818110156119665783516001600160a01b031683529284019291840191600101611941565b50909695505050505050565b6000815180845260005b818110156119985760208185018101518683018201520161197c565b506000602082860101526020601f19601f83011685010191505092915050565b6001600160a01b03861681528415156020820152831515604082015260a0606082018190526000906119ec90830185611972565b90508260808301529695505050505050565b6001600160a01b038616815260a060208201819052600090611a2290830187611972565b8281036040840152611a348187611972565b606084019590955250509015156080909101529392505050565b60008060008060408587031215611a6457600080fd5b843567ffffffffffffffff80821115611a7c57600080fd5b611a888883890161184e565b90965094506020870135915080821115611aa157600080fd5b50611aae8782880161184e565b95989497509550505050565b6020808252600a908201526927b7363c9030b236b4b760b11b604082015260600190565b634e487b7160e01b600052601160045260246000fd5b600060018201611b0657611b06611ade565b5060010190565b634e487b7160e01b600052604160045260246000fd5b600181811c90821680611b3757607f821691505b6020821081036107e057634e487b7160e01b600052602260045260246000fd5b601f8211156110d157600081815260208120601f850160051c81016020861015611b7e5750805b601f850160051c820191505b81811015611b9d57828155600101611b8a565b505050505050565b67ffffffffffffffff831115611bbd57611bbd611b0d565b611bd183611bcb8354611b23565b83611b57565b6000601f841160018114611c055760008515611bed5750838201355b600019600387901b1c1916600186901b178355611c5f565b600083815260209020601f19861690835b82811015611c365786850135825560209485019460019092019101611c16565b5086821015611c535760001960f88860031b161c19848701351681555b505060018560011b0183555b5050505050565b815167ffffffffffffffff811115611c8057611c80611b0d565b611c9481611c8e8454611b23565b84611b57565b602080601f831160018114611cc95760008415611cb15750858301515b600019600386901b1c1916600185901b178555611b9d565b600085815260208120601f198616915b82811015611cf857888601518255948401946001909101908401611cd9565b5085821015611d165787850151600019600388901b60f8161c191681555b5050505050600190811b01905550565b60208152816020820152818360408301376000818301604090810191909152601f909201601f19160101919050565b600082611d7257634e487b7160e01b600052601260045260246000fd5b500490565b80820180821115611d8a57611d8a611ade565b92915050565b60208082526010908201526f105b1c9958591e48195e1958dd5d195960821b604082015260600190565b634e487b7160e01b600052603260045260246000fd5b81810381811115611d8a57611d8a611ade565b634e487b7160e01b600052603160045260246000fdfea2646970667358221220e1e35367d287fe0eef1b0d76de03bd2157be92cbbcbe813124d2573a31ad7f3e64736f6c63430008130033",
  "linkReferences": {},
  "deployedLinkReferences": {}
}