{
  "_format": "hh3-artifact-1",
  "contractName": "LogisticsOrderV2",
  "sourceName": "contracts/LogisticsOrderV2.sol",
  "abi": [
    {
      "inputs": [
        {
          "internalType": "address",
          "name": "target",
          "type": "address"
        }
      ],
      "name": "AddressEmptyCode",
      "type": "error"
    },
    {
      "inputs": [
        {
          "internalType": "address",
          "name": "implementation",
          "type": "address"
        }
      ],
      "name": "ERC1967InvalidImplementation",
      "type": "error"
    },
    {
      "inputs": [],
      "name": "ERC1967NonPayable",
      "type": "error"
    },
    {
      "inputs": [
        {
          "internalType": "address",
          "name": "sender",
          "type": "address"
        },
        {
          "internalType": "uint256",
          "name": "tokenId",
          "type": "uint256"
        },
        {
          "internalType": "address",
          "name": "owner",
          "type": "address"
        }
      ],
      "name": "ERC721IncorrectOwner",
      "type": "error"
    },
    {
      "inputs": [
        {
          "internalType": "address",
          "name": "operator",
          "type": "address"
        },
        {
          "internalType": "uint256",
          "name": "tokenId",
          "type": "uint256"
        }
      ],
      "name": "ERC721InsufficientApproval",
      "type": "error"
    },
    {
      "inputs": [
        {
          "internalType": "address",
          "name": "approver",
          "type": "address"
        }
      ],
      "name": "ERC721InvalidApprover",
      "type": "error"
    },
    {
      "inputs": [
        {
          "internalType": "address",
          "name": "operator",
          "type": "address"
        }
      ],
      "name": "ERC721InvalidOperator",
      "type": "error"
    },
    {
      "inputs": [
        {
          "internalType": "address",
          "name": "owner",
          "type": "address"
        }
      ],
      "name": "ERC721InvalidOwner",
      "type": "error"
    },
    {
      "inputs": [
        {
          "internalType": "address",
          "name": "receiver",
          "type": "address"
        }
      ],
      "name": "ERC721InvalidReceiver",
      "type": "error"
    },
    {
      "inputs": [
        {
          "internalType": "address",
          "name": "sender",
          "type": "address"
        }
      ],
      "name": "ERC721InvalidSender",
      "type": "error"
    },
    {
      "inputs": [
        {
          "internalType": "uint256",
          "name": "tokenId",
          "type": "uint256"
        }
      ],
      "name": "ERC721NonexistentToken",
      "type": "error"
    },
    {
      "inputs": [],
      "name": "FailedCall",
      "type": "error"
    },
    {
      "inputs": [],
      "name": "InvalidInitialization",
      "type": "error"
    },
    {
      "inputs": [],
      "name": "NotInitializing",
      "type": "error"
    },
    {
      "inputs": [
        {
          "internalType": "address",
          "name": "owner",
          "type": "address"
        }
      ],
      "name": "OwnableInvalidOwner",
      "type": "error"
    },
    {
      "inputs": [
        {
          "internalType": "address",
          "name": "account",
          "type": "address"
        }
      ],
      "name": "OwnableUnauthorizedAccount",
      "type": "error"
    },
    {
      "inputs": [],
      "name": "UUPSUnauthorizedCallContext",
      "type": "error"
    },
    {
      "inputs": [
        {
          "internalType": "bytes32",
          "name": "slot",
          "type": "bytes32"
        }
      ],
      "name": "UUPSUnsupportedProxiableUUID",
      "type": "error"
    },
    {
      "anonymous": false,
      "inputs": [
        {
          "indexed": true,
          "internalType": "address",
          "name": "owner",
          "type": "address"
        },
        {
          "indexed": true,
          "internalType": "address",
          "name": "approved",
          "type": "address"
        },
        {
          "indexed": true,
          "internalType": "uint256",
          "name": "tokenId",
          "type": "uint256"
        }
      ],
      "name": "Approval",
      "type": "event"
    },
    {
      "anonymous": false,
      "inputs": [
        {
          "indexed": true,
          "internalType": "address",
          "name": "owner",
          "type": "address"
        },
        {
          "indexed": true,
          "internalType": "address",
          "name": "operator",
          "type": "address"
        },
        {
          "indexed": false,
          "internalType": "bool",
          "name": "approved",
          "type": "bool"
        }
      ],
      "name": "ApprovalForAll",
      "type": "event"
    },
    {
      "anonymous": false,
      "inputs": [
        {
          "indexed": false,
          "internalType": "uint64",
          "name": "version",
          "type": "uint64"
        }
      ],
      "name": "Initialized",
      "type": "event"
    },
    {
      "anonymous": false,
      "inputs": [
        {
          "indexed": true,
          "internalType": "uint256",
          "name": "tokenId",
          "type": "uint256"
        },
        {
          "indexed": true,
          "internalType": "address",
          "name": "manufacturer",
          "type": "address"
        },
        {
          "indexed": true,
          "internalType": "address",
          "name": "receiver",
          "type": "address"
        },
        {
          "indexed": false,
          "internalType": "string",
          "name": "ipfsHash",
          "type": "string"
        }
      ],
      "name": "OrderCreated",
      "type": "event"
    },
    {
      "anonymous": false,
      "inputs": [
        {
          "indexed": true,
          "internalType": "uint256",
          "name": "tokenId",
          "type": "uint256"
        },
        {
          "indexed": false,
          "internalType": "uint256",
          "name": "timestamp",
          "type": "uint256"
        }
      ],
      "name": "OrderDelivered",
      "type": "event"
    },
    {
      "anonymous": false,
      "inputs": [
        {
          "indexed": true,
          "internalType": "address",
          "name": "previousOwner",
          "type": "address"
        },
        {
          "indexed": true,
          "internalType": "address",
          "name": "newOwner",
          "type": "address"
        }
      ],
      "name": "OwnershipTransferred",
      "type": "event"
    },
    {
      "anonymous": false,
      "inputs": [
        {
          "indexed": true,
          "internalType": "uint256",
          "name": "tokenId",
          "type": "uint256"
        },
        {
          "indexed": false,
          "internalType": "enum LogisticsOrder.OrderState",
          "name": "newState",
          "type": "uint8"
        },
        {
          "indexed": false,
          "internalType": "uint256",
          "name": "timestamp",
          "type": "uint256"
        }
      ],
      "name": "StateUpdated",
      "type": "event"
    },
    {
      "anonymous": false,
      "inputs": [
        {
          "indexed": true,
          "internalType": "uint256",
          "name": "tokenId",
          "type": "uint256"
        },
        {
          "indexed": false,
          "internalType": "string",
          "name": "data",
          "type": "string"
        },
        {
          "indexed": false,
          "internalType": "uint256",
          "name": "timestamp",
          "type": "uint256"
        }
      ],
      "name": "TrackingDataAdded",
      "type": "event"
    },
    {
      "anonymous": false,
      "inputs": [
        {
          "indexed": true,
          "internalType": "address",
          "name": "from",
          "type": "address"
        },
        {
          "indexed": true,
          "internalType": "address",
          "name": "to",
          "type": "address"
        },
        {
          "indexed": true,
          "internalType": "uint256",
          "name": "tokenId",
          "type": "uint256"
        }
      ],
      "name": "Transfer",
      "type": "event"
    },
    {
      "anonymous": false,
      "inputs": [
        {
          "indexed": true,
          "internalType": "address",
          "name": "implementation",
          "type": "address"
        }
      ],
      "name": "Upgraded",
      "type": "event"
    },
    {
      "inputs": [],
      "name": "UPGRADE_INTERFACE_VERSION",
      "outputs": [
        {
          "internalType": "string",
          "name": "",
          "type": "string"
        }
      ],
      "stateMutability": "view",
      "type": "function"
    },
    {
      "inputs": [
        {
          "internalType": "uint256",
          "name": "tokenId",
          "type": "uint256"
        },
        {
          "internalType": "string",
          "name": "data",
          "type": "string"
        }
      ],
      "name": "addTracking",
      "outputs": [],
      "stateMutability": "nonpayable",
      "type": "function"
    },
    {
      "inputs": [
        {
          "internalType": "address",
          "name": "to",
          "type": "address"
        },
        {
          "internalType": "uint256",
          "name": "tokenId",
          "type": "uint256"
        }
      ],
      "name": "approve",
      "outputs": [],
      "stateMutability": "nonpayable",
      "type": "function"
    },
    {
      "inputs": [
        {
          "internalType": "address",
          "name": "owner",
          "type": "address"
        }
      ],
      "name": "balanceOf",
      "outputs": [
        {
          "internalType": "uint256",
          "name": "",
          "type": "uint256"
        }
      ],
      "stateMutability": "view",
      "type": "function"
    },
    {
      "inputs": [
        {
          "internalType": "address",
          "name": "receiver",
          "type": "address"
        },
        {
          "internalType": "string",
          "name": "ipfsHash",
          "type": "string"
        }
      ],
      "name": "createOrder",
      "outputs": [
        {
          "internalType": "uint256",
          "name": "",
          "type": "uint256"
        }
      ],
      "stateMutability": "nonpayable",
      "type": "function"
    },
    {
      "inputs": [
        {
          "internalType": "uint256",
          "name": "tokenId",
          "type": "uint256"
        }
      ],
      "name": "getApproved",
      "outputs": [
        {
          "internalType": "address",
          "name": "",
          "type": "address"
        }
      ],
      "stateMutability": "view",
      "type": "function"
    },
    {
      "inputs": [
        {
          "internalType": "uint256",
          "name": "tokenId",
          "type": "uint256"
        }
      ],
      "name": "getOrder",
      "outputs": [
        {
          "components": [
            {
              "internalType": "uint256",
              "name": "tokenId",
              "type": "uint256"
            },
            {
              "internalType": "address",
              "name": "manufacturer",
              "type": "address"
            },
            {
              "internalType": "address",
              "name": "receiver",
              "type": "address"
            },
            {
              "internalType": "enum LogisticsOrder.OrderState",
              "name": "state",
              "type": "uint8"
            },
            {
              "internalType": "uint256",
              "name": "createdAt",
              "type": "uint256"
            },
            {
              "internalType": "string",
              "name": "ipfsHash",
              "type": "string"
            }
          ],
          "internalType": "struct LogisticsOrder.Order",
          "name": "",
          "type": "tuple"
        }
      ],
      "stateMutability": "view",
      "type": "function"
    },
    {
      "inputs": [],
      "name": "getTotalSupply",
      "outputs": [
        {
          "internalType": "uint256",
          "name": "",
          "type": "uint256"
        }
      ],
      "stateMutability": "view",
      "type": "function"
    },
    {
      "inputs": [
        {
          "internalType": "uint256",
          "name": "tokenId",
          "type": "uint256"
        }
      ],
      "name": "getTrackingData",
      "outputs": [
        {
          "internalType": "string",
          "name": "",
          "type": "string"
        }
      ],
      "stateMutability": "view",
      "type": "function"
    },
    {
      "inputs": [
        {
          "internalType": "address",
          "name": "_manufacturerRegistry",
          "type": "address"
        },
        {
          "internalType": "address",
          "name": "_initialOwner",
          "type": "address"
        }
      ],
      "name": "initialize",
      "outputs": [],
      "stateMutability": "nonpayable",
      "type": "function"
    },
    {
      "inputs": [
        {
          "internalType": "address",
          "name": "owner",
          "type": "address"
        },
        {
          "internalType": "address",
          "name": "operator",
          "type": "address"
        }
      ],
      "name": "isApprovedForAll",
      "outputs": [
        {
          "internalType": "bool",
          "name": "",
          "type": "bool"
        }
      ],
      "stateMutability": "view",
      "type": "function"
    },
    {
      "inputs": [],
      "name": "manufacturerRegistry",
      "outputs": [
        {
          "internalType": "contract ManufacturerRegistry",
          "name": "",
          "type": "address"
        }
      ],
      "stateMutability": "view",
      "type": "function"
    },
    {
      "inputs": [],
      "name": "name",
      "outputs": [
        {
          "internalType": "string",
          "name": "",
          "type": "string"
        }
      ],
      "stateMutability": "view",
      "type": "function"
    },
    {
      "inputs": [
        {
          "internalType": "uint256",
          "name": "",
          "type": "uint256"
        }
      ],
      "name": "orders",
      "outputs": [
        {
          "internalType": "uint256",
          "name": "tokenId",
          "type": "uint256"
        },
        {
          "internalType": "address",
          "name": "manufacturer",
          "type": "address"
        },
        {
          "internalType": "address",
          "name": "receiver",
          "type": "address"
        },
        {
          "internalType": "enum LogisticsOrder.OrderState",
          "name": "state",
          "type": "uint8"
        },
        {
          "internalType": "uint256",
          "name": "createdAt",
          "type": "uint256"
        },
        {
          "internalType": "string",
          "name": "ipfsHash",
          "type": "string"
        }
      ],
      "stateMutability": "view",
      "type": "function"
    },
    {
      "inputs": [],
      "name": "owner",
      "outputs": [
        {
          "internalType": "address",
          "name": "",
          "type": "address"
        }
      ],
      "stateMutability": "view",
      "type": "function"
    },
    {
      "inputs": [
        {
          "internalType": "uint256",
          "name": "tokenId",
          "type": "uint256"
        }
      ],
      "name": "ownerOf",
      "outputs": [
        {
          "internalType": "address",
          "name": "",
          "type": "address"
        }
      ],
      "stateMutability": "view",
      "type": "function"
    },
    {
      "inputs": [],
      "name": "proxiableUUID",
      "outputs": [
        {
          "internalType": "bytes32",
          "name": "",
          "type": "bytes32"
        }
      ],
      "stateMutability": "view",
      "type": "function"
    },
    {
      "inputs": [],
      "name": "renounceOwnership",
      "outputs": [],
      "stateMutability": "nonpayable",
      "type": "function"
    },
    {
      "inputs": [
        {
          "internalType": "address",
          "name": "from",
          "type": "address"
        },
        {
          "internalType": "address",
          "name": "to",
          "type": "address"
        },
        {
          "internalType": "uint256",
          "name": "tokenId",
          "type": "uint256"
        }
      ],
      "name": "safeTransferFrom",
      "outputs": [],
      "stateMutability": "nonpayable",
      "type": "function"
    },
    {
      "inputs": [
        {
          "internalType": "address",
          "name": "from",
          "type": "address"
        },
        {
          "internalType": "address",
          "name": "to",
          "type": "address"
        },
        {
          "internalType": "uint256",
          "name": "tokenId",
          "type": "uint256"
        },
        {
          "internalType": "bytes",
          "name": "data",
          "type": "bytes"
        }
      ],
      "name": "safeTransferFrom",
      "outputs": [],
      "stateMutability": "nonpayable",
      "type": "function"
    },
    {
      "inputs": [
        {
          "internalType": "address",
          "name": "operator",
          "type": "address"
        },
        {
          "internalType": "bool",
          "name": "approved",
          "type": "bool"
        }
      ],
      "name": "setApprovalForAll",
      "outputs": [],
      "stateMutability": "nonpayable",
      "type": "function"
    },
    {
      "inputs": [
        {
          "internalType": "bytes4",
          "name": "interfaceId",
          "type": "bytes4"
        }
      ],
      "name": "supportsInterface",
      "outputs": [
        {
          "internalType": "bool",
          "name": "",
          "type": "bool"
        }
      ],
      "stateMutability": "view",
      "type": "function"
    },
    {
      "inputs": [],
      "name": "symbol",
      "outputs": [
        {
          "internalType": "string",
          "name": "",
          "type": "string"
        }
      ],
      "stateMutability": "view",
      "type": "function"
    },
    {
      "inputs": [
        {
          "internalType": "uint256",
          "name": "tokenId",
          "type": "uint256"
        }
      ],
      "name": "tokenURI",
      "outputs": [
        {
          "internalType": "string",
          "name": "",
          "type": "string"
        }
      ],
      "stateMutability": "view",
      "type": "function"
    },
    {
      "inputs": [
        {
          "internalType": "uint256",
          "name": "",
          "type": "uint256"
        }
      ],
      "name": "trackingData",
      "outputs": [
        {
          "internalType": "string",
          "name": "",
          "type": "string"
        }
      ],
      "stateMutability": "view",
      "type": "function"
    },
    {
      "inputs": [
        {
          "internalType": "address",
          "name": "from",
          "type": "address"
        },
        {
          "internalType": "address",
          "name": "to",
          "type": "address"
        },
        {
          "internalType": "uint256",
          "name": "tokenId",
          "type": "uint256"
        }
      ],
      "name": "transferFrom",
      "outputs": [],
      "stateMutability": "nonpayable",
      "type": "function"
    },
    {
      "inputs": [
        {
          "internalType": "address",
          "name": "newOwner",
          "type": "address"
        }
      ],
      "name": "transferOwnership",
      "outputs": [],
      "stateMutability": "nonpayable",
      "type": "function"
    },
    {
      "inputs": [
        {
          "internalType": "uint256",
          "name": "tokenId",
          "type": "uint256"
        },
        {
          "internalType": "enum LogisticsOrder.OrderState",
          "name": "newState",
          "type": "uint8"
        }
      ],
      "name": "updateState",
      "outputs": [],
      "stateMutability": "nonpayable",
      "type": "function"
    },
    {
      "inputs": [
        {
          "internalType": "address",
          "name": "newImplementation",
          "type": "address"
        },
        {
          "internalType": "bytes",
          "name": "data",
          "type": "bytes"
        }
      ],
      "name": "upgradeToAndCall",
      "outputs": [],
      "stateMutability": "payable",
      "type": "function"
    },
    {
      "inputs": [],
      "name": "version",
      "outputs": [
        {
          "internalType": "string",
          "name": "",
          "type": "string"
        }
      ],
      "stateMutability": "pure",
      "type": "function"
    }
  ],
  "bytecode": "0x60a060405230608052348015610013575f5ffd5b5061001c610021565b6100d3565b7ff0c57e16840df040f15088dc2f81fe391c3923bec73e23a9662efc9c229c6a00805468010000000000000000900460ff16156100715760405163f92ee8a960e01b815260040160405180910390fd5b80546001600160401b03908116146100d05780546001600160401b0319166001600160401b0390811782556040519081527fc7f505b2f371ae2175ee4913f4499e1f2633a7b5936321eed1cdaeb6115181d29060200160405180910390a15b50565b6080516128b96100f95f395f81816117160152818161173f015261187e01526128b95ff3fe6080604052600436106101c5575f3560e01c806363cbd1d1116100f2578063ad3cb1cc11610092578063d09ef24111610062578063d09ef24114610544578063e985e9c514610570578063f2fde38b1461058f578063ffbafdfe146105ae575f5ffd5b8063ad3cb1cc146104c2578063b88d4fde146104f2578063c4e41b2214610511578063c87b56dd14610525575f5ffd5b80638da5cb5b116100cd5780638da5cb5b1461042257806395d89b411461045e578063a22cb46514610472578063a85c38ef14610491575f5ffd5b806363cbd1d1146103d057806370a08231146103ef578063715018a61461040e575f5ffd5b806323b872dd1161016857806352d1902d1161013857806352d1902d1461034357806354fd4d50146103655780635b8b737a146103925780636352211e146103b1575f5ffd5b806323b872dd146102d357806342842e0e146102f2578063485cc955146103115780634f1ef28614610330575f5ffd5b8063081812fc116101a3578063081812fc1461023f578063095ea7b3146102765780630fd6061214610295578063183d6b3e146102b4575f5ffd5b806301ffc9a7146101c95780630493fb26146101fd57806306fdde031461021e575b5f5ffd5b3480156101d4575f5ffd5b506101e86101e3366004612130565b6105cd565b60405190151581526020015b60405180910390f35b348015610208575f5ffd5b5061021c6102173660046121f0565b61061e565b005b348015610229575f5ffd5b5061023261076b565b6040516101f49190612262565b34801561024a575f5ffd5b5061025e610259366004612274565b61080c565b6040516001600160a01b0390911681526020016101f4565b348015610281575f5ffd5b5061021c6102903660046122a6565b610820565b3480156102a0575f5ffd5b5060025461025e906001600160a01b031681565b3480156102bf575f5ffd5b506102326102ce366004612274565b61082f565b3480156102de575f5ffd5b5061021c6102ed3660046122ce565b6108c6565b3480156102fd575f5ffd5b5061021c61030c3660046122ce565b61094f565b34801561031c575f5ffd5b5061021c61032b366004612308565b61096e565b61021c61033e366004612339565b610b89565b34801561034e575f5ffd5b50610357610ba4565b6040519081526020016101f4565b348015610370575f5ffd5b506040805180820190915260058152640322e302e360dc1b6020820152610232565b34801561039d575f5ffd5b506102326103ac366004612274565b610bbf565b3480156103bc575f5ffd5b5061025e6103cb366004612274565b610c81565b3480156103db575f5ffd5b506103576103ea366004612339565b610c8b565b3480156103fa575f5ffd5b5061035761040936600461236e565b610f37565b348015610419575f5ffd5b5061021c610f8f565b34801561042d575f5ffd5b507f9016d09d72d40fdae2fd8ceac6b6234c7706214fd39c1cd1e609a0528c199300546001600160a01b031661025e565b348015610469575f5ffd5b50610232610fa2565b34801561047d575f5ffd5b5061021c61048c366004612394565b610fe0565b34801561049c575f5ffd5b506104b06104ab366004612274565b610feb565b6040516101f4969594939291906123fd565b3480156104cd575f5ffd5b50610232604051806040016040528060058152602001640352e302e360dc1b81525081565b3480156104fd575f5ffd5b5061021c61050c36600461244b565b6110ba565b34801561051c575f5ffd5b506103576110d2565b348015610530575f5ffd5b5061023261053f366004612274565b6110e6565b34801561054f575f5ffd5b5061056361055e366004612274565b611142565b6040516101f491906124af565b34801561057b575f5ffd5b506101e861058a366004612308565b6112b6565b34801561059a575f5ffd5b5061021c6105a936600461236e565b611302565b3480156105b9575f5ffd5b5061021c6105c8366004612514565b61133f565b5f6001600160e01b031982166380ac58cd60e01b14806105fd57506001600160e01b03198216635b5e139f60e01b145b8061061857506301ffc9a760e01b6001600160e01b03198316145b92915050565b61062782611518565b61064c5760405162461bcd60e51b81526004016106439061253a565b60405180910390fd5b5f828152602081905260409020600101546001600160a01b031633146106c55760405162461bcd60e51b815260206004820152602860248201527f4f6e6c79206f72646572206d616e7566616374757265722063616e2061646420604482015267747261636b696e6760c01b6064820152608401610643565b5f8151116107155760405162461bcd60e51b815260206004820152601d60248201527f547261636b696e6720646174612063616e6e6f7420626520656d7074790000006044820152606401610643565b5f82815260356020526040902061072c82826125e4565b50817fa8c924ba536f0ecfa6d9e2e9fe6d5530dfa9705b3eec639ca396f8795d2c3723824260405161075f92919061269f565b60405180910390a25050565b5f5160206128445f395f51905f52805460609190819061078a90612568565b80601f01602080910402602001604051908101604052809291908181526020018280546107b690612568565b80156108015780601f106107d857610100808354040283529160200191610801565b820191905f5260205f20905b8154815290600101906020018083116107e457829003601f168201915b505050505091505090565b5f61081682611537565b506106188261156e565b61082b8282336115a7565b5050565b60356020525f90815260409020805461084790612568565b80601f016020809104026020016040519081016040528092919081815260200182805461087390612568565b80156108be5780601f10610895576101008083540402835291602001916108be565b820191905f5260205f20905b8154815290600101906020018083116108a157829003601f168201915b505050505081565b6001600160a01b0382166108ef57604051633250574960e11b81525f6004820152602401610643565b5f6108fb8383336115b4565b9050836001600160a01b0316816001600160a01b031614610949576040516364283d7b60e01b81526001600160a01b0380861660048301526024820184905282166044820152606401610643565b50505050565b61096983838360405180602001604052805f8152506110ba565b505050565b5f6109776116b8565b805490915060ff600160401b820416159067ffffffffffffffff165f8115801561099e5750825b90505f8267ffffffffffffffff1660011480156109ba5750303b155b9050811580156109c8575080155b156109e65760405163f92ee8a960e01b815260040160405180910390fd5b845467ffffffffffffffff191660011785558315610a1057845460ff60401b1916600160401b1785555b6001600160a01b038716610a725760405162461bcd60e51b8152602060048201526024808201527f496e76616c6964204d616e7566616374757265725265676973747279206164646044820152637265737360e01b6064820152608401610643565b6001600160a01b038616610ac05760405162461bcd60e51b8152602060048201526015602482015274496e76616c6964206f776e6572206164647265737360581b6044820152606401610643565b610b0a6040518060400160405280600e81526020016d2637b3b4b9ba34b1b9a7b93232b960911b815250604051806040016040528060028152602001614c4f60f01b8152506116e0565b610b13866116f2565b610b1b611703565b600280546001600160a01b0319166001600160a01b038916179055600180558315610b8057845460ff60401b19168555604051600181527fc7f505b2f371ae2175ee4913f4499e1f2633a7b5936321eed1cdaeb6115181d29060200160405180910390a15b50505050505050565b610b9161170b565b610b9a826117af565b61082b82826117b7565b5f610bad611873565b505f5160206128645f395f51905f5290565b6060610bca82611518565b610be65760405162461bcd60e51b81526004016106439061253a565b5f8281526035602052604090208054610bfe90612568565b80601f0160208091040260200160405190810160405280929190818152602001828054610c2a90612568565b8015610c755780601f10610c4c57610100808354040283529160200191610c75565b820191905f5260205f20905b815481529060010190602001808311610c5857829003601f168201915b50505050509050919050565b5f61061882611537565b60025460405163c3c5a54760e01b81523360048201525f916001600160a01b03169063c3c5a54790602401602060405180830381865afa158015610cd1573d5f5f3e3d5ffd5b505050506040513d601f19601f82011682018060405250810190610cf591906126c0565b610d515760405162461bcd60e51b815260206004820152602760248201527f43616c6c6572206973206e6f7420612072656769737465726564206d616e756660448201526630b1ba3ab932b960c91b6064820152608401610643565b6001600160a01b038316610da75760405162461bcd60e51b815260206004820152601860248201527f496e76616c6964207265636569766572206164647265737300000000000000006044820152606401610643565b5f825111610df75760405162461bcd60e51b815260206004820152601960248201527f4950465320686173682063616e6e6f7420626520656d707479000000000000006044820152606401610643565b600180545f9182610e07836126ef565b909155506040805160c0810182528281523360208083019182526001600160a01b038981168486019081525f6060860181815242608088015260a087018c905288825293819052959095208451815592516001840180549183166001600160a01b0319928316179055945160028401805491909216958116861782559151959650929491939192916001600160a81b031990911617600160a01b836004811115610eb357610eb36123c9565b02179055506080820151600382015560a08201516004820190610ed690826125e4565b50905050610ee484826118bc565b836001600160a01b0316336001600160a01b0316827fe3f4f7fc5607c6ab42a1ec9a7537ede8a0731377be155565f5f20c1fa298f44986604051610f289190612262565b60405180910390a49392505050565b5f5f5160206128445f395f51905f526001600160a01b038316610f6f576040516322718ad960e21b81525f6004820152602401610643565b6001600160a01b039092165f908152600390920160205250604090205490565b610f9761191d565b610fa05f611978565b565b7f80bb2b638cc20bc4d0a60d66940f3ab4a00c1d7b313497ca82fb0b4ab007930180546060915f5160206128445f395f51905f529161078a90612568565b61082b3383836119e8565b5f602081905290815260409020805460018201546002830154600384015460048501805494956001600160a01b039485169594841694600160a01b90940460ff169390919061103990612568565b80601f016020809104026020016040519081016040528092919081815260200182805461106590612568565b80156110b05780601f10611087576101008083540402835291602001916110b0565b820191905f5260205f20905b81548152906001019060200180831161109357829003601f168201915b5050505050905086565b6110c58484846108c6565b6109493385858585611a97565b5f600180546110e19190612707565b905090565b60606110f182611518565b61110d5760405162461bcd60e51b81526004016106439061253a565b5f8281526020818152604091829020915161112c92600401910161271a565b6040516020818303038152906040529050919050565b6111796040805160c0810182525f8082526020820181905291810182905290606082019081526020015f8152602001606081525090565b61118282611518565b61119e5760405162461bcd60e51b81526004016106439061253a565b5f8281526020818152604091829020825160c0810184528154815260018201546001600160a01b0390811693820193909352600282015492831693810193909352906060830190600160a01b900460ff166004811115611200576112006123c9565b6004811115611211576112116123c9565b81526020016003820154815260200160048201805461122f90612568565b80601f016020809104026020016040519081016040528092919081815260200182805461125b90612568565b80156112a65780601f1061127d576101008083540402835291602001916112a6565b820191905f5260205f20905b81548152906001019060200180831161128957829003601f168201915b5050505050815250509050919050565b6001600160a01b039182165f9081527f80bb2b638cc20bc4d0a60d66940f3ab4a00c1d7b313497ca82fb0b4ab00793056020908152604080832093909416825291909152205460ff1690565b61130a61191d565b6001600160a01b03811661133357604051631e4fbdf760e01b81525f6004820152602401610643565b61133c81611978565b50565b61134882611518565b6113645760405162461bcd60e51b81526004016106439061253a565b5f828152602081905260409020600101546001600160a01b031633146113dd5760405162461bcd60e51b815260206004820152602860248201527f4f6e6c79206f72646572206d616e7566616374757265722063616e2075706461604482015267746520737461746560c01b6064820152608401610643565b5f82815260208190526040902060020154600160a01b900460ff166114028183611bbf565b61144e5760405162461bcd60e51b815260206004820152601860248201527f496e76616c6964207374617465207472616e736974696f6e00000000000000006044820152606401610643565b5f838152602081905260409020600201805483919060ff60a01b1916600160a01b836004811115611481576114816123c9565b0217905550827f733a27993aa525acbc52d28542aaafdbfdfb5163e22aa33add35114e3bb633cf83426040516114b89291906127a4565b60405180910390a260048260048111156114d4576114d46123c9565b0361096957827fa8f4a4becaccbb7e9fbfe98b251c48404ddd08ad44e331d6cb7698af92e542704260405161150b91815260200190565b60405180910390a2505050565b5f908152602081905260409020600101546001600160a01b0316151590565b5f5f61154283611cc3565b90506001600160a01b03811661061857604051637e27328960e01b815260048101849052602401610643565b5f9081527f80bb2b638cc20bc4d0a60d66940f3ab4a00c1d7b313497ca82fb0b4ab007930460205260409020546001600160a01b031690565b6109698383836001611cfc565b5f5f5160206128445f395f51905f52816115cd85611cc3565b90506001600160a01b038416156115e9576115e9818587611e0f565b6001600160a01b03811615611625576116045f865f5f611cfc565b6001600160a01b0381165f908152600383016020526040902080545f190190555b6001600160a01b03861615611655576001600160a01b0386165f9081526003830160205260409020805460010190555b5f85815260028301602052604080822080546001600160a01b0319166001600160a01b038a811691821790925591518893918516917fddf252ad1be2c89b69c2b068fc378daa952ba7f163c4a11628f55a4df523b3ef91a49150505b9392505050565b5f807ff0c57e16840df040f15088dc2f81fe391c3923bec73e23a9662efc9c229c6a00610618565b6116e8611e73565b61082b8282611e98565b6116fa611e73565b61133c81611ec8565b610fa0611e73565b306001600160a01b037f000000000000000000000000000000000000000000000000000000000000000016148061179157507f00000000000000000000000000000000000000000000000000000000000000006001600160a01b03166117855f5160206128645f395f51905f52546001600160a01b031690565b6001600160a01b031614155b15610fa05760405163703e46dd60e11b815260040160405180910390fd5b61133c61191d565b816001600160a01b03166352d1902d6040518163ffffffff1660e01b8152600401602060405180830381865afa925050508015611811575060408051601f3d908101601f1916820190925261180e918101906127bf565b60015b61183957604051634c9c8ce360e01b81526001600160a01b0383166004820152602401610643565b5f5160206128645f395f51905f52811461186957604051632a87526960e21b815260048101829052602401610643565b6109698383611ed0565b306001600160a01b037f00000000000000000000000000000000000000000000000000000000000000001614610fa05760405163703e46dd60e11b815260040160405180910390fd5b6001600160a01b0382166118e557604051633250574960e11b81525f6004820152602401610643565b5f6118f183835f6115b4565b90506001600160a01b03811615610969576040516339e3563760e11b81525f6004820152602401610643565b3361194f7f9016d09d72d40fdae2fd8ceac6b6234c7706214fd39c1cd1e609a0528c199300546001600160a01b031690565b6001600160a01b031614610fa05760405163118cdaa760e01b8152336004820152602401610643565b7f9016d09d72d40fdae2fd8ceac6b6234c7706214fd39c1cd1e609a0528c19930080546001600160a01b031981166001600160a01b03848116918217845560405192169182907f8be0079c531659141344cd1fd0a4f28419497f9722a3daafe3b4186f6b6457e0905f90a3505050565b5f5160206128445f395f51905f526001600160a01b038316611a2857604051630b61174360e31b81526001600160a01b0384166004820152602401610643565b6001600160a01b038481165f818152600584016020908152604080832094881680845294825291829020805460ff191687151590811790915591519182527f17307eab39ab6107e8899845ad3d59bd9653f200f220920489ca2b5937696c31910160405180910390a350505050565b6001600160a01b0383163b15611bb857604051630a85bd0160e11b81526001600160a01b0384169063150b7a0290611ad99088908890879087906004016127d6565b6020604051808303815f875af1925050508015611b13575060408051601f3d908101601f19168201909252611b1091810190612812565b60015b611b7a573d808015611b40576040519150601f19603f3d011682016040523d82523d5f602084013e611b45565b606091505b5080515f03611b7257604051633250574960e11b81526001600160a01b0385166004820152602401610643565b805160208201fd5b6001600160e01b03198116630a85bd0160e11b14611bb657604051633250574960e11b81526001600160a01b0385166004820152602401610643565b505b5050505050565b5f80836004811115611bd357611bd36123c9565b148015611bf157506001826004811115611bef57611bef6123c9565b145b15611bfe57506001610618565b6001836004811115611c1257611c126123c9565b148015611c3057506002826004811115611c2e57611c2e6123c9565b145b15611c3d57506001610618565b6002836004811115611c5157611c516123c9565b148015611c6f57506003826004811115611c6d57611c6d6123c9565b145b15611c7c57506001610618565b6003836004811115611c9057611c906123c9565b148015611cae57506004826004811115611cac57611cac6123c9565b145b15611cbb57506001610618565b505f92915050565b5f9081527f80bb2b638cc20bc4d0a60d66940f3ab4a00c1d7b313497ca82fb0b4ab007930260205260409020546001600160a01b031690565b5f5160206128445f395f51905f528180611d1e57506001600160a01b03831615155b15611ddf575f611d2d85611537565b90506001600160a01b03841615801590611d595750836001600160a01b0316816001600160a01b031614155b8015611d6c5750611d6a81856112b6565b155b15611d955760405163a9fbf51f60e01b81526001600160a01b0385166004820152602401610643565b8215611ddd5784866001600160a01b0316826001600160a01b03167f8c5be1e5ebec7d5bd14f71427d1e84f3dd0314c0f7b2291e5b200ac8c7c3b92560405160405180910390a45b505b5f93845260040160205250506040902080546001600160a01b0319166001600160a01b0392909216919091179055565b611e1a838383611f25565b610969576001600160a01b038316611e4857604051637e27328960e01b815260048101829052602401610643565b60405163177e802f60e01b81526001600160a01b038316600482015260248101829052604401610643565b611e7b611f8a565b610fa057604051631afcd79f60e31b815260040160405180910390fd5b611ea0611e73565b5f5160206128445f395f51905f5280611eb984826125e4565b506001810161094983826125e4565b61130a611e73565b611ed982611fa3565b6040516001600160a01b038316907fbc7cd75a20ee27fd9adebab32041f755214dbc6bffa90cc0225b39da2e5c2d3b905f90a2805115611f1d576109698282612006565b61082b612078565b5f6001600160a01b03831615801590611f825750826001600160a01b0316846001600160a01b03161480611f5e5750611f5e84846112b6565b80611f825750826001600160a01b0316611f778361156e565b6001600160a01b0316145b949350505050565b5f611f936116b8565b54600160401b900460ff16919050565b806001600160a01b03163b5f03611fd857604051634c9c8ce360e01b81526001600160a01b0382166004820152602401610643565b5f5160206128645f395f51905f5280546001600160a01b0319166001600160a01b0392909216919091179055565b60605f5f846001600160a01b031684604051612022919061282d565b5f60405180830381855af49150503d805f811461205a576040519150601f19603f3d011682016040523d82523d5f602084013e61205f565b606091505b509150915061206f858383612097565b95945050505050565b3415610fa05760405163b398979f60e01b815260040160405180910390fd5b6060826120ac576120a7826120f3565b6116b1565b81511580156120c357506001600160a01b0384163b155b156120ec57604051639996b31560e01b81526001600160a01b0385166004820152602401610643565b50806116b1565b80511561210257805160208201fd5b60405163d6bda27560e01b815260040160405180910390fd5b6001600160e01b03198116811461133c575f5ffd5b5f60208284031215612140575f5ffd5b81356116b18161211b565b634e487b7160e01b5f52604160045260245ffd5b5f82601f83011261216e575f5ffd5b8135602083015f5f67ffffffffffffffff84111561218e5761218e61214b565b50604051601f19601f85018116603f0116810181811067ffffffffffffffff821117156121bd576121bd61214b565b6040528381529050808284018710156121d4575f5ffd5b838360208301375f602085830101528094505050505092915050565b5f5f60408385031215612201575f5ffd5b82359150602083013567ffffffffffffffff81111561221e575f5ffd5b61222a8582860161215f565b9150509250929050565b5f81518084528060208401602086015e5f602082860101526020601f19601f83011685010191505092915050565b602081525f6116b16020830184612234565b5f60208284031215612284575f5ffd5b5035919050565b80356001600160a01b03811681146122a1575f5ffd5b919050565b5f5f604083850312156122b7575f5ffd5b6122c08361228b565b946020939093013593505050565b5f5f5f606084860312156122e0575f5ffd5b6122e98461228b565b92506122f76020850161228b565b929592945050506040919091013590565b5f5f60408385031215612319575f5ffd5b6123228361228b565b91506123306020840161228b565b90509250929050565b5f5f6040838503121561234a575f5ffd5b6123538361228b565b9150602083013567ffffffffffffffff81111561221e575f5ffd5b5f6020828403121561237e575f5ffd5b6116b18261228b565b801515811461133c575f5ffd5b5f5f604083850312156123a5575f5ffd5b6123ae8361228b565b915060208301356123be81612387565b809150509250929050565b634e487b7160e01b5f52602160045260245ffd5b600581106123f957634e487b7160e01b5f52602160045260245ffd5b9052565b8681526001600160a01b0386811660208301528516604082015261242460608201856123dd565b82608082015260c060a08201525f61243f60c0830184612234565b98975050505050505050565b5f5f5f5f6080858703121561245e575f5ffd5b6124678561228b565b93506124756020860161228b565b925060408501359150606085013567ffffffffffffffff811115612497575f5ffd5b6124a38782880161215f565b91505092959194509250565b602081528151602082015260018060a01b03602083015116604082015260018060a01b0360408301511660608201525f60608301516124f160808401826123dd565b50608083015160a083015260a083015160c080840152611f8260e0840182612234565b5f5f60408385031215612525575f5ffd5b823591506020830135600581106123be575f5ffd5b60208082526014908201527313dc99195c88191bd95cc81b9bdd08195e1a5cdd60621b604082015260600190565b600181811c9082168061257c57607f821691505b60208210810361259a57634e487b7160e01b5f52602260045260245ffd5b50919050565b601f82111561096957805f5260205f20601f840160051c810160208510156125c55750805b601f840160051c820191505b81811015611bb8575f81556001016125d1565b815167ffffffffffffffff8111156125fe576125fe61214b565b6126128161260c8454612568565b846125a0565b6020601f821160018114612644575f831561262d5750848201515b5f19600385901b1c1916600184901b178455611bb8565b5f84815260208120601f198516915b828110156126735787850151825560209485019460019092019101612653565b508482101561269057868401515f19600387901b60f8161c191681555b50505050600190811b01905550565b604081525f6126b16040830185612234565b90508260208301529392505050565b5f602082840312156126d0575f5ffd5b81516116b181612387565b634e487b7160e01b5f52601160045260245ffd5b5f60018201612700576127006126db565b5060010190565b81810381811115610618576106186126db565b66697066733a2f2f60c81b81525f5f835461273481612568565b60018216801561274b576001811461276657612799565b60ff1983166007870152600782151583028701019350612799565b865f5260205f205f5b8381101561278e5781548882016007015260019091019060200161276f565b505060078287010193505b509195945050505050565b604081016127b282856123dd565b8260208301529392505050565b5f602082840312156127cf575f5ffd5b5051919050565b6001600160a01b03858116825284166020820152604081018390526080606082018190525f9061280890830184612234565b9695505050505050565b5f60208284031215612822575f5ffd5b81516116b18161211b565b5f82518060208501845e5f92019182525091905056fe80bb2b638cc20bc4d0a60d66940f3ab4a00c1d7b313497ca82fb0b4ab0079300360894a13ba1a3210667c828492db98dca3e2076cc3735a920a3ca505d382bbca26469706673582212208c10d5a48161573c7cfbef95d0ff36a26c1b2fbeae71302fb0f4bac9ea2addc664736f6c634300081c0033",
  "linkReferences": {},
  "deployedLinkReferences": {},
  "immutableReferences": {
    "482": [
      {
        "length": 32,
        "start": 5910
      },
      {
        "length": 32,
        "start": 5951
      },
      {
        "length": 32,
        "start": 6270
      }
    ]
  },
  "inputSourceName": "project/contracts/LogisticsOrderV2.sol",
  "buildInfoId": "solc-0_8_28-a84e0c3c7d79c62660564a41a58c1b524e8c6398"
}