{
  "_format": "hh3-artifact-1",
  "contractName": "LogisticsOrder",
  "sourceName": "contracts/LogisticsOrder.sol",
  "abi": [
    {
      "inputs": [],
      "stateMutability": "nonpayable",
      "type": "constructor"
    },
    {
      "inputs": [
        {
          "internalType": "address",
          "name": "target",
          "type": "address"
        }
      ],
      "name": "AddressEmptyCode",
      "type": "error"
    },
    {
      "inputs": [
        {
          "internalType": "address",
          "name": "implementation",
          "type": "address"
        }
      ],
      "name": "ERC1967InvalidImplementation",
      "type": "error"
    },
    {
      "inputs": [],
      "name": "ERC1967NonPayable",
      "type": "error"
    },
    {
      "inputs": [
        {
          "internalType": "address",
          "name": "sender",
          "type": "address"
        },
        {
          "internalType": "uint256",
          "name": "tokenId",
          "type": "uint256"
        },
        {
          "internalType": "address",
          "name": "owner",
          "type": "address"
        }
      ],
      "name": "ERC721IncorrectOwner",
      "type": "error"
    },
    {
      "inputs": [
        {
          "internalType": "address",
          "name": "operator",
          "type": "address"
        },
        {
          "internalType": "uint256",
          "name": "tokenId",
          "type": "uint256"
        }
      ],
      "name": "ERC721InsufficientApproval",
      "type": "error"
    },
    {
      "inputs": [
        {
          "internalType": "address",
          "name": "approver",
          "type": "address"
        }
      ],
      "name": "ERC721InvalidApprover",
      "type": "error"
    },
    {
      "inputs": [
        {
          "internalType": "address",
          "name": "operator",
          "type": "address"
        }
      ],
      "name": "ERC721InvalidOperator",
      "type": "error"
    },
    {
      "inputs": [
        {
          "internalType": "address",
          "name": "owner",
          "type": "address"
        }
      ],
      "name": "ERC721InvalidOwner",
      "type": "error"
    },
    {
      "inputs": [
        {
          "internalType": "address",
          "name": "receiver",
          "type": "address"
        }
      ],
      "name": "ERC721InvalidReceiver",
      "type": "error"
    },
    {
      "inputs": [
        {
          "internalType": "address",
          "name": "sender",
          "type": "address"
        }
      ],
      "name": "ERC721InvalidSender",
      "type": "error"
    },
    {
      "inputs": [
        {
          "internalType": "uint256",
          "name": "tokenId",
          "type": "uint256"
        }
      ],
      "name": "ERC721NonexistentToken",
      "type": "error"
    },
    {
      "inputs": [],
      "name": "FailedCall",
      "type": "error"
    },
    {
      "inputs": [],
      "name": "InvalidInitialization",
      "type": "error"
    },
    {
      "inputs": [],
      "name": "NotInitializing",
      "type": "error"
    },
    {
      "inputs": [
        {
          "internalType": "address",
          "name": "owner",
          "type": "address"
        }
      ],
      "name": "OwnableInvalidOwner",
      "type": "error"
    },
    {
      "inputs": [
        {
          "internalType": "address",
          "name": "account",
          "type": "address"
        }
      ],
      "name": "OwnableUnauthorizedAccount",
      "type": "error"
    },
    {
      "inputs": [],
      "name": "UUPSUnauthorizedCallContext",
      "type": "error"
    },
    {
      "inputs": [
        {
          "internalType": "bytes32",
          "name": "slot",
          "type": "bytes32"
        }
      ],
      "name": "UUPSUnsupportedProxiableUUID",
      "type": "error"
    },
    {
      "anonymous": false,
      "inputs": [
        {
          "indexed": true,
          "internalType": "address",
          "name": "owner",
          "type": "address"
        },
        {
          "indexed": true,
          "internalType": "address",
          "name": "approved",
          "type": "address"
        },
        {
          "indexed": true,
          "internalType": "uint256",
          "name": "tokenId",
          "type": "uint256"
        }
      ],
      "name": "Approval",
      "type": "event"
    },
    {
      "anonymous": false,
      "inputs": [
        {
          "indexed": true,
          "internalType": "address",
          "name": "owner",
          "type": "address"
        },
        {
          "indexed": true,
          "internalType": "address",
          "name": "operator",
          "type": "address"
        },
        {
          "indexed": false,
          "internalType": "bool",
          "name": "approved",
          "type": "bool"
        }
      ],
      "name": "ApprovalForAll",
      "type": "event"
    },
    {
      "anonymous": false,
      "inputs": [
        {
          "indexed": false,
          "internalType": "uint64",
          "name": "version",
          "type": "uint64"
        }
      ],
      "name": "Initialized",
      "type": "event"
    },
    {
      "anonymous": false,
      "inputs": [
        {
          "indexed": true,
          "internalType": "uint256",
          "name": "tokenId",
          "type": "uint256"
        },
        {
          "indexed": true,
          "internalType": "address",
          "name": "manufacturer",
          "type": "address"
        },
        {
          "indexed": true,
          "internalType": "address",
          "name": "receiver",
          "type": "address"
        },
        {
          "indexed": false,
          "internalType": "string",
          "name": "ipfsHash",
          "type": "string"
        }
      ],
      "name": "OrderCreated",
      "type": "event"
    },
    {
      "anonymous": false,
      "inputs": [
        {
          "indexed": true,
          "internalType": "uint256",
          "name": "tokenId",
          "type": "uint256"
        },
        {
          "indexed": false,
          "internalType": "uint256",
          "name": "timestamp",
          "type": "uint256"
        }
      ],
      "name": "OrderDelivered",
      "type": "event"
    },
    {
      "anonymous": false,
      "inputs": [
        {
          "indexed": true,
          "internalType": "address",
          "name": "previousOwner",
          "type": "address"
        },
        {
          "indexed": true,
          "internalType": "address",
          "name": "newOwner",
          "type": "address"
        }
      ],
      "name": "OwnershipTransferred",
      "type": "event"
    },
    {
      "anonymous": false,
      "inputs": [
        {
          "indexed": true,
          "internalType": "uint256",
          "name": "tokenId",
          "type": "uint256"
        },
        {
          "indexed": false,
          "internalType": "enum LogisticsOrder.OrderState",
          "name": "newState",
          "type": "uint8"
        },
        {
          "indexed": false,
          "internalType": "uint256",
          "name": "timestamp",
          "type": "uint256"
        }
      ],
      "name": "StateUpdated",
      "type": "event"
    },
    {
      "anonymous": false,
      "inputs": [
        {
          "indexed": true,
          "internalType": "address",
          "name": "from",
          "type": "address"
        },
        {
          "indexed": true,
          "internalType": "address",
          "name": "to",
          "type": "address"
        },
        {
          "indexed": true,
          "internalType": "uint256",
          "name": "tokenId",
          "type": "uint256"
        }
      ],
      "name": "Transfer",
      "type": "event"
    },
    {
      "anonymous": false,
      "inputs": [
        {
          "indexed": true,
          "internalType": "address",
          "name": "implementation",
          "type": "address"
        }
      ],
      "name": "Upgraded",
      "type": "event"
    },
    {
      "inputs": [],
      "name": "UPGRADE_INTERFACE_VERSION",
      "outputs": [
        {
          "internalType": "string",
          "name": "",
          "type": "string"
        }
      ],
      "stateMutability": "view",
      "type": "function"
    },
    {
      "inputs": [
        {
          "internalType": "address",
          "name": "to",
          "type": "address"
        },
        {
          "internalType": "uint256",
          "name": "tokenId",
          "type": "uint256"
        }
      ],
      "name": "approve",
      "outputs": [],
      "stateMutability": "nonpayable",
      "type": "function"
    },
    {
      "inputs": [
        {
          "internalType": "address",
          "name": "owner",
          "type": "address"
        }
      ],
      "name": "balanceOf",
      "outputs": [
        {
          "internalType": "uint256",
          "name": "",
          "type": "uint256"
        }
      ],
      "stateMutability": "view",
      "type": "function"
    },
    {
      "inputs": [
        {
          "internalType": "address",
          "name": "receiver",
          "type": "address"
        },
        {
          "internalType": "string",
          "name": "ipfsHash",
          "type": "string"
        }
      ],
      "name": "createOrder",
      "outputs": [
        {
          "internalType": "uint256",
          "name": "",
          "type": "uint256"
        }
      ],
      "stateMutability": "nonpayable",
      "type": "function"
    },
    {
      "inputs": [
        {
          "internalType": "uint256",
          "name": "tokenId",
          "type": "uint256"
        }
      ],
      "name": "getApproved",
      "outputs": [
        {
          "internalType": "address",
          "name": "",
          "type": "address"
        }
      ],
      "stateMutability": "view",
      "type": "function"
    },
    {
      "inputs": [
        {
          "internalType": "uint256",
          "name": "tokenId",
          "type": "uint256"
        }
      ],
      "name": "getOrder",
      "outputs": [
        {
          "components": [
            {
              "internalType": "uint256",
              "name": "tokenId",
              "type": "uint256"
            },
            {
              "internalType": "address",
              "name": "manufacturer",
              "type": "address"
            },
            {
              "internalType": "address",
              "name": "receiver",
              "type": "address"
            },
            {
              "internalType": "enum LogisticsOrder.OrderState",
              "name": "state",
              "type": "uint8"
            },
            {
              "internalType": "uint256",
              "name": "createdAt",
              "type": "uint256"
            },
            {
              "internalType": "string",
              "name": "ipfsHash",
              "type": "string"
            }
          ],
          "internalType": "struct LogisticsOrder.Order",
          "name": "",
          "type": "tuple"
        }
      ],
      "stateMutability": "view",
      "type": "function"
    },
    {
      "inputs": [],
      "name": "getTotalSupply",
      "outputs": [
        {
          "internalType": "uint256",
          "name": "",
          "type": "uint256"
        }
      ],
      "stateMutability": "view",
      "type": "function"
    },
    {
      "inputs": [
        {
          "internalType": "address",
          "name": "_manufacturerRegistry",
          "type": "address"
        },
        {
          "internalType": "address",
          "name": "_initialOwner",
          "type": "address"
        }
      ],
      "name": "initialize",
      "outputs": [],
      "stateMutability": "nonpayable",
      "type": "function"
    },
    {
      "inputs": [
        {
          "internalType": "address",
          "name": "owner",
          "type": "address"
        },
        {
          "internalType": "address",
          "name": "operator",
          "type": "address"
        }
      ],
      "name": "isApprovedForAll",
      "outputs": [
        {
          "internalType": "bool",
          "name": "",
          "type": "bool"
        }
      ],
      "stateMutability": "view",
      "type": "function"
    },
    {
      "inputs": [],
      "name": "manufacturerRegistry",
      "outputs": [
        {
          "internalType": "contract ManufacturerRegistry",
          "name": "",
          "type": "address"
        }
      ],
      "stateMutability": "view",
      "type": "function"
    },
    {
      "inputs": [],
      "name": "name",
      "outputs": [
        {
          "internalType": "string",
          "name": "",
          "type": "string"
        }
      ],
      "stateMutability": "view",
      "type": "function"
    },
    {
      "inputs": [
        {
          "internalType": "uint256",
          "name": "",
          "type": "uint256"
        }
      ],
      "name": "orders",
      "outputs": [
        {
          "internalType": "uint256",
          "name": "tokenId",
          "type": "uint256"
        },
        {
          "internalType": "address",
          "name": "manufacturer",
          "type": "address"
        },
        {
          "internalType": "address",
          "name": "receiver",
          "type": "address"
        },
        {
          "internalType": "enum LogisticsOrder.OrderState",
          "name": "state",
          "type": "uint8"
        },
        {
          "internalType": "uint256",
          "name": "createdAt",
          "type": "uint256"
        },
        {
          "internalType": "string",
          "name": "ipfsHash",
          "type": "string"
        }
      ],
      "stateMutability": "view",
      "type": "function"
    },
    {
      "inputs": [],
      "name": "owner",
      "outputs": [
        {
          "internalType": "address",
          "name": "",
          "type": "address"
        }
      ],
      "stateMutability": "view",
      "type": "function"
    },
    {
      "inputs": [
        {
          "internalType": "uint256",
          "name": "tokenId",
          "type": "uint256"
        }
      ],
      "name": "ownerOf",
      "outputs": [
        {
          "internalType": "address",
          "name": "",
          "type": "address"
        }
      ],
      "stateMutability": "view",
      "type": "function"
    },
    {
      "inputs": [],
      "name": "proxiableUUID",
      "outputs": [
        {
          "internalType": "bytes32",
          "name": "",
          "type": "bytes32"
        }
      ],
      "stateMutability": "view",
      "type": "function"
    },
    {
      "inputs": [],
      "name": "renounceOwnership",
      "outputs": [],
      "stateMutability": "nonpayable",
      "type": "function"
    },
    {
      "inputs": [
        {
          "internalType": "address",
          "name": "from",
          "type": "address"
        },
        {
          "internalType": "address",
          "name": "to",
          "type": "address"
        },
        {
          "internalType": "uint256",
          "name": "tokenId",
          "type": "uint256"
        }
      ],
      "name": "safeTransferFrom",
      "outputs": [],
      "stateMutability": "nonpayable",
      "type": "function"
    },
    {
      "inputs": [
        {
          "internalType": "address",
          "name": "from",
          "type": "address"
        },
        {
          "internalType": "address",
          "name": "to",
          "type": "address"
        },
        {
          "internalType": "uint256",
          "name": "tokenId",
          "type": "uint256"
        },
        {
          "internalType": "bytes",
          "name": "data",
          "type": "bytes"
        }
      ],
      "name": "safeTransferFrom",
      "outputs": [],
      "stateMutability": "nonpayable",
      "type": "function"
    },
    {
      "inputs": [
        {
          "internalType": "address",
          "name": "operator",
          "type": "address"
        },
        {
          "internalType": "bool",
          "name": "approved",
          "type": "bool"
        }
      ],
      "name": "setApprovalForAll",
      "outputs": [],
      "stateMutability": "nonpayable",
      "type": "function"
    },
    {
      "inputs": [
        {
          "internalType": "bytes4",
          "name": "interfaceId",
          "type": "bytes4"
        }
      ],
      "name": "supportsInterface",
      "outputs": [
        {
          "internalType": "bool",
          "name": "",
          "type": "bool"
        }
      ],
      "stateMutability": "view",
      "type": "function"
    },
    {
      "inputs": [],
      "name": "symbol",
      "outputs": [
        {
          "internalType": "string",
          "name": "",
          "type": "string"
        }
      ],
      "stateMutability": "view",
      "type": "function"
    },
    {
      "inputs": [
        {
          "internalType": "uint256",
          "name": "tokenId",
          "type": "uint256"
        }
      ],
      "name": "tokenURI",
      "outputs": [
        {
          "internalType": "string",
          "name": "",
          "type": "string"
        }
      ],
      "stateMutability": "view",
      "type": "function"
    },
    {
      "inputs": [
        {
          "internalType": "address",
          "name": "from",
          "type": "address"
        },
        {
          "internalType": "address",
          "name": "to",
          "type": "address"
        },
        {
          "internalType": "uint256",
          "name": "tokenId",
          "type": "uint256"
        }
      ],
      "name": "transferFrom",
      "outputs": [],
      "stateMutability": "nonpayable",
      "type": "function"
    },
    {
      "inputs": [
        {
          "internalType": "address",
          "name": "newOwner",
          "type": "address"
        }
      ],
      "name": "transferOwnership",
      "outputs": [],
      "stateMutability": "nonpayable",
      "type": "function"
    },
    {
      "inputs": [
        {
          "internalType": "uint256",
          "name": "tokenId",
          "type": "uint256"
        },
        {
          "internalType": "enum LogisticsOrder.OrderState",
          "name": "newState",
          "type": "uint8"
        }
      ],
      "name": "updateState",
      "outputs": [],
      "stateMutability": "nonpayable",
      "type": "function"
    },
    {
      "inputs": [
        {
          "internalType": "address",
          "name": "newImplementation",
          "type": "address"
        },
        {
          "internalType": "bytes",
          "name": "data",
          "type": "bytes"
        }
      ],
      "name": "upgradeToAndCall",
      "outputs": [],
      "stateMutability": "payable",
      "type": "function"
    },
    {
      "inputs": [],
      "name": "version",
      "outputs": [
        {
          "internalType": "string",
          "name": "",
          "type": "string"
        }
      ],
      "stateMutability": "pure",
      "type": "function"
    }
  ],
  "bytecode": "0x60a060405230608052348015610013575f5ffd5b5061001c610021565b6100d3565b7ff0c57e16840df040f15088dc2f81fe391c3923bec73e23a9662efc9c229c6a00805468010000000000000000900460ff16156100715760405163f92ee8a960e01b815260040160405180910390fd5b80546001600160401b03908116146100d05780546001600160401b0319166001600160401b0390811782556040519081527fc7f505b2f371ae2175ee4913f4499e1f2633a7b5936321eed1cdaeb6115181d29060200160405180910390a15b50565b6080516125a96100f95f395f81816113fd01528181611426015261156501526125a95ff3fe608060405260043610610195575f3560e01c806370a08231116100e7578063b88d4fde11610087578063d09ef24111610062578063d09ef241146104b7578063e985e9c5146104e3578063f2fde38b14610502578063ffbafdfe14610521575f5ffd5b8063b88d4fde14610465578063c4e41b2214610484578063c87b56dd14610498575f5ffd5b806395d89b41116100c257806395d89b41146103d1578063a22cb465146103e5578063a85c38ef14610404578063ad3cb1cc14610435575f5ffd5b806370a0823114610362578063715018a6146103815780638da5cb5b14610395575f5ffd5b806342842e0e1161015257806352d1902d1161012d57806352d1902d146102d557806354fd4d50146102f75780636352211e1461032457806363cbd1d114610343575f5ffd5b806342842e0e14610284578063485cc955146102a35780634f1ef286146102c2575f5ffd5b806301ffc9a71461019957806306fdde03146101cd578063081812fc146101ee578063095ea7b3146102255780630fd606121461024657806323b872dd14610265575b5f5ffd5b3480156101a4575f5ffd5b506101b86101b3366004611e17565b610540565b60405190151581526020015b60405180910390f35b3480156101d8575f5ffd5b506101e1610591565b6040516101c49190611e60565b3480156101f9575f5ffd5b5061020d610208366004611e72565b610632565b6040516001600160a01b0390911681526020016101c4565b348015610230575f5ffd5b5061024461023f366004611ea4565b610646565b005b348015610251575f5ffd5b5060025461020d906001600160a01b031681565b348015610270575f5ffd5b5061024461027f366004611ecc565b610655565b34801561028f575f5ffd5b5061024461029e366004611ecc565b6106e3565b3480156102ae575f5ffd5b506102446102bd366004611f06565b610702565b6102446102d0366004611fe0565b61091d565b3480156102e0575f5ffd5b506102e9610938565b6040519081526020016101c4565b348015610302575f5ffd5b506040805180820190915260058152640312e302e360dc1b60208201526101e1565b34801561032f575f5ffd5b5061020d61033e366004611e72565b610953565b34801561034e575f5ffd5b506102e961035d36600461202b565b61095d565b34801561036d575f5ffd5b506102e961037c36600461207f565b610c09565b34801561038c575f5ffd5b50610244610c61565b3480156103a0575f5ffd5b507f9016d09d72d40fdae2fd8ceac6b6234c7706214fd39c1cd1e609a0528c199300546001600160a01b031661020d565b3480156103dc575f5ffd5b506101e1610c74565b3480156103f0575f5ffd5b506102446103ff3660046120a5565b610cb2565b34801561040f575f5ffd5b5061042361041e366004611e72565b610cbd565b6040516101c49695949392919061210e565b348015610440575f5ffd5b506101e1604051806040016040528060058152602001640352e302e360dc1b81525081565b348015610470575f5ffd5b5061024461047f36600461215c565b610d8c565b34801561048f575f5ffd5b506102e9610da4565b3480156104a3575f5ffd5b506101e16104b2366004611e72565b610db8565b3480156104c2575f5ffd5b506104d66104d1366004611e72565b610e26565b6040516101c491906121c0565b3480156104ee575f5ffd5b506101b86104fd366004611f06565b610fab565b34801561050d575f5ffd5b5061024461051c36600461207f565b610ff7565b34801561052c575f5ffd5b5061024461053b366004612225565b611034565b5f6001600160e01b031982166380ac58cd60e01b148061057057506001600160e01b03198216635b5e139f60e01b145b8061058b57506301ffc9a760e01b6001600160e01b03198316145b92915050565b5f5160206125345f395f51905f5280546060919081906105b09061224b565b80601f01602080910402602001604051908101604052809291908181526020018280546105dc9061224b565b80156106275780601f106105fe57610100808354040283529160200191610627565b820191905f5260205f20905b81548152906001019060200180831161060a57829003601f168201915b505050505091505090565b5f61063c8261121e565b5061058b82611255565b61065182823361128e565b5050565b6001600160a01b03821661068357604051633250574960e11b81525f60048201526024015b60405180910390fd5b5f61068f83833361129b565b9050836001600160a01b0316816001600160a01b0316146106dd576040516364283d7b60e01b81526001600160a01b038086166004830152602482018490528216604482015260640161067a565b50505050565b6106fd83838360405180602001604052805f815250610d8c565b505050565b5f61070b61139f565b805490915060ff600160401b820416159067ffffffffffffffff165f811580156107325750825b90505f8267ffffffffffffffff16600114801561074e5750303b155b90508115801561075c575080155b1561077a5760405163f92ee8a960e01b815260040160405180910390fd5b845467ffffffffffffffff1916600117855583156107a457845460ff60401b1916600160401b1785555b6001600160a01b0387166108065760405162461bcd60e51b8152602060048201526024808201527f496e76616c6964204d616e7566616374757265725265676973747279206164646044820152637265737360e01b606482015260840161067a565b6001600160a01b0386166108545760405162461bcd60e51b8152602060048201526015602482015274496e76616c6964206f776e6572206164647265737360581b604482015260640161067a565b61089e6040518060400160405280600e81526020016d2637b3b4b9ba34b1b9a7b93232b960911b815250604051806040016040528060028152602001614c4f60f01b8152506113c7565b6108a7866113d9565b6108af6113ea565b600280546001600160a01b0319166001600160a01b03891617905560018055831561091457845460ff60401b19168555604051600181527fc7f505b2f371ae2175ee4913f4499e1f2633a7b5936321eed1cdaeb6115181d29060200160405180910390a15b50505050505050565b6109256113f2565b61092e82611496565b610651828261149e565b5f61094161155a565b505f5160206125545f395f51905f5290565b5f61058b8261121e565b60025460405163c3c5a54760e01b81523360048201525f916001600160a01b03169063c3c5a54790602401602060405180830381865afa1580156109a3573d5f5f3e3d5ffd5b505050506040513d601f19601f820116820180604052508101906109c79190612283565b610a235760405162461bcd60e51b815260206004820152602760248201527f43616c6c6572206973206e6f7420612072656769737465726564206d616e756660448201526630b1ba3ab932b960c91b606482015260840161067a565b6001600160a01b038316610a795760405162461bcd60e51b815260206004820152601860248201527f496e76616c696420726563656976657220616464726573730000000000000000604482015260640161067a565b5f825111610ac95760405162461bcd60e51b815260206004820152601960248201527f4950465320686173682063616e6e6f7420626520656d70747900000000000000604482015260640161067a565b600180545f9182610ad9836122b2565b909155506040805160c0810182528281523360208083019182526001600160a01b038981168486019081525f6060860181815242608088015260a087018c905288825293819052959095208451815592516001840180549183166001600160a01b0319928316179055945160028401805491909216958116861782559151959650929491939192916001600160a81b031990911617600160a01b836004811115610b8557610b856120da565b02179055506080820151600382015560a08201516004820190610ba8908261230e565b50905050610bb684826115a3565b836001600160a01b0316336001600160a01b0316827fe3f4f7fc5607c6ab42a1ec9a7537ede8a0731377be155565f5f20c1fa298f44986604051610bfa9190611e60565b60405180910390a49392505050565b5f5f5160206125345f395f51905f526001600160a01b038316610c41576040516322718ad960e21b81525f600482015260240161067a565b6001600160a01b039092165f908152600390920160205250604090205490565b610c69611604565b610c725f61165f565b565b7f80bb2b638cc20bc4d0a60d66940f3ab4a00c1d7b313497ca82fb0b4ab007930180546060915f5160206125345f395f51905f52916105b09061224b565b6106513383836116cf565b5f602081905290815260409020805460018201546002830154600384015460048501805494956001600160a01b039485169594841694600160a01b90940460ff1693909190610d0b9061224b565b80601f0160208091040260200160405190810160405280929190818152602001828054610d379061224b565b8015610d825780601f10610d5957610100808354040283529160200191610d82565b820191905f5260205f20905b815481529060010190602001808311610d6557829003601f168201915b5050505050905086565b610d97848484610655565b6106dd338585858561177e565b5f60018054610db391906123c9565b905090565b5f818152602081905260409020600101546060906001600160a01b0316610df15760405162461bcd60e51b815260040161067a906123dc565b5f82815260208181526040918290209151610e1092600401910161240a565b6040516020818303038152906040529050919050565b610e5d6040805160c0810182525f8082526020820181905291810182905290606082019081526020015f8152602001606081525090565b5f828152602081905260409020600101546001600160a01b0316610e935760405162461bcd60e51b815260040161067a906123dc565b5f8281526020818152604091829020825160c0810184528154815260018201546001600160a01b0390811693820193909352600282015492831693810193909352906060830190600160a01b900460ff166004811115610ef557610ef56120da565b6004811115610f0657610f066120da565b815260200160038201548152602001600482018054610f249061224b565b80601f0160208091040260200160405190810160405280929190818152602001828054610f509061224b565b8015610f9b5780601f10610f7257610100808354040283529160200191610f9b565b820191905f5260205f20905b815481529060010190602001808311610f7e57829003601f168201915b5050505050815250509050919050565b6001600160a01b039182165f9081527f80bb2b638cc20bc4d0a60d66940f3ab4a00c1d7b313497ca82fb0b4ab00793056020908152604080832093909416825291909152205460ff1690565b610fff611604565b6001600160a01b03811661102857604051631e4fbdf760e01b81525f600482015260240161067a565b6110318161165f565b50565b5f828152602081905260409020600101546001600160a01b031661106a5760405162461bcd60e51b815260040161067a906123dc565b5f828152602081905260409020600101546001600160a01b031633146110e35760405162461bcd60e51b815260206004820152602860248201527f4f6e6c79206f72646572206d616e7566616374757265722063616e2075706461604482015267746520737461746560c01b606482015260840161067a565b5f82815260208190526040902060020154600160a01b900460ff1661110881836118a6565b6111545760405162461bcd60e51b815260206004820152601860248201527f496e76616c6964207374617465207472616e736974696f6e0000000000000000604482015260640161067a565b5f838152602081905260409020600201805483919060ff60a01b1916600160a01b836004811115611187576111876120da565b0217905550827f733a27993aa525acbc52d28542aaafdbfdfb5163e22aa33add35114e3bb633cf83426040516111be929190612494565b60405180910390a260048260048111156111da576111da6120da565b036106fd57827fa8f4a4becaccbb7e9fbfe98b251c48404ddd08ad44e331d6cb7698af92e542704260405161121191815260200190565b60405180910390a2505050565b5f5f611229836119aa565b90506001600160a01b03811661058b57604051637e27328960e01b81526004810184905260240161067a565b5f9081527f80bb2b638cc20bc4d0a60d66940f3ab4a00c1d7b313497ca82fb0b4ab007930460205260409020546001600160a01b031690565b6106fd83838360016119e3565b5f5f5160206125345f395f51905f52816112b4856119aa565b90506001600160a01b038416156112d0576112d0818587611af6565b6001600160a01b0381161561130c576112eb5f865f5f6119e3565b6001600160a01b0381165f908152600383016020526040902080545f190190555b6001600160a01b0386161561133c576001600160a01b0386165f9081526003830160205260409020805460010190555b5f85815260028301602052604080822080546001600160a01b0319166001600160a01b038a811691821790925591518893918516917fddf252ad1be2c89b69c2b068fc378daa952ba7f163c4a11628f55a4df523b3ef91a49150505b9392505050565b5f807ff0c57e16840df040f15088dc2f81fe391c3923bec73e23a9662efc9c229c6a0061058b565b6113cf611b5a565b6106518282611b7f565b6113e1611b5a565b61103181611baf565b610c72611b5a565b306001600160a01b037f000000000000000000000000000000000000000000000000000000000000000016148061147857507f00000000000000000000000000000000000000000000000000000000000000006001600160a01b031661146c5f5160206125545f395f51905f52546001600160a01b031690565b6001600160a01b031614155b15610c725760405163703e46dd60e11b815260040160405180910390fd5b611031611604565b816001600160a01b03166352d1902d6040518163ffffffff1660e01b8152600401602060405180830381865afa9250505080156114f8575060408051601f3d908101601f191682019092526114f5918101906124af565b60015b61152057604051634c9c8ce360e01b81526001600160a01b038316600482015260240161067a565b5f5160206125545f395f51905f52811461155057604051632a87526960e21b81526004810182905260240161067a565b6106fd8383611bb7565b306001600160a01b037f00000000000000000000000000000000000000000000000000000000000000001614610c725760405163703e46dd60e11b815260040160405180910390fd5b6001600160a01b0382166115cc57604051633250574960e11b81525f600482015260240161067a565b5f6115d883835f61129b565b90506001600160a01b038116156106fd576040516339e3563760e11b81525f600482015260240161067a565b336116367f9016d09d72d40fdae2fd8ceac6b6234c7706214fd39c1cd1e609a0528c199300546001600160a01b031690565b6001600160a01b031614610c725760405163118cdaa760e01b815233600482015260240161067a565b7f9016d09d72d40fdae2fd8ceac6b6234c7706214fd39c1cd1e609a0528c19930080546001600160a01b031981166001600160a01b03848116918217845560405192169182907f8be0079c531659141344cd1fd0a4f28419497f9722a3daafe3b4186f6b6457e0905f90a3505050565b5f5160206125345f395f51905f526001600160a01b03831661170f57604051630b61174360e31b81526001600160a01b038416600482015260240161067a565b6001600160a01b038481165f818152600584016020908152604080832094881680845294825291829020805460ff191687151590811790915591519182527f17307eab39ab6107e8899845ad3d59bd9653f200f220920489ca2b5937696c31910160405180910390a350505050565b6001600160a01b0383163b1561189f57604051630a85bd0160e11b81526001600160a01b0384169063150b7a02906117c09088908890879087906004016124c6565b6020604051808303815f875af19250505080156117fa575060408051601f3d908101601f191682019092526117f791810190612502565b60015b611861573d808015611827576040519150601f19603f3d011682016040523d82523d5f602084013e61182c565b606091505b5080515f0361185957604051633250574960e11b81526001600160a01b038516600482015260240161067a565b805160208201fd5b6001600160e01b03198116630a85bd0160e11b1461189d57604051633250574960e11b81526001600160a01b038516600482015260240161067a565b505b5050505050565b5f808360048111156118ba576118ba6120da565b1480156118d8575060018260048111156118d6576118d66120da565b145b156118e55750600161058b565b60018360048111156118f9576118f96120da565b14801561191757506002826004811115611915576119156120da565b145b156119245750600161058b565b6002836004811115611938576119386120da565b14801561195657506003826004811115611954576119546120da565b145b156119635750600161058b565b6003836004811115611977576119776120da565b14801561199557506004826004811115611993576119936120da565b145b156119a25750600161058b565b505f92915050565b5f9081527f80bb2b638cc20bc4d0a60d66940f3ab4a00c1d7b313497ca82fb0b4ab007930260205260409020546001600160a01b031690565b5f5160206125345f395f51905f528180611a0557506001600160a01b03831615155b15611ac6575f611a148561121e565b90506001600160a01b03841615801590611a405750836001600160a01b0316816001600160a01b031614155b8015611a535750611a518185610fab565b155b15611a7c5760405163a9fbf51f60e01b81526001600160a01b038516600482015260240161067a565b8215611ac45784866001600160a01b0316826001600160a01b03167f8c5be1e5ebec7d5bd14f71427d1e84f3dd0314c0f7b2291e5b200ac8c7c3b92560405160405180910390a45b505b5f93845260040160205250506040902080546001600160a01b0319166001600160a01b0392909216919091179055565b611b01838383611c0c565b6106fd576001600160a01b038316611b2f57604051637e27328960e01b81526004810182905260240161067a565b60405163177e802f60e01b81526001600160a01b03831660048201526024810182905260440161067a565b611b62611c71565b610c7257604051631afcd79f60e31b815260040160405180910390fd5b611b87611b5a565b5f5160206125345f395f51905f5280611ba0848261230e565b50600181016106dd838261230e565b610fff611b5a565b611bc082611c8a565b6040516001600160a01b038316907fbc7cd75a20ee27fd9adebab32041f755214dbc6bffa90cc0225b39da2e5c2d3b905f90a2805115611c04576106fd8282611ced565b610651611d5f565b5f6001600160a01b03831615801590611c695750826001600160a01b0316846001600160a01b03161480611c455750611c458484610fab565b80611c695750826001600160a01b0316611c5e83611255565b6001600160a01b0316145b949350505050565b5f611c7a61139f565b54600160401b900460ff16919050565b806001600160a01b03163b5f03611cbf57604051634c9c8ce360e01b81526001600160a01b038216600482015260240161067a565b5f5160206125545f395f51905f5280546001600160a01b0319166001600160a01b0392909216919091179055565b60605f5f846001600160a01b031684604051611d09919061251d565b5f60405180830381855af49150503d805f8114611d41576040519150601f19603f3d011682016040523d82523d5f602084013e611d46565b606091505b5091509150611d56858383611d7e565b95945050505050565b3415610c725760405163b398979f60e01b815260040160405180910390fd5b606082611d9357611d8e82611dda565b611398565b8151158015611daa57506001600160a01b0384163b155b15611dd357604051639996b31560e01b81526001600160a01b038516600482015260240161067a565b5080611398565b805115611de957805160208201fd5b60405163d6bda27560e01b815260040160405180910390fd5b6001600160e01b031981168114611031575f5ffd5b5f60208284031215611e27575f5ffd5b813561139881611e02565b5f81518084528060208401602086015e5f602082860101526020601f19601f83011685010191505092915050565b602081525f6113986020830184611e32565b5f60208284031215611e82575f5ffd5b5035919050565b80356001600160a01b0381168114611e9f575f5ffd5b919050565b5f5f60408385031215611eb5575f5ffd5b611ebe83611e89565b946020939093013593505050565b5f5f5f60608486031215611ede575f5ffd5b611ee784611e89565b9250611ef560208501611e89565b929592945050506040919091013590565b5f5f60408385031215611f17575f5ffd5b611f2083611e89565b9150611f2e60208401611e89565b90509250929050565b634e487b7160e01b5f52604160045260245ffd5b5f5f67ffffffffffffffff841115611f6557611f65611f37565b50604051601f19601f85018116603f0116810181811067ffffffffffffffff82111715611f9457611f94611f37565b604052838152905080828401851015611fab575f5ffd5b838360208301375f60208583010152509392505050565b5f82601f830112611fd1575f5ffd5b61139883833560208501611f4b565b5f5f60408385031215611ff1575f5ffd5b611ffa83611e89565b9150602083013567ffffffffffffffff811115612015575f5ffd5b61202185828601611fc2565b9150509250929050565b5f5f6040838503121561203c575f5ffd5b61204583611e89565b9150602083013567ffffffffffffffff811115612060575f5ffd5b8301601f81018513612070575f5ffd5b61202185823560208401611f4b565b5f6020828403121561208f575f5ffd5b61139882611e89565b8015158114611031575f5ffd5b5f5f604083850312156120b6575f5ffd5b6120bf83611e89565b915060208301356120cf81612098565b809150509250929050565b634e487b7160e01b5f52602160045260245ffd5b6005811061210a57634e487b7160e01b5f52602160045260245ffd5b9052565b8681526001600160a01b0386811660208301528516604082015261213560608201856120ee565b82608082015260c060a08201525f61215060c0830184611e32565b98975050505050505050565b5f5f5f5f6080858703121561216f575f5ffd5b61217885611e89565b935061218660208601611e89565b925060408501359150606085013567ffffffffffffffff8111156121a8575f5ffd5b6121b487828801611fc2565b91505092959194509250565b602081528151602082015260018060a01b03602083015116604082015260018060a01b0360408301511660608201525f606083015161220260808401826120ee565b50608083015160a083015260a083015160c080840152611c6960e0840182611e32565b5f5f60408385031215612236575f5ffd5b823591506020830135600581106120cf575f5ffd5b600181811c9082168061225f57607f821691505b60208210810361227d57634e487b7160e01b5f52602260045260245ffd5b50919050565b5f60208284031215612293575f5ffd5b815161139881612098565b634e487b7160e01b5f52601160045260245ffd5b5f600182016122c3576122c361229e565b5060010190565b601f8211156106fd57805f5260205f20601f840160051c810160208510156122ef5750805b601f840160051c820191505b8181101561189f575f81556001016122fb565b815167ffffffffffffffff81111561232857612328611f37565b61233c81612336845461224b565b846122ca565b6020601f82116001811461236e575f83156123575750848201515b5f19600385901b1c1916600184901b17845561189f565b5f84815260208120601f198516915b8281101561239d578785015182556020948501946001909201910161237d565b50848210156123ba57868401515f19600387901b60f8161c191681555b50505050600190811b01905550565b8181038181111561058b5761058b61229e565b60208082526014908201527313dc99195c88191bd95cc81b9bdd08195e1a5cdd60621b604082015260600190565b66697066733a2f2f60c81b81525f5f83546124248161224b565b60018216801561243b576001811461245657612489565b60ff1983166007870152600782151583028701019350612489565b865f5260205f205f5b8381101561247e5781548882016007015260019091019060200161245f565b505060078287010193505b509195945050505050565b604081016124a282856120ee565b8260208301529392505050565b5f602082840312156124bf575f5ffd5b5051919050565b6001600160a01b03858116825284166020820152604081018390526080606082018190525f906124f890830184611e32565b9695505050505050565b5f60208284031215612512575f5ffd5b815161139881611e02565b5f82518060208501845e5f92019182525091905056fe80bb2b638cc20bc4d0a60d66940f3ab4a00c1d7b313497ca82fb0b4ab0079300360894a13ba1a3210667c828492db98dca3e2076cc3735a920a3ca505d382bbca2646970667358221220185e6606a2d8c46cf983522a29ccefb00b7ca6845a0a768ed8f112973534a82864736f6c634300081c0033",
  "linkReferences": {},
  "deployedLinkReferences": {},
  "immutableReferences": {
    "482": [
      {
        "length": 32,
        "start": 5117
      },
      {
        "length": 32,
        "start": 5158
      },
      {
        "length": 32,
        "start": 5477
      }
    ]
  },
  "inputSourceName": "project/contracts/LogisticsOrder.sol",
  "buildInfoId": "solc-0_8_28-a84e0c3c7d79c62660564a41a58c1b524e8c6398"
}