{
  "_format": "hh3-artifact-1",
  "contractName": "LogisticsOrderFactory",
  "sourceName": "contracts/LogisticsOrderFactory.sol",
  "abi": [
    {
      "inputs": [
        {
          "internalType": "address",
          "name": "_implementation",
          "type": "address"
        },
        {
          "internalType": "address",
          "name": "_manufacturerRegistry",
          "type": "address"
        }
      ],
      "stateMutability": "nonpayable",
      "type": "constructor"
    },
    {
      "anonymous": false,
      "inputs": [
        {
          "indexed": true,
          "internalType": "address",
          "name": "manufacturer",
          "type": "address"
        },
        {
          "indexed": true,
          "internalType": "address",
          "name": "proxyAddress",
          "type": "address"
        },
        {
          "indexed": false,
          "internalType": "uint256",
          "name": "timestamp",
          "type": "uint256"
        }
      ],
      "name": "ProxyDeployed",
      "type": "event"
    },
    {
      "inputs": [],
      "name": "createLogisticsOrder",
      "outputs": [
        {
          "internalType": "address",
          "name": "proxyAddress",
          "type": "address"
        }
      ],
      "stateMutability": "nonpayable",
      "type": "function"
    },
    {
      "inputs": [],
      "name": "getImplementation",
      "outputs": [
        {
          "internalType": "address",
          "name": "",
          "type": "address"
        }
      ],
      "stateMutability": "view",
      "type": "function"
    },
    {
      "inputs": [
        {
          "internalType": "address",
          "name": "manufacturer",
          "type": "address"
        }
      ],
      "name": "getManufacturerContract",
      "outputs": [
        {
          "internalType": "address",
          "name": "",
          "type": "address"
        }
      ],
      "stateMutability": "view",
      "type": "function"
    },
    {
      "inputs": [],
      "name": "getRegistry",
      "outputs": [
        {
          "internalType": "address",
          "name": "",
          "type": "address"
        }
      ],
      "stateMutability": "view",
      "type": "function"
    },
    {
      "inputs": [
        {
          "internalType": "address",
          "name": "manufacturer",
          "type": "address"
        }
      ],
      "name": "hasContract",
      "outputs": [
        {
          "internalType": "bool",
          "name": "",
          "type": "bool"
        }
      ],
      "stateMutability": "view",
      "type": "function"
    },
    {
      "inputs": [],
      "name": "implementation",
      "outputs": [
        {
          "internalType": "address",
          "name": "",
          "type": "address"
        }
      ],
      "stateMutability": "view",
      "type": "function"
    },
    {
      "inputs": [
        {
          "internalType": "address",
          "name": "",
          "type": "address"
        }
      ],
      "name": "manufacturerContracts",
      "outputs": [
        {
          "internalType": "address",
          "name": "",
          "type": "address"
        }
      ],
      "stateMutability": "view",
      "type": "function"
    },
    {
      "inputs": [],
      "name": "manufacturerRegistry",
      "outputs": [
        {
          "internalType": "contract ManufacturerRegistry",
          "name": "",
          "type": "address"
        }
      ],
      "stateMutability": "view",
      "type": "function"
    }
  ],
  "bytecode": "0x60c060405234801561000f575f5ffd5b50604051610a96380380610a9683398101604081905261002e91610111565b6001600160a01b0382166100895760405162461bcd60e51b815260206004820152601e60248201527f496e76616c696420696d706c656d656e746174696f6e2061646472657373000060448201526064015b60405180910390fd5b6001600160a01b0381166100df5760405162461bcd60e51b815260206004820152601860248201527f496e76616c6964207265676973747279206164647265737300000000000000006044820152606401610080565b6001600160a01b039182166080521660a052610142565b80516001600160a01b038116811461010c575f5ffd5b919050565b5f5f60408385031215610122575f5ffd5b61012b836100f6565b9150610139602084016100f6565b90509250929050565b60805160a0516109116101855f395f8181608e0152818161010c015281816101ea015261034401525f8181610135015281816101ac01526103a601526109115ff3fe608060405234801561000f575f5ffd5b5060043610610085575f3560e01c8063697c0f3711610058578063697c0f3714610157578063a897af6f14610182578063aaf10f42146101aa578063ac8cfbad146101d0575f5ffd5b80630fd60612146100895780631a9a6c95146100cd5780635ab1bd531461010a5780635c60da1b14610130575b5f5ffd5b6100b07f000000000000000000000000000000000000000000000000000000000000000081565b6040516001600160a01b0390911681526020015b60405180910390f35b6100fa6100db36600461046c565b6001600160a01b039081165f9081526020819052604090205416151590565b60405190151581526020016100c4565b7f00000000000000000000000000000000000000000000000000000000000000006100b0565b6100b07f000000000000000000000000000000000000000000000000000000000000000081565b6100b061016536600461046c565b6001600160a01b039081165f908152602081905260409020541690565b6100b061019036600461046c565b5f602081905290815260409020546001600160a01b031681565b7f00000000000000000000000000000000000000000000000000000000000000006100b0565b6100b060405163c3c5a54760e01b81523360048201525f907f00000000000000000000000000000000000000000000000000000000000000006001600160a01b03169063c3c5a54790602401602060405180830381865afa158015610237573d5f5f3e3d5ffd5b505050506040513d601f19601f8201168201806040525081019061025b9190610499565b6102bc5760405162461bcd60e51b815260206004820152602760248201527f43616c6c6572206973206e6f7420612072656769737465726564206d616e756660448201526630b1ba3ab932b960c91b60648201526084015b60405180910390fd5b335f908152602081905260409020546001600160a01b0316156103375760405162461bcd60e51b815260206004820152602d60248201527f4d616e75666163747572657220616c7265616479206861732061206c6f67697360448201526c1d1a58dcc818dbdb9d1c9858dd609a1b60648201526084016102b3565b6040516001600160a01b037f00000000000000000000000000000000000000000000000000000000000000001660248201523360448201525f9060640160408051601f198184030181529181526020820180516001600160e01b031663485cc95560e01b179052519091505f907f00000000000000000000000000000000000000000000000000000000000000009083906103d19061045f565b6103dc9291906104b8565b604051809103905ff0801580156103f5573d5f5f3e3d5ffd5b50335f818152602081815260409182902080546001600160a01b0319166001600160a01b038616908117909155915142815293965086945090927fd4f6938f40a47799ca4e14344820b842da38ca1d5293e90c2bb3cd0b23d86e3f910160405180910390a3505090565b6103df806104fd83390190565b5f6020828403121561047c575f5ffd5b81356001600160a01b0381168114610492575f5ffd5b9392505050565b5f602082840312156104a9575f5ffd5b81518015158114610492575f5ffd5b60018060a01b0383168152604060208201525f82518060408401528060208501606085015e5f606082850101526060601f19601f830116840101915050939250505056fe608060405234801561000f575f5ffd5b506040516103df3803806103df83398101604081905261002e9161024b565b818161003a8282610043565b50505050610330565b61004c826100a1565b6040516001600160a01b038316907fbc7cd75a20ee27fd9adebab32041f755214dbc6bffa90cc0225b39da2e5c2d3b905f90a280511561009557610090828261011c565b505050565b61009d61018f565b5050565b806001600160a01b03163b5f036100db57604051634c9c8ce360e01b81526001600160a01b03821660048201526024015b60405180910390fd5b7f360894a13ba1a3210667c828492db98dca3e2076cc3735a920a3ca505d382bbc80546001600160a01b0319166001600160a01b0392909216919091179055565b60605f5f846001600160a01b031684604051610138919061031a565b5f60405180830381855af49150503d805f8114610170576040519150601f19603f3d011682016040523d82523d5f602084013e610175565b606091505b5090925090506101868583836101b0565b95945050505050565b34156101ae5760405163b398979f60e01b815260040160405180910390fd5b565b6060826101c5576101c08261020f565b610208565b81511580156101dc57506001600160a01b0384163b155b1561020557604051639996b31560e01b81526001600160a01b03851660048201526024016100d2565b50805b9392505050565b80511561021e57805160208201fd5b60405163d6bda27560e01b815260040160405180910390fd5b634e487b7160e01b5f52604160045260245ffd5b5f5f6040838503121561025c575f5ffd5b82516001600160a01b0381168114610272575f5ffd5b60208401519092506001600160401b0381111561028d575f5ffd5b8301601f8101851361029d575f5ffd5b80516001600160401b038111156102b6576102b6610237565b604051601f8201601f19908116603f011681016001600160401b03811182821017156102e4576102e4610237565b6040528181528282016020018710156102fb575f5ffd5b8160208401602083015e5f602083830101528093505050509250929050565b5f82518060208501845e5f920191825250919050565b60a38061033c5f395ff3fe6080604052600a600c565b005b60186014601a565b6050565b565b5f604b7f360894a13ba1a3210667c828492db98dca3e2076cc3735a920a3ca505d382bbc546001600160a01b031690565b905090565b365f5f375f5f365f845af43d5f5f3e8080156069573d5ff35b3d5ffdfea264697066735822122022bed319833c041fcfb96073733f6ca47effa1ab12a803bf656de17f2c38ada764736f6c634300081c0033a26469706673582212208d02c438ae796380d783725b5d07e5fac6a86819ef2de4d7966b32db9aa893e564736f6c634300081c0033",
  "linkReferences": {},
  "deployedLinkReferences": {},
  "immutableReferences": {
    "1002": [
      {
        "length": 32,
        "start": 309
      },
      {
        "length": 32,
        "start": 428
      },
      {
        "length": 32,
        "start": 934
      }
    ],
    "1005": [
      {
        "length": 32,
        "start": 142
      },
      {
        "length": 32,
        "start": 268
      },
      {
        "length": 32,
        "start": 490
      },
      {
        "length": 32,
        "start": 836
      }
    ]
  },
  "inputSourceName": "project/contracts/LogisticsOrderFactory.sol",
  "buildInfoId": "solc-0_8_28-7cbcea5e7b552af681b171f53ad454fd2dcbc553"
}