{
  "_format": "hh3-artifact-1",
  "contractName": "ManufacturerRegistry",
  "sourceName": "contracts/ManufacturerRegistry.sol",
  "abi": [
    {
      "inputs": [],
      "stateMutability": "nonpayable",
      "type": "constructor"
    },
    {
      "inputs": [
        {
          "internalType": "address",
          "name": "owner",
          "type": "address"
        }
      ],
      "name": "OwnableInvalidOwner",
      "type": "error"
    },
    {
      "inputs": [
        {
          "internalType": "address",
          "name": "account",
          "type": "address"
        }
      ],
      "name": "OwnableUnauthorizedAccount",
      "type": "error"
    },
    {
      "anonymous": false,
      "inputs": [
        {
          "indexed": true,
          "internalType": "address",
          "name": "addr",
          "type": "address"
        }
      ],
      "name": "ManufacturerActivated",
      "type": "event"
    },
    {
      "anonymous": false,
      "inputs": [
        {
          "indexed": true,
          "internalType": "address",
          "name": "addr",
          "type": "address"
        }
      ],
      "name": "ManufacturerDeactivated",
      "type": "event"
    },
    {
      "anonymous": false,
      "inputs": [
        {
          "indexed": true,
          "internalType": "address",
          "name": "addr",
          "type": "address"
        },
        {
          "indexed": false,
          "internalType": "string",
          "name": "name",
          "type": "string"
        }
      ],
      "name": "ManufacturerRegistered",
      "type": "event"
    },
    {
      "anonymous": false,
      "inputs": [
        {
          "indexed": true,
          "internalType": "address",
          "name": "previousOwner",
          "type": "address"
        },
        {
          "indexed": true,
          "internalType": "address",
          "name": "newOwner",
          "type": "address"
        }
      ],
      "name": "OwnershipTransferred",
      "type": "event"
    },
    {
      "inputs": [
        {
          "internalType": "address",
          "name": "addr",
          "type": "address"
        }
      ],
      "name": "activateManufacturer",
      "outputs": [],
      "stateMutability": "nonpayable",
      "type": "function"
    },
    {
      "inputs": [
        {
          "internalType": "address",
          "name": "addr",
          "type": "address"
        }
      ],
      "name": "deactivateManufacturer",
      "outputs": [],
      "stateMutability": "nonpayable",
      "type": "function"
    },
    {
      "inputs": [
        {
          "internalType": "address",
          "name": "addr",
          "type": "address"
        }
      ],
      "name": "getManufacturer",
      "outputs": [
        {
          "components": [
            {
              "internalType": "address",
              "name": "addr",
              "type": "address"
            },
            {
              "internalType": "string",
              "name": "name",
              "type": "string"
            },
            {
              "internalType": "bool",
              "name": "isActive",
              "type": "bool"
            }
          ],
          "internalType": "struct ManufacturerRegistry.Manufacturer",
          "name": "",
          "type": "tuple"
        }
      ],
      "stateMutability": "view",
      "type": "function"
    },
    {
      "inputs": [
        {
          "internalType": "address",
          "name": "addr",
          "type": "address"
        }
      ],
      "name": "isRegistered",
      "outputs": [
        {
          "internalType": "bool",
          "name": "",
          "type": "bool"
        }
      ],
      "stateMutability": "view",
      "type": "function"
    },
    {
      "inputs": [
        {
          "internalType": "address",
          "name": "",
          "type": "address"
        }
      ],
      "name": "manufacturers",
      "outputs": [
        {
          "internalType": "address",
          "name": "addr",
          "type": "address"
        },
        {
          "internalType": "string",
          "name": "name",
          "type": "string"
        },
        {
          "internalType": "bool",
          "name": "isActive",
          "type": "bool"
        }
      ],
      "stateMutability": "view",
      "type": "function"
    },
    {
      "inputs": [],
      "name": "owner",
      "outputs": [
        {
          "internalType": "address",
          "name": "",
          "type": "address"
        }
      ],
      "stateMutability": "view",
      "type": "function"
    },
    {
      "inputs": [
        {
          "internalType": "address",
          "name": "addr",
          "type": "address"
        },
        {
          "internalType": "string",
          "name": "name",
          "type": "string"
        }
      ],
      "name": "registerManufacturer",
      "outputs": [],
      "stateMutability": "nonpayable",
      "type": "function"
    },
    {
      "inputs": [],
      "name": "renounceOwnership",
      "outputs": [],
      "stateMutability": "nonpayable",
      "type": "function"
    },
    {
      "inputs": [
        {
          "internalType": "address",
          "name": "newOwner",
          "type": "address"
        }
      ],
      "name": "transferOwnership",
      "outputs": [],
      "stateMutability": "nonpayable",
      "type": "function"
    }
  ],
  "bytecode": "0x6080604052348015600e575f5ffd5b503380603357604051631e4fbdf760e01b81525f600482015260240160405180910390fd5b603a81603f565b50608e565b5f80546001600160a01b038381166001600160a01b0319831681178455604051919092169283917f8be0079c531659141344cd1fd0a4f28419497f9722a3daafe3b4186f6b6457e09190a35050565b610b2c8061009b5f395ff3fe608060405234801561000f575f5ffd5b5060043610610090575f3560e01c80638da5cb5b116100635780638da5cb5b146100fc5780639e4e663414610116578063c3c5a54714610129578063cefb25111461014c578063f2fde38b1461015f575f5ffd5b8063191bcef61461009457806364e6f8b5146100bd5780636b5eb09c146100d2578063715018a6146100f4575b5f5ffd5b6100a76100a2366004610805565b610172565b6040516100b49190610853565b60405180910390f35b6100d06100cb366004610805565b610277565b005b6100e56100e0366004610805565b61039f565b6040516100b493929190610898565b6100d0610455565b5f546040516001600160a01b0390911681526020016100b4565b6100d06101243660046108e1565b610468565b61013c610137366004610805565b6105be565b60405190151581526020016100b4565b6100d061015a366004610805565b610608565b6100d061016d366004610805565b610732565b61019f60405180606001604052805f6001600160a01b03168152602001606081526020015f151581525090565b6001600160a01b038083165f90815260016020818152604092839020835160608101909452805490941683529083018054929392918401916101e0906109a5565b80601f016020809104026020016040519081016040528092919081815260200182805461020c906109a5565b80156102575780601f1061022e57610100808354040283529160200191610257565b820191905f5260205f20905b81548152906001019060200180831161023a57829003601f168201915b50505091835250506002919091015460ff16151560209091015292915050565b61027f61076f565b6001600160a01b038181165f90815260016020526040902054166102ea5760405162461bcd60e51b815260206004820152601b60248201527f4d616e756661637475726572206e6f742072656769737465726564000000000060448201526064015b60405180910390fd5b6001600160a01b0381165f9081526001602052604090206002015460ff166103545760405162461bcd60e51b815260206004820152601d60248201527f4d616e75666163747572657220616c726561647920696e61637469766500000060448201526064016102e1565b6001600160a01b0381165f81815260016020526040808220600201805460ff19169055517f812ff02a3af3b9937bddf988a9084c403bcf39021cbb415bd250e28836922a669190a250565b600160208190525f9182526040909120805491810180546001600160a01b03909316926103cb906109a5565b80601f01602080910402602001604051908101604052809291908181526020018280546103f7906109a5565b80156104425780601f1061041957610100808354040283529160200191610442565b820191905f5260205f20905b81548152906001019060200180831161042557829003601f168201915b5050506002909301549192505060ff1683565b61045d61076f565b6104665f61079b565b565b61047061076f565b6001600160a01b0382166104b85760405162461bcd60e51b815260206004820152600f60248201526e496e76616c6964206164647265737360881b60448201526064016102e1565b5f8151116104ff5760405162461bcd60e51b81526020600482015260146024820152734e616d652063616e6e6f7420626520656d70747960601b60448201526064016102e1565b604080516060810182526001600160a01b03848116808352602080840186815260018587018190525f9384529182905294909120835181546001600160a01b03191693169290921782559251919290919082019061055d9082610a29565b50604091820151600291909101805460ff1916911515919091179055516001600160a01b038316907f3980e1c29ecf2bdfce4e2793ed6efcc338cb00238d58c95de9000480acc0caef906105b2908490610ae4565b60405180910390a25050565b6001600160a01b038181165f908152600160205260408120549091161580159061060257506001600160a01b0382165f9081526001602052604090206002015460ff165b92915050565b61061061076f565b6001600160a01b038181165f90815260016020526040902054166106765760405162461bcd60e51b815260206004820152601b60248201527f4d616e756661637475726572206e6f742072656769737465726564000000000060448201526064016102e1565b6001600160a01b0381165f9081526001602052604090206002015460ff16156106e15760405162461bcd60e51b815260206004820152601b60248201527f4d616e75666163747572657220616c726561647920616374697665000000000060448201526064016102e1565b6001600160a01b0381165f818152600160208190526040808320600201805460ff1916909217909155517f574d2ac102ebe0ab55babfa9c17ad2f647d5064a0d2d0a4fc27b399427bcf4329190a250565b61073a61076f565b6001600160a01b03811661076357604051631e4fbdf760e01b81525f60048201526024016102e1565b61076c8161079b565b50565b5f546001600160a01b031633146104665760405163118cdaa760e01b81523360048201526024016102e1565b5f80546001600160a01b038381166001600160a01b0319831681178455604051919092169283917f8be0079c531659141344cd1fd0a4f28419497f9722a3daafe3b4186f6b6457e09190a35050565b80356001600160a01b0381168114610800575f5ffd5b919050565b5f60208284031215610815575f5ffd5b61081e826107ea565b9392505050565b5f81518084528060208401602086015e5f602082860101526020601f19601f83011685010191505092915050565b602080825282516001600160a01b031682820152820151606060408301525f906108806080840182610825565b90506040840151151560608401528091505092915050565b6001600160a01b03841681526060602082018190525f906108bb90830185610825565b90508215156040830152949350505050565b634e487b7160e01b5f52604160045260245ffd5b5f5f604083850312156108f2575f5ffd5b6108fb836107ea565b9150602083013567ffffffffffffffff811115610916575f5ffd5b8301601f81018513610926575f5ffd5b803567ffffffffffffffff811115610940576109406108cd565b604051601f8201601f19908116603f0116810167ffffffffffffffff8111828210171561096f5761096f6108cd565b604052818152828201602001871015610986575f5ffd5b816020840160208301375f602083830101528093505050509250929050565b600181811c908216806109b957607f821691505b6020821081036109d757634e487b7160e01b5f52602260045260245ffd5b50919050565b601f821115610a2457805f5260205f20601f840160051c81016020851015610a025750805b601f840160051c820191505b81811015610a21575f8155600101610a0e565b50505b505050565b815167ffffffffffffffff811115610a4357610a436108cd565b610a5781610a5184546109a5565b846109dd565b6020601f821160018114610a89575f8315610a725750848201515b5f19600385901b1c1916600184901b178455610a21565b5f84815260208120601f198516915b82811015610ab85787850151825560209485019460019092019101610a98565b5084821015610ad557868401515f19600387901b60f8161c191681555b50505050600190811b01905550565b602081525f61081e602083018461082556fea2646970667358221220042007c9b4e15706fd2ec1c1a9f43bfb3a39cd0203e019395a7b2fd09904227964736f6c634300081c0033",
  "linkReferences": {},
  "deployedLinkReferences": {},
  "immutableReferences": {},
  "inputSourceName": "project/contracts/ManufacturerRegistry.sol",
  "buildInfoId": "solc-0_8_28-a84e0c3c7d79c62660564a41a58c1b524e8c6398"
}