{
  "_format": "hh3-artifact-1",
  "contractName": "MLModelRegistry",
  "sourceName": "contracts/MLModelRegistry.sol",
  "abi": [
    {
      "inputs": [],
      "stateMutability": "nonpayable",
      "type": "constructor"
    },
    {
      "anonymous": false,
      "inputs": [
        {
          "indexed": true,
          "internalType": "address",
          "name": "owner",
          "type": "address"
        },
        {
          "indexed": true,
          "internalType": "address",
          "name": "approved",
          "type": "address"
        },
        {
          "indexed": true,
          "internalType": "uint256",
          "name": "tokenId",
          "type": "uint256"
        }
      ],
      "name": "Approval",
      "type": "event"
    },
    {
      "anonymous": false,
      "inputs": [
        {
          "indexed": true,
          "internalType": "address",
          "name": "owner",
          "type": "address"
        },
        {
          "indexed": true,
          "internalType": "address",
          "name": "operator",
          "type": "address"
        },
        {
          "indexed": false,
          "internalType": "bool",
          "name": "approved",
          "type": "bool"
        }
      ],
      "name": "ApprovalForAll",
      "type": "event"
    },
    {
      "anonymous": false,
      "inputs": [
        {
          "indexed": true,
          "internalType": "uint256",
          "name": "modelId",
          "type": "uint256"
        },
        {
          "indexed": true,
          "internalType": "address",
          "name": "owner",
          "type": "address"
        },
        {
          "indexed": false,
          "internalType": "string",
          "name": "name",
          "type": "string"
        },
        {
          "indexed": false,
          "internalType": "uint256",
          "name": "parentModelId",
          "type": "uint256"
        }
      ],
      "name": "ModelRegistered",
      "type": "event"
    },
    {
      "anonymous": false,
      "inputs": [
        {
          "indexed": true,
          "internalType": "address",
          "name": "previousOwner",
          "type": "address"
        },
        {
          "indexed": true,
          "internalType": "address",
          "name": "newOwner",
          "type": "address"
        }
      ],
      "name": "OwnershipTransferred",
      "type": "event"
    },
    {
      "anonymous": false,
      "inputs": [
        {
          "indexed": true,
          "internalType": "uint256",
          "name": "runId",
          "type": "uint256"
        },
        {
          "indexed": true,
          "internalType": "uint256",
          "name": "inputModelId",
          "type": "uint256"
        },
        {
          "indexed": true,
          "internalType": "uint256",
          "name": "outputModelId",
          "type": "uint256"
        },
        {
          "indexed": false,
          "internalType": "address",
          "name": "trainer",
          "type": "address"
        }
      ],
      "name": "TrainingRunRegistered",
      "type": "event"
    },
    {
      "anonymous": false,
      "inputs": [
        {
          "indexed": true,
          "internalType": "address",
          "name": "from",
          "type": "address"
        },
        {
          "indexed": true,
          "internalType": "address",
          "name": "to",
          "type": "address"
        },
        {
          "indexed": true,
          "internalType": "uint256",
          "name": "tokenId",
          "type": "uint256"
        }
      ],
      "name": "Transfer",
      "type": "event"
    },
    {
      "inputs": [
        {
          "internalType": "address",
          "name": "to",
          "type": "address"
        },
        {
          "internalType": "uint256",
          "name": "tokenId",
          "type": "uint256"
        }
      ],
      "name": "approve",
      "outputs": [],
      "stateMutability": "nonpayable",
      "type": "function"
    },
    {
      "inputs": [
        {
          "internalType": "address",
          "name": "owner",
          "type": "address"
        }
      ],
      "name": "balanceOf",
      "outputs": [
        {
          "internalType": "uint256",
          "name": "",
          "type": "uint256"
        }
      ],
      "stateMutability": "view",
      "type": "function"
    },
    {
      "inputs": [
        {
          "internalType": "uint256",
          "name": "tokenId",
          "type": "uint256"
        }
      ],
      "name": "getApproved",
      "outputs": [
        {
          "internalType": "address",
          "name": "",
          "type": "address"
        }
      ],
      "stateMutability": "view",
      "type": "function"
    },
    {
      "inputs": [
        {
          "internalType": "uint256",
          "name": "modelId",
          "type": "uint256"
        }
      ],
      "name": "getModel",
      "outputs": [
        {
          "components": [
            {
              "internalType": "uint256",
              "name": "id",
              "type": "uint256"
            },
            {
              "internalType": "string",
              "name": "name",
              "type": "string"
            },
            {
              "internalType": "uint256",
              "name": "parentModelId",
              "type": "uint256"
            },
            {
              "internalType": "string",
              "name": "modelHash",
              "type": "string"
            },
            {
              "internalType": "string",
              "name": "metadata",
              "type": "string"
            },
            {
              "internalType": "uint256",
              "name": "createdAt",
              "type": "uint256"
            }
          ],
          "internalType": "struct MLModelRegistry.Model",
          "name": "",
          "type": "tuple"
        }
      ],
      "stateMutability": "view",
      "type": "function"
    },
    {
      "inputs": [
        {
          "internalType": "uint256",
          "name": "startId",
          "type": "uint256"
        },
        {
          "internalType": "uint256",
          "name": "count",
          "type": "uint256"
        }
      ],
      "name": "getModelBatch",
      "outputs": [
        {
          "components": [
            {
              "internalType": "uint256",
              "name": "id",
              "type": "uint256"
            },
            {
              "internalType": "string",
              "name": "name",
              "type": "string"
            },
            {
              "internalType": "uint256",
              "name": "parentModelId",
              "type": "uint256"
            },
            {
              "internalType": "string",
              "name": "modelHash",
              "type": "string"
            },
            {
              "internalType": "string",
              "name": "metadata",
              "type": "string"
            },
            {
              "internalType": "uint256",
              "name": "createdAt",
              "type": "uint256"
            }
          ],
          "internalType": "struct MLModelRegistry.Model[]",
          "name": "",
          "type": "tuple[]"
        }
      ],
      "stateMutability": "view",
      "type": "function"
    },
    {
      "inputs": [
        {
          "internalType": "uint256",
          "name": "modelId",
          "type": "uint256"
        }
      ],
      "name": "getModelLineage",
      "outputs": [
        {
          "internalType": "uint256[]",
          "name": "",
          "type": "uint256[]"
        }
      ],
      "stateMutability": "view",
      "type": "function"
    },
    {
      "inputs": [
        {
          "internalType": "uint256",
          "name": "startId",
          "type": "uint256"
        },
        {
          "internalType": "uint256",
          "name": "count",
          "type": "uint256"
        }
      ],
      "name": "getRunBatch",
      "outputs": [
        {
          "components": [
            {
              "internalType": "uint256",
              "name": "id",
              "type": "uint256"
            },
            {
              "internalType": "uint256",
              "name": "inputModelId",
              "type": "uint256"
            },
            {
              "internalType": "uint256",
              "name": "outputModelId",
              "type": "uint256"
            },
            {
              "internalType": "string",
              "name": "datasetUri",
              "type": "string"
            },
            {
              "internalType": "string",
              "name": "datasetHash",
              "type": "string"
            },
            {
              "internalType": "string",
              "name": "hyperparamsHash",
              "type": "string"
            },
            {
              "components": [
                {
                  "internalType": "uint256",
                  "name": "epochs",
                  "type": "uint256"
                },
                {
                  "internalType": "uint256",
                  "name": "finalLoss",
                  "type": "uint256"
                },
                {
                  "internalType": "uint256",
                  "name": "finalAccuracy",
                  "type": "uint256"
                },
                {
                  "internalType": "string",
                  "name": "custom",
                  "type": "string"
                }
              ],
              "internalType": "struct MLModelRegistry.Metrics",
              "name": "metrics",
              "type": "tuple"
            },
            {
              "internalType": "address",
              "name": "trainer",
              "type": "address"
            },
            {
              "internalType": "uint256",
              "name": "timestamp",
              "type": "uint256"
            }
          ],
          "internalType": "struct MLModelRegistry.TrainingRun[]",
          "name": "",
          "type": "tuple[]"
        }
      ],
      "stateMutability": "view",
      "type": "function"
    },
    {
      "inputs": [],
      "name": "getTotalModels",
      "outputs": [
        {
          "internalType": "uint256",
          "name": "",
          "type": "uint256"
        }
      ],
      "stateMutability": "view",
      "type": "function"
    },
    {
      "inputs": [],
      "name": "getTotalRuns",
      "outputs": [
        {
          "internalType": "uint256",
          "name": "",
          "type": "uint256"
        }
      ],
      "stateMutability": "view",
      "type": "function"
    },
    {
      "inputs": [
        {
          "internalType": "uint256",
          "name": "runId",
          "type": "uint256"
        }
      ],
      "name": "getTrainingRun",
      "outputs": [
        {
          "components": [
            {
              "internalType": "uint256",
              "name": "id",
              "type": "uint256"
            },
            {
              "internalType": "uint256",
              "name": "inputModelId",
              "type": "uint256"
            },
            {
              "internalType": "uint256",
              "name": "outputModelId",
              "type": "uint256"
            },
            {
              "internalType": "string",
              "name": "datasetUri",
              "type": "string"
            },
            {
              "internalType": "string",
              "name": "datasetHash",
              "type": "string"
            },
            {
              "internalType": "string",
              "name": "hyperparamsHash",
              "type": "string"
            },
            {
              "components": [
                {
                  "internalType": "uint256",
                  "name": "epochs",
                  "type": "uint256"
                },
                {
                  "internalType": "uint256",
                  "name": "finalLoss",
                  "type": "uint256"
                },
                {
                  "internalType": "uint256",
                  "name": "finalAccuracy",
                  "type": "uint256"
                },
                {
                  "internalType": "string",
                  "name": "custom",
                  "type": "string"
                }
              ],
              "internalType": "struct MLModelRegistry.Metrics",
              "name": "metrics",
              "type": "tuple"
            },
            {
              "internalType": "address",
              "name": "trainer",
              "type": "address"
            },
            {
              "internalType": "uint256",
              "name": "timestamp",
              "type": "uint256"
            }
          ],
          "internalType": "struct MLModelRegistry.TrainingRun",
          "name": "",
          "type": "tuple"
        }
      ],
      "stateMutability": "view",
      "type": "function"
    },
    {
      "inputs": [
        {
          "internalType": "uint256",
          "name": "modelId",
          "type": "uint256"
        }
      ],
      "name": "getTrainingRunsByInput",
      "outputs": [
        {
          "internalType": "uint256[]",
          "name": "",
          "type": "uint256[]"
        }
      ],
      "stateMutability": "view",
      "type": "function"
    },
    {
      "inputs": [
        {
          "internalType": "address",
          "name": "owner",
          "type": "address"
        },
        {
          "internalType": "address",
          "name": "operator",
          "type": "address"
        }
      ],
      "name": "isApprovedForAll",
      "outputs": [
        {
          "internalType": "bool",
          "name": "",
          "type": "bool"
        }
      ],
      "stateMutability": "view",
      "type": "function"
    },
    {
      "inputs": [],
      "name": "name",
      "outputs": [
        {
          "internalType": "string",
          "name": "",
          "type": "string"
        }
      ],
      "stateMutability": "view",
      "type": "function"
    },
    {
      "inputs": [],
      "name": "owner",
      "outputs": [
        {
          "internalType": "address",
          "name": "",
          "type": "address"
        }
      ],
      "stateMutability": "view",
      "type": "function"
    },
    {
      "inputs": [
        {
          "internalType": "uint256",
          "name": "tokenId",
          "type": "uint256"
        }
      ],
      "name": "ownerOf",
      "outputs": [
        {
          "internalType": "address",
          "name": "",
          "type": "address"
        }
      ],
      "stateMutability": "view",
      "type": "function"
    },
    {
      "inputs": [
        {
          "internalType": "string",
          "name": "name",
          "type": "string"
        },
        {
          "internalType": "string",
          "name": "modelHash",
          "type": "string"
        },
        {
          "internalType": "string",
          "name": "metadata",
          "type": "string"
        }
      ],
      "name": "registerBaseModel",
      "outputs": [
        {
          "internalType": "uint256",
          "name": "",
          "type": "uint256"
        }
      ],
      "stateMutability": "nonpayable",
      "type": "function"
    },
    {
      "inputs": [
        {
          "components": [
            {
              "internalType": "uint256",
              "name": "inputModelId",
              "type": "uint256"
            },
            {
              "internalType": "string",
              "name": "outputName",
              "type": "string"
            },
            {
              "internalType": "string",
              "name": "outputHash",
              "type": "string"
            },
            {
              "internalType": "string",
              "name": "outputMetadata",
              "type": "string"
            },
            {
              "internalType": "string",
              "name": "datasetUri",
              "type": "string"
            },
            {
              "internalType": "string",
              "name": "datasetHash",
              "type": "string"
            },
            {
              "internalType": "string",
              "name": "hyperparamsHash",
              "type": "string"
            }
          ],
          "internalType": "struct MLModelRegistry.TrainingRunInput",
          "name": "input",
          "type": "tuple"
        },
        {
          "components": [
            {
              "internalType": "uint256",
              "name": "epochs",
              "type": "uint256"
            },
            {
              "internalType": "uint256",
              "name": "finalLoss",
              "type": "uint256"
            },
            {
              "internalType": "uint256",
              "name": "finalAccuracy",
              "type": "uint256"
            },
            {
              "internalType": "string",
              "name": "custom",
              "type": "string"
            }
          ],
          "internalType": "struct MLModelRegistry.Metrics",
          "name": "metrics",
          "type": "tuple"
        }
      ],
      "name": "registerTrainingRun",
      "outputs": [
        {
          "internalType": "uint256",
          "name": "runId",
          "type": "uint256"
        },
        {
          "internalType": "uint256",
          "name": "outputModelId",
          "type": "uint256"
        }
      ],
      "stateMutability": "nonpayable",
      "type": "function"
    },
    {
      "inputs": [],
      "name": "renounceOwnership",
      "outputs": [],
      "stateMutability": "nonpayable",
      "type": "function"
    },
    {
      "inputs": [
        {
          "internalType": "address",
          "name": "from",
          "type": "address"
        },
        {
          "internalType": "address",
          "name": "to",
          "type": "address"
        },
        {
          "internalType": "uint256",
          "name": "tokenId",
          "type": "uint256"
        }
      ],
      "name": "safeTransferFrom",
      "outputs": [],
      "stateMutability": "nonpayable",
      "type": "function"
    },
    {
      "inputs": [
        {
          "internalType": "address",
          "name": "from",
          "type": "address"
        },
        {
          "internalType": "address",
          "name": "to",
          "type": "address"
        },
        {
          "internalType": "uint256",
          "name": "tokenId",
          "type": "uint256"
        },
        {
          "internalType": "bytes",
          "name": "data",
          "type": "bytes"
        }
      ],
      "name": "safeTransferFrom",
      "outputs": [],
      "stateMutability": "nonpayable",
      "type": "function"
    },
    {
      "inputs": [
        {
          "internalType": "address",
          "name": "operator",
          "type": "address"
        },
        {
          "internalType": "bool",
          "name": "approved",
          "type": "bool"
        }
      ],
      "name": "setApprovalForAll",
      "outputs": [],
      "stateMutability": "nonpayable",
      "type": "function"
    },
    {
      "inputs": [
        {
          "internalType": "bytes4",
          "name": "interfaceId",
          "type": "bytes4"
        }
      ],
      "name": "supportsInterface",
      "outputs": [
        {
          "internalType": "bool",
          "name": "",
          "type": "bool"
        }
      ],
      "stateMutability": "view",
      "type": "function"
    },
    {
      "inputs": [],
      "name": "symbol",
      "outputs": [
        {
          "internalType": "string",
          "name": "",
          "type": "string"
        }
      ],
      "stateMutability": "view",
      "type": "function"
    },
    {
      "inputs": [
        {
          "internalType": "uint256",
          "name": "tokenId",
          "type": "uint256"
        }
      ],
      "name": "tokenURI",
      "outputs": [
        {
          "internalType": "string",
          "name": "",
          "type": "string"
        }
      ],
      "stateMutability": "view",
      "type": "function"
    },
    {
      "inputs": [
        {
          "internalType": "address",
          "name": "from",
          "type": "address"
        },
        {
          "internalType": "address",
          "name": "to",
          "type": "address"
        },
        {
          "internalType": "uint256",
          "name": "tokenId",
          "type": "uint256"
        }
      ],
      "name": "transferFrom",
      "outputs": [],
      "stateMutability": "nonpayable",
      "type": "function"
    },
    {
      "inputs": [
        {
          "internalType": "address",
          "name": "newOwner",
          "type": "address"
        }
      ],
      "name": "transferOwnership",
      "outputs": [],
      "stateMutability": "nonpayable",
      "type": "function"
    }
  ],
  "bytecode": "0x60806040523480156200001157600080fd5b506040518060400160405280600f81526020017f4d4c4d6f64656c526567697374727900000000000000000000000000000000008152506040518060400160405280600781526020017f4d4c4d4f44454c0000000000000000000000000000000000000000000000000081525081600090816200008f919062000422565b508060019081620000a1919062000422565b505050620000c4620000b8620000da60201b60201c565b620000e260201b60201c565b6001600a819055506001600b8190555062000509565b600033905090565b6000600660009054906101000a900473ffffffffffffffffffffffffffffffffffffffff16905081600660006101000a81548173ffffffffffffffffffffffffffffffffffffffff021916908373ffffffffffffffffffffffffffffffffffffffff1602179055508173ffffffffffffffffffffffffffffffffffffffff168173ffffffffffffffffffffffffffffffffffffffff167f8be0079c531659141344cd1fd0a4f28419497f9722a3daafe3b4186f6b6457e060405160405180910390a35050565b600081519050919050565b7f4e487b7100000000000000000000000000000000000000000000000000000000600052604160045260246000fd5b7f4e487b7100000000000000000000000000000000000000000000000000000000600052602260045260246000fd5b600060028204905060018216806200022a57607f821691505b60208210810362000240576200023f620001e2565b5b50919050565b60008190508160005260206000209050919050565b60006020601f8301049050919050565b600082821b905092915050565b600060088302620002aa7fffffffffffffffffffffffffffffffffffffffffffffffffffffffffffffffff826200026b565b620002b686836200026b565b95508019841693508086168417925050509392505050565b6000819050919050565b6000819050919050565b600062000303620002fd620002f784620002ce565b620002d8565b620002ce565b9050919050565b6000819050919050565b6200031f83620002e2565b620003376200032e826200030a565b84845462000278565b825550505050565b600090565b6200034e6200033f565b6200035b81848462000314565b505050565b5b8181101562000383576200037760008262000344565b60018101905062000361565b5050565b601f821115620003d2576200039c8162000246565b620003a7846200025b565b81016020851015620003b7578190505b620003cf620003c6856200025b565b83018262000360565b50505b505050565b600082821c905092915050565b6000620003f760001984600802620003d7565b1980831691505092915050565b6000620004128383620003e4565b9150826002028217905092915050565b6200042d82620001a8565b67ffffffffffffffff811115620004495762000448620001b3565b5b62000455825462000211565b6200046282828562000387565b600060209050601f8311600181146200049a576000841562000485578287015190505b62000491858262000404565b86555062000501565b601f198416620004aa8662000246565b60005b82811015620004d457848901518255600182019150602085019450602081019050620004ad565b86831015620004f45784890151620004f0601f891682620003e4565b8355505b6001600288020188555050505b505050505050565b6155e880620005196000396000f3fe608060405234801561001057600080fd5b506004361061018e5760003560e01c8063715018a6116100de578063b1467a0611610097578063e05f149e11610071578063e05f149e146104f4578063e985e9c514610512578063f2fde38b14610542578063f508dde61461055e5761018e565b8063b1467a0614610478578063b88d4fde146104a8578063c87b56dd146104c45761018e565b8063715018a6146103b5578063791cd908146103bf5780638bfea49b146103f05780638da5cb5b1461042057806395d89b411461043e578063a22cb4651461045c5761018e565b80632527f4281161014b5780636352211e116101255780636352211e146102f55780636930dcb3146103255780636d3616941461035557806370a08231146103855761018e565b80632527f4281461027957806342842e0e146102a9578063585ecfdc146102c55761018e565b806301ffc9a71461019357806306fdde03146101c3578063081812fc146101e1578063095ea7b3146102115780631f9166011461022d57806323b872dd1461025d575b600080fd5b6101ad60048036038101906101a891906135a8565b61057c565b6040516101ba91906135f0565b60405180910390f35b6101cb61065e565b6040516101d8919061369b565b60405180910390f35b6101fb60048036038101906101f691906136f3565b6106f0565b6040516102089190613761565b60405180910390f35b61022b600480360381019061022691906137a8565b610736565b005b6102476004803603810190610242919061384d565b61084d565b6040516102549190613910565b60405180910390f35b6102776004803603810190610272919061392b565b610ad1565b005b610293600480360381019061028e919061397e565b610b31565b6040516102a09190613b70565b60405180910390f35b6102c360048036038101906102be919061392b565b610e5a565b005b6102df60048036038101906102da91906136f3565b610e7a565b6040516102ec9190613c41565b60405180910390f35b61030f600480360381019061030a91906136f3565b610fcb565b60405161031c9190613761565b60405180910390f35b61033f600480360381019061033a91906136f3565b611051565b60405161034c9190613daf565b60405180910390f35b61036f600480360381019061036a91906136f3565b6113d0565b60405161037c9190613e68565b60405180910390f35b61039f600480360381019061039a9190613e8a565b61162a565b6040516103ac9190613910565b60405180910390f35b6103bd6116e1565b005b6103d960048036038101906103d49190613efa565b6116f5565b6040516103e7929190613f72565b60405180910390f35b61040a600480360381019061040591906136f3565b611dcc565b6040516104179190613c41565b60405180910390f35b610428611e37565b6040516104359190613761565b60405180910390f35b610446611e61565b604051610453919061369b565b60405180910390f35b61047660048036038101906104719190613fc7565b611ef3565b005b610492600480360381019061048d919061397e565b611f09565b60405161049f91906141a3565b60405180910390f35b6104c260048036038101906104bd91906142f5565b612357565b005b6104de60048036038101906104d991906136f3565b6123b9565b6040516104eb919061369b565b60405180910390f35b6104fc612421565b6040516105099190613910565b60405180910390f35b61052c60048036038101906105279190614378565b612437565b60405161053991906135f0565b60405180910390f35b61055c60048036038101906105579190613e8a565b6124cb565b005b61056661254e565b6040516105739190613910565b60405180910390f35b60007f80ac58cd000000000000000000000000000000000000000000000000000000007bffffffffffffffffffffffffffffffffffffffffffffffffffffffff1916827bffffffffffffffffffffffffffffffffffffffffffffffffffffffff1916148061064757507f5b5e139f000000000000000000000000000000000000000000000000000000007bffffffffffffffffffffffffffffffffffffffffffffffffffffffff1916827bffffffffffffffffffffffffffffffffffffffffffffffffffffffff1916145b80610657575061065682612564565b5b9050919050565b60606000805461066d906143e7565b80601f0160208091040260200160405190810160405280929190818152602001828054610699906143e7565b80156106e65780601f106106bb576101008083540402835291602001916106e6565b820191906000526020600020905b8154815290600101906020018083116106c957829003601f168201915b5050505050905090565b60006106fb826125ce565b6004600083815260200190815260200160002060009054906101000a900473ffffffffffffffffffffffffffffffffffffffff169050919050565b600061074182610fcb565b90508073ffffffffffffffffffffffffffffffffffffffff168373ffffffffffffffffffffffffffffffffffffffff16036107b1576040517f08c379a00000000000000000000000000000000000000000000000000000000081526004016107a89061448a565b60405180910390fd5b8073ffffffffffffffffffffffffffffffffffffffff166107d0612619565b73ffffffffffffffffffffffffffffffffffffffff1614806107ff57506107fe816107f9612619565b612437565b5b61083e576040517f08c379a00000000000000000000000000000000000000000000000000000000081526004016108359061451c565b60405180910390fd5b6108488383612621565b505050565b6000808787905011610894576040517f08c379a000000000000000000000000000000000000000000000000000000000815260040161088b90614588565b60405180910390fd5b600085859050116108da576040517f08c379a00000000000000000000000000000000000000000000000000000000081526004016108d1906145f4565b60405180910390fd5b6000600a60008154809291906108ef90614643565b9190505590506040518060c0016040528082815260200189898080601f016020809104026020016040519081016040528093929190818152602001838380828437600081840152601f19601f8201169050808301925050505050505081526020016000815260200187878080601f016020809104026020016040519081016040528093929190818152602001838380828437600081840152601f19601f82011690508083019250505050505050815260200185858080601f016020809104026020016040519081016040528093929190818152602001838380828437600081840152601f19601f8201169050808301925050505050505081526020014281525060076000838152602001908152602001600020600082015181600001556020820151816001019081610a219190614837565b50604082015181600201556060820151816003019081610a419190614837565b506080820151816004019081610a579190614837565b5060a08201518160050155905050610a6f33826126da565b3373ffffffffffffffffffffffffffffffffffffffff16817f014ed8d238576d2b30ced417ba64fa4db7c350b5f09ffa335abaefcc33047e7b8a8a6000604051610abb93929190614971565b60405180910390a3809150509695505050505050565b610ae2610adc612619565b826126f8565b610b21576040517f08c379a0000000000000000000000000000000000000000000000000000000008152600401610b1890614a15565b60405180910390fd5b610b2c83838361278d565b505050565b6060600082118015610b44575060648211155b610b83576040517f08c379a0000000000000000000000000000000000000000000000000000000008152600401610b7a90614a81565b60405180910390fd5b60008284610b919190614aa1565b9050600a54811115610ba357600a5490505b6000848211610bb3576000610bc0565b8482610bbf9190614ad5565b5b905060008167ffffffffffffffff811115610bde57610bdd6141ca565b5b604051908082528060200260200182016040528015610c1757816020015b610c04613476565b815260200190600190039081610bfc5790505b50905060005b82811015610e4d57600760008289610c359190614aa1565b81526020019081526020016000206040518060c001604052908160008201548152602001600182018054610c68906143e7565b80601f0160208091040260200160405190810160405280929190818152602001828054610c94906143e7565b8015610ce15780601f10610cb657610100808354040283529160200191610ce1565b820191906000526020600020905b815481529060010190602001808311610cc457829003601f168201915b5050505050815260200160028201548152602001600382018054610d04906143e7565b80601f0160208091040260200160405190810160405280929190818152602001828054610d30906143e7565b8015610d7d5780601f10610d5257610100808354040283529160200191610d7d565b820191906000526020600020905b815481529060010190602001808311610d6057829003601f168201915b50505050508152602001600482018054610d96906143e7565b80601f0160208091040260200160405190810160405280929190818152602001828054610dc2906143e7565b8015610e0f5780601f10610de457610100808354040283529160200191610e0f565b820191906000526020600020905b815481529060010190602001808311610df257829003601f168201915b50505050508152602001600582015481525050828281518110610e3557610e34614b09565b5b60200260200101819052508080600101915050610c1d565b5080935050505092915050565b610e7583838360405180602001604052806000815250612357565b505050565b60606000600760008481526020019081526020016000206000015403610ed5576040517f08c379a0000000000000000000000000000000000000000000000000000000008152600401610ecc90614b84565b60405180910390fd5b6000808390505b60008114158015610eed5750606482105b15610f1e578180610efd90614643565b92505060076000828152602001908152602001600020600201549050610edc565b60008267ffffffffffffffff811115610f3a57610f396141ca565b5b604051908082528060200260200182016040528015610f685781602001602082028036833780820191505090505b50905084915060005b83811015610fbf5782828281518110610f8d57610f8c614b09565b5b602002602001018181525050600760008481526020019081526020016000206002015492508080600101915050610f71565b50809350505050919050565b600080610fd783612a86565b9050600073ffffffffffffffffffffffffffffffffffffffff168173ffffffffffffffffffffffffffffffffffffffff1603611048576040517f08c379a000000000000000000000000000000000000000000000000000000000815260040161103f90614bf0565b60405180910390fd5b80915050919050565b6110596134ac565b60006008600084815260200190815260200160002060000154036110b2576040517f08c379a00000000000000000000000000000000000000000000000000000000081526004016110a990614c5c565b60405180910390fd5b60086000838152602001908152602001600020604051806101200160405290816000820154815260200160018201548152602001600282015481526020016003820180546110ff906143e7565b80601f016020809104026020016040519081016040528092919081815260200182805461112b906143e7565b80156111785780601f1061114d57610100808354040283529160200191611178565b820191906000526020600020905b81548152906001019060200180831161115b57829003601f168201915b50505050508152602001600482018054611191906143e7565b80601f01602080910402602001604051908101604052809291908181526020018280546111bd906143e7565b801561120a5780601f106111df5761010080835404028352916020019161120a565b820191906000526020600020905b8154815290600101906020018083116111ed57829003601f168201915b50505050508152602001600582018054611223906143e7565b80601f016020809104026020016040519081016040528092919081815260200182805461124f906143e7565b801561129c5780601f106112715761010080835404028352916020019161129c565b820191906000526020600020905b81548152906001019060200180831161127f57829003601f168201915b50505050508152602001600682016040518060800160405290816000820154815260200160018201548152602001600282015481526020016003820180546112e3906143e7565b80601f016020809104026020016040519081016040528092919081815260200182805461130f906143e7565b801561135c5780601f106113315761010080835404028352916020019161135c565b820191906000526020600020905b81548152906001019060200180831161133f57829003601f168201915b5050505050815250508152602001600a820160009054906101000a900473ffffffffffffffffffffffffffffffffffffffff1673ffffffffffffffffffffffffffffffffffffffff1673ffffffffffffffffffffffffffffffffffffffff168152602001600b820154815250509050919050565b6113d8613476565b6000600760008481526020019081526020016000206000015403611431576040517f08c379a000000000000000000000000000000000000000000000000000000000815260040161142890614b84565b60405180910390fd5b600760008381526020019081526020016000206040518060c001604052908160008201548152602001600182018054611469906143e7565b80601f0160208091040260200160405190810160405280929190818152602001828054611495906143e7565b80156114e25780601f106114b7576101008083540402835291602001916114e2565b820191906000526020600020905b8154815290600101906020018083116114c557829003601f168201915b5050505050815260200160028201548152602001600382018054611505906143e7565b80601f0160208091040260200160405190810160405280929190818152602001828054611531906143e7565b801561157e5780601f106115535761010080835404028352916020019161157e565b820191906000526020600020905b81548152906001019060200180831161156157829003601f168201915b50505050508152602001600482018054611597906143e7565b80601f01602080910402602001604051908101604052809291908181526020018280546115c3906143e7565b80156116105780601f106115e557610100808354040283529160200191611610565b820191906000526020600020905b8154815290600101906020018083116115f357829003601f168201915b505050505081526020016005820154815250509050919050565b60008073ffffffffffffffffffffffffffffffffffffffff168273ffffffffffffffffffffffffffffffffffffffff160361169a576040517f08c379a000000000000000000000000000000000000000000000000000000000815260040161169190614cee565b60405180910390fd5b600360008373ffffffffffffffffffffffffffffffffffffffff1673ffffffffffffffffffffffffffffffffffffffff168152602001908152602001600020549050919050565b6116e9612ac3565b6116f36000612b41565b565b6000803373ffffffffffffffffffffffffffffffffffffffff1661171c8560000135612a86565b73ffffffffffffffffffffffffffffffffffffffff1614611772576040517f08c379a000000000000000000000000000000000000000000000000000000000815260040161176990614d5a565b60405180910390fd5b60008480602001906117849190614d89565b9050116117c6576040517f08c379a00000000000000000000000000000000000000000000000000000000081526004016117bd90614588565b60405180910390fd5b60008480604001906117d89190614d89565b90501161181a576040517f08c379a0000000000000000000000000000000000000000000000000000000008152600401611811906145f4565b60405180910390fd5b6000836000013511611861576040517f08c379a000000000000000000000000000000000000000000000000000000000815260040161185890614e38565b60405180910390fd5b620f4240836040013511156118ab576040517f08c379a00000000000000000000000000000000000000000000000000000000081526004016118a290614ea4565b60405180910390fd5b600a60008154809291906118be90614643565b919050559050600b60008154809291906118d790614643565b9190505591506040518060c001604052808281526020018580602001906118fe9190614d89565b8080601f016020809104026020016040519081016040528093929190818152602001838380828437600081840152601f19601f820116905080830192505050505050508152602001856000013581526020018580604001906119609190614d89565b8080601f016020809104026020016040519081016040528093929190818152602001838380828437600081840152601f19601f8201169050808301925050505050505081526020018580606001906119b89190614d89565b8080601f016020809104026020016040519081016040528093929190818152602001838380828437600081840152601f19601f8201169050808301925050505050505081526020014281525060076000838152602001908152602001600020600082015181600001556020820151816001019081611a369190614837565b50604082015181600201556060820151816003019081611a569190614837565b506080820151816004019081611a6c9190614837565b5060a0820151816005015590505060405180610120016040528083815260200185600001358152602001828152602001858060800190611aac9190614d89565b8080601f016020809104026020016040519081016040528093929190818152602001838380828437600081840152601f19601f820116905080830192505050505050508152602001858060a00190611b049190614d89565b8080601f016020809104026020016040519081016040528093929190818152602001838380828437600081840152601f19601f820116905080830192505050505050508152602001858060c00190611b5c9190614d89565b8080601f016020809104026020016040519081016040528093929190818152602001838380828437600081840152601f19601f82011690508083019250505050505050815260200184611bae90615003565b81526020013373ffffffffffffffffffffffffffffffffffffffff16815260200142815250600860008481526020019081526020016000206000820151816000015560208201518160010155604082015181600201556060820151816003019081611c199190614837565b506080820151816004019081611c2f9190614837565b5060a0820151816005019081611c459190614837565b5060c0820151816006016000820151816000015560208201518160010155604082015181600201556060820151816003019081611c829190614837565b50505060e082015181600a0160006101000a81548173ffffffffffffffffffffffffffffffffffffffff021916908373ffffffffffffffffffffffffffffffffffffffff16021790555061010082015181600b01559050506009600085600001358152602001908152602001600020829080600181540180825580915050600190039060005260206000200160009091909190915055611d2233826126da565b3373ffffffffffffffffffffffffffffffffffffffff16817f014ed8d238576d2b30ced417ba64fa4db7c350b5f09ffa335abaefcc33047e7b868060200190611d6b9190614d89565b8860000135604051611d7f93929190615016565b60405180910390a3808460000135837fda5f8ad9df7187a90e1d5b6a57ffcc9b4000b00747c8ce65ba1dc7535e2f602433604051611dbd9190613761565b60405180910390a49250929050565b606060096000838152602001908152602001600020805480602002602001604051908101604052809291908181526020018280548015611e2b57602002820191906000526020600020905b815481526020019060010190808311611e17575b50505050509050919050565b6000600660009054906101000a900473ffffffffffffffffffffffffffffffffffffffff16905090565b606060018054611e70906143e7565b80601f0160208091040260200160405190810160405280929190818152602001828054611e9c906143e7565b8015611ee95780601f10611ebe57610100808354040283529160200191611ee9565b820191906000526020600020905b815481529060010190602001808311611ecc57829003601f168201915b5050505050905090565b611f05611efe612619565b8383612c07565b5050565b6060600082118015611f1c575060648211155b611f5b576040517f08c379a0000000000000000000000000000000000000000000000000000000008152600401611f5290614a81565b60405180910390fd5b60008284611f699190614aa1565b9050600b54811115611f7b57600b5490505b6000848211611f8b576000611f98565b8482611f979190614ad5565b5b905060008167ffffffffffffffff811115611fb657611fb56141ca565b5b604051908082528060200260200182016040528015611fef57816020015b611fdc6134ac565b815260200190600190039081611fd45790505b50905060005b8281101561234a5760086000828961200d9190614aa1565b815260200190815260200160002060405180610120016040529081600082015481526020016001820154815260200160028201548152602001600382018054612055906143e7565b80601f0160208091040260200160405190810160405280929190818152602001828054612081906143e7565b80156120ce5780601f106120a3576101008083540402835291602001916120ce565b820191906000526020600020905b8154815290600101906020018083116120b157829003601f168201915b505050505081526020016004820180546120e7906143e7565b80601f0160208091040260200160405190810160405280929190818152602001828054612113906143e7565b80156121605780601f1061213557610100808354040283529160200191612160565b820191906000526020600020905b81548152906001019060200180831161214357829003601f168201915b50505050508152602001600582018054612179906143e7565b80601f01602080910402602001604051908101604052809291908181526020018280546121a5906143e7565b80156121f25780601f106121c7576101008083540402835291602001916121f2565b820191906000526020600020905b8154815290600101906020018083116121d557829003601f168201915b5050505050815260200160068201604051806080016040529081600082015481526020016001820154815260200160028201548152602001600382018054612239906143e7565b80601f0160208091040260200160405190810160405280929190818152602001828054612265906143e7565b80156122b25780601f10612287576101008083540402835291602001916122b2565b820191906000526020600020905b81548152906001019060200180831161229557829003601f168201915b5050505050815250508152602001600a820160009054906101000a900473ffffffffffffffffffffffffffffffffffffffff1673ffffffffffffffffffffffffffffffffffffffff1673ffffffffffffffffffffffffffffffffffffffff168152602001600b8201548152505082828151811061233257612331614b09565b5b60200260200101819052508080600101915050611ff5565b5080935050505092915050565b612368612362612619565b836126f8565b6123a7576040517f08c379a000000000000000000000000000000000000000000000000000000000815260040161239e90614a15565b60405180910390fd5b6123b384848484612d73565b50505050565b60606123c4826125ce565b60006123ce612dcf565b905060008151116123ee5760405180602001604052806000815250612419565b806123f884612de6565b604051602001612409929190615084565b6040516020818303038152906040525b915050919050565b60006001600b546124329190614ad5565b905090565b6000600560008473ffffffffffffffffffffffffffffffffffffffff1673ffffffffffffffffffffffffffffffffffffffff16815260200190815260200160002060008373ffffffffffffffffffffffffffffffffffffffff1673ffffffffffffffffffffffffffffffffffffffff16815260200190815260200160002060009054906101000a900460ff16905092915050565b6124d3612ac3565b600073ffffffffffffffffffffffffffffffffffffffff168173ffffffffffffffffffffffffffffffffffffffff1603612542576040517f08c379a00000000000000000000000000000000000000000000000000000000081526004016125399061511a565b60405180910390fd5b61254b81612b41565b50565b60006001600a5461255f9190614ad5565b905090565b60007f01ffc9a7000000000000000000000000000000000000000000000000000000007bffffffffffffffffffffffffffffffffffffffffffffffffffffffff1916827bffffffffffffffffffffffffffffffffffffffffffffffffffffffff1916149050919050565b6125d781612eb4565b612616576040517f08c379a000000000000000000000000000000000000000000000000000000000815260040161260d90614bf0565b60405180910390fd5b50565b600033905090565b816004600083815260200190815260200160002060006101000a81548173ffffffffffffffffffffffffffffffffffffffff021916908373ffffffffffffffffffffffffffffffffffffffff160217905550808273ffffffffffffffffffffffffffffffffffffffff1661269483610fcb565b73ffffffffffffffffffffffffffffffffffffffff167f8c5be1e5ebec7d5bd14f71427d1e84f3dd0314c0f7b2291e5b200ac8c7c3b92560405160405180910390a45050565b6126f4828260405180602001604052806000815250612ef5565b5050565b60008061270483610fcb565b90508073ffffffffffffffffffffffffffffffffffffffff168473ffffffffffffffffffffffffffffffffffffffff16148061274657506127458185612437565b5b8061278457508373ffffffffffffffffffffffffffffffffffffffff1661276c846106f0565b73ffffffffffffffffffffffffffffffffffffffff16145b91505092915050565b8273ffffffffffffffffffffffffffffffffffffffff166127ad82610fcb565b73ffffffffffffffffffffffffffffffffffffffff1614612803576040517f08c379a00000000000000000000000000000000000000000000000000000000081526004016127fa906151ac565b60405180910390fd5b600073ffffffffffffffffffffffffffffffffffffffff168273ffffffffffffffffffffffffffffffffffffffff1603612872576040517f08c379a00000000000000000000000000000000000000000000000000000000081526004016128699061523e565b60405180910390fd5b61287f8383836001612f50565b8273ffffffffffffffffffffffffffffffffffffffff1661289f82610fcb565b73ffffffffffffffffffffffffffffffffffffffff16146128f5576040517f08c379a00000000000000000000000000000000000000000000000000000000081526004016128ec906151ac565b60405180910390fd5b6004600082815260200190815260200160002060006101000a81549073ffffffffffffffffffffffffffffffffffffffff02191690556001600360008573ffffffffffffffffffffffffffffffffffffffff1673ffffffffffffffffffffffffffffffffffffffff168152602001908152602001600020600082825403925050819055506001600360008473ffffffffffffffffffffffffffffffffffffffff1673ffffffffffffffffffffffffffffffffffffffff16815260200190815260200160002060008282540192505081905550816002600083815260200190815260200160002060006101000a81548173ffffffffffffffffffffffffffffffffffffffff021916908373ffffffffffffffffffffffffffffffffffffffff160217905550808273ffffffffffffffffffffffffffffffffffffffff168473ffffffffffffffffffffffffffffffffffffffff167fddf252ad1be2c89b69c2b068fc378daa952ba7f163c4a11628f55a4df523b3ef60405160405180910390a4612a818383836001612f56565b505050565b60006002600083815260200190815260200160002060009054906101000a900473ffffffffffffffffffffffffffffffffffffffff169050919050565b612acb612619565b73ffffffffffffffffffffffffffffffffffffffff16612ae9611e37565b73ffffffffffffffffffffffffffffffffffffffff1614612b3f576040517f08c379a0000000000000000000000000000000000000000000000000000000008152600401612b36906152aa565b60405180910390fd5b565b6000600660009054906101000a900473ffffffffffffffffffffffffffffffffffffffff16905081600660006101000a81548173ffffffffffffffffffffffffffffffffffffffff021916908373ffffffffffffffffffffffffffffffffffffffff1602179055508173ffffffffffffffffffffffffffffffffffffffff168173ffffffffffffffffffffffffffffffffffffffff167f8be0079c531659141344cd1fd0a4f28419497f9722a3daafe3b4186f6b6457e060405160405180910390a35050565b8173ffffffffffffffffffffffffffffffffffffffff168373ffffffffffffffffffffffffffffffffffffffff1603612c75576040517f08c379a0000000000000000000000000000000000000000000000000000000008152600401612c6c90615316565b60405180910390fd5b80600560008573ffffffffffffffffffffffffffffffffffffffff1673ffffffffffffffffffffffffffffffffffffffff16815260200190815260200160002060008473ffffffffffffffffffffffffffffffffffffffff1673ffffffffffffffffffffffffffffffffffffffff16815260200190815260200160002060006101000a81548160ff0219169083151502179055508173ffffffffffffffffffffffffffffffffffffffff168373ffffffffffffffffffffffffffffffffffffffff167f17307eab39ab6107e8899845ad3d59bd9653f200f220920489ca2b5937696c3183604051612d6691906135f0565b60405180910390a3505050565b612d7e84848461278d565b612d8a84848484612f5c565b612dc9576040517f08c379a0000000000000000000000000000000000000000000000000000000008152600401612dc0906153a8565b60405180910390fd5b50505050565b606060405180602001604052806000815250905090565b606060006001612df5846130e3565b01905060008167ffffffffffffffff811115612e1457612e136141ca565b5b6040519080825280601f01601f191660200182016040528015612e465781602001600182028036833780820191505090505b509050600082602001820190505b600115612ea9578080600190039150507f3031323334353637383961626364656600000000000000000000000000000000600a86061a8153600a8581612e9d57612e9c6153c8565b5b04945060008503612e54575b819350505050919050565b60008073ffffffffffffffffffffffffffffffffffffffff16612ed683612a86565b73ffffffffffffffffffffffffffffffffffffffff1614159050919050565b612eff8383613236565b612f0c6000848484612f5c565b612f4b576040517f08c379a0000000000000000000000000000000000000000000000000000000008152600401612f42906153a8565b60405180910390fd5b505050565b50505050565b50505050565b6000612f7d8473ffffffffffffffffffffffffffffffffffffffff16613453565b156130d6578373ffffffffffffffffffffffffffffffffffffffff1663150b7a02612fa6612619565b8786866040518563ffffffff1660e01b8152600401612fc8949392919061544c565b6020604051808303816000875af192505050801561300457506040513d601f19601f8201168201806040525081019061300191906154ad565b60015b613086573d8060008114613034576040519150601f19603f3d011682016040523d82523d6000602084013e613039565b606091505b50600081510361307e576040517f08c379a0000000000000000000000000000000000000000000000000000000008152600401613075906153a8565b60405180910390fd5b805181602001fd5b63150b7a0260e01b7bffffffffffffffffffffffffffffffffffffffffffffffffffffffff1916817bffffffffffffffffffffffffffffffffffffffffffffffffffffffff1916149150506130db565b600190505b949350505050565b600080600090507a184f03e93ff9f4daa797ed6e38ed64bf6a1f0100000000000000008310613141577a184f03e93ff9f4daa797ed6e38ed64bf6a1f0100000000000000008381613137576131366153c8565b5b0492506040810190505b6d04ee2d6d415b85acef8100000000831061317e576d04ee2d6d415b85acef81000000008381613174576131736153c8565b5b0492506020810190505b662386f26fc1000083106131ad57662386f26fc1000083816131a3576131a26153c8565b5b0492506010810190505b6305f5e10083106131d6576305f5e10083816131cc576131cb6153c8565b5b0492506008810190505b61271083106131fb5761271083816131f1576131f06153c8565b5b0492506004810190505b6064831061321e5760648381613214576132136153c8565b5b0492506002810190505b600a831061322d576001810190505b80915050919050565b600073ffffffffffffffffffffffffffffffffffffffff168273ffffffffffffffffffffffffffffffffffffffff16036132a5576040517f08c379a000000000000000000000000000000000000000000000000000000000815260040161329c90615526565b60405180910390fd5b6132ae81612eb4565b156132ee576040517f08c379a00000000000000000000000000000000000000000000000000000000081526004016132e590615592565b60405180910390fd5b6132fc600083836001612f50565b61330581612eb4565b15613345576040517f08c379a000000000000000000000000000000000000000000000000000000000815260040161333c90615592565b60405180910390fd5b6001600360008473ffffffffffffffffffffffffffffffffffffffff1673ffffffffffffffffffffffffffffffffffffffff16815260200190815260200160002060008282540192505081905550816002600083815260200190815260200160002060006101000a81548173ffffffffffffffffffffffffffffffffffffffff021916908373ffffffffffffffffffffffffffffffffffffffff160217905550808273ffffffffffffffffffffffffffffffffffffffff16600073ffffffffffffffffffffffffffffffffffffffff167fddf252ad1be2c89b69c2b068fc378daa952ba7f163c4a11628f55a4df523b3ef60405160405180910390a461344f600083836001612f56565b5050565b6000808273ffffffffffffffffffffffffffffffffffffffff163b119050919050565b6040518060c001604052806000815260200160608152602001600081526020016060815260200160608152602001600081525090565b6040518061012001604052806000815260200160008152602001600081526020016060815260200160608152602001606081526020016134ea613514565b8152602001600073ffffffffffffffffffffffffffffffffffffffff168152602001600081525090565b6040518060800160405280600081526020016000815260200160008152602001606081525090565b6000604051905090565b600080fd5b600080fd5b60007fffffffff0000000000000000000000000000000000000000000000000000000082169050919050565b61358581613550565b811461359057600080fd5b50565b6000813590506135a28161357c565b92915050565b6000602082840312156135be576135bd613546565b5b60006135cc84828501613593565b91505092915050565b60008115159050919050565b6135ea816135d5565b82525050565b600060208201905061360560008301846135e1565b92915050565b600081519050919050565b600082825260208201905092915050565b60005b8381101561364557808201518184015260208101905061362a565b60008484015250505050565b6000601f19601f8301169050919050565b600061366d8261360b565b6136778185613616565b9350613687818560208601613627565b61369081613651565b840191505092915050565b600060208201905081810360008301526136b58184613662565b905092915050565b6000819050919050565b6136d0816136bd565b81146136db57600080fd5b50565b6000813590506136ed816136c7565b92915050565b60006020828403121561370957613708613546565b5b6000613717848285016136de565b91505092915050565b600073ffffffffffffffffffffffffffffffffffffffff82169050919050565b600061374b82613720565b9050919050565b61375b81613740565b82525050565b60006020820190506137766000830184613752565b92915050565b61378581613740565b811461379057600080fd5b50565b6000813590506137a28161377c565b92915050565b600080604083850312156137bf576137be613546565b5b60006137cd85828601613793565b92505060206137de858286016136de565b9150509250929050565b600080fd5b600080fd5b600080fd5b60008083601f84011261380d5761380c6137e8565b5b8235905067ffffffffffffffff81111561382a576138296137ed565b5b602083019150836001820283011115613846576138456137f2565b5b9250929050565b6000806000806000806060878903121561386a57613869613546565b5b600087013567ffffffffffffffff8111156138885761388761354b565b5b61389489828a016137f7565b9650965050602087013567ffffffffffffffff8111156138b7576138b661354b565b5b6138c389828a016137f7565b9450945050604087013567ffffffffffffffff8111156138e6576138e561354b565b5b6138f289828a016137f7565b92509250509295509295509295565b61390a816136bd565b82525050565b60006020820190506139256000830184613901565b92915050565b60008060006060848603121561394457613943613546565b5b600061395286828701613793565b935050602061396386828701613793565b9250506040613974868287016136de565b9150509250925092565b6000806040838503121561399557613994613546565b5b60006139a3858286016136de565b92505060206139b4858286016136de565b9150509250929050565b600081519050919050565b600082825260208201905092915050565b6000819050602082019050919050565b6139f3816136bd565b82525050565b600082825260208201905092915050565b6000613a158261360b565b613a1f81856139f9565b9350613a2f818560208601613627565b613a3881613651565b840191505092915050565b600060c083016000830151613a5b60008601826139ea565b5060208301518482036020860152613a738282613a0a565b9150506040830151613a8860408601826139ea565b5060608301518482036060860152613aa08282613a0a565b91505060808301518482036080860152613aba8282613a0a565b91505060a0830151613acf60a08601826139ea565b508091505092915050565b6000613ae68383613a43565b905092915050565b6000602082019050919050565b6000613b06826139be565b613b1081856139c9565b935083602082028501613b22856139da565b8060005b85811015613b5e5784840389528151613b3f8582613ada565b9450613b4a83613aee565b925060208a01995050600181019050613b26565b50829750879550505050505092915050565b60006020820190508181036000830152613b8a8184613afb565b905092915050565b600081519050919050565b600082825260208201905092915050565b6000819050602082019050919050565b6000613bca83836139ea565b60208301905092915050565b6000602082019050919050565b6000613bee82613b92565b613bf88185613b9d565b9350613c0383613bae565b8060005b83811015613c34578151613c1b8882613bbe565b9750613c2683613bd6565b925050600181019050613c07565b5085935050505092915050565b60006020820190508181036000830152613c5b8184613be3565b905092915050565b6000608083016000830151613c7b60008601826139ea565b506020830151613c8e60208601826139ea565b506040830151613ca160408601826139ea565b5060608301518482036060860152613cb98282613a0a565b9150508091505092915050565b613ccf81613740565b82525050565b600061012083016000830151613cee60008601826139ea565b506020830151613d0160208601826139ea565b506040830151613d1460408601826139ea565b5060608301518482036060860152613d2c8282613a0a565b91505060808301518482036080860152613d468282613a0a565b91505060a083015184820360a0860152613d608282613a0a565b91505060c083015184820360c0860152613d7a8282613c63565b91505060e0830151613d8f60e0860182613cc6565b50610100830151613da46101008601826139ea565b508091505092915050565b60006020820190508181036000830152613dc98184613cd5565b905092915050565b600060c083016000830151613de960008601826139ea565b5060208301518482036020860152613e018282613a0a565b9150506040830151613e1660408601826139ea565b5060608301518482036060860152613e2e8282613a0a565b91505060808301518482036080860152613e488282613a0a565b91505060a0830151613e5d60a08601826139ea565b508091505092915050565b60006020820190508181036000830152613e828184613dd1565b905092915050565b600060208284031215613ea057613e9f613546565b5b6000613eae84828501613793565b91505092915050565b600080fd5b600060e08284031215613ed257613ed1613eb7565b5b81905092915050565b600060808284031215613ef157613ef0613eb7565b5b81905092915050565b60008060408385031215613f1157613f10613546565b5b600083013567ffffffffffffffff811115613f2f57613f2e61354b565b5b613f3b85828601613ebc565b925050602083013567ffffffffffffffff811115613f5c57613f5b61354b565b5b613f6885828601613edb565b9150509250929050565b6000604082019050613f876000830185613901565b613f946020830184613901565b9392505050565b613fa4816135d5565b8114613faf57600080fd5b50565b600081359050613fc181613f9b565b92915050565b60008060408385031215613fde57613fdd613546565b5b6000613fec85828601613793565b9250506020613ffd85828601613fb2565b9150509250929050565b600081519050919050565b600082825260208201905092915050565b6000819050602082019050919050565b60006101208301600083015161404c60008601826139ea565b50602083015161405f60208601826139ea565b50604083015161407260408601826139ea565b506060830151848203606086015261408a8282613a0a565b915050608083015184820360808601526140a48282613a0a565b91505060a083015184820360a08601526140be8282613a0a565b91505060c083015184820360c08601526140d88282613c63565b91505060e08301516140ed60e0860182613cc6565b506101008301516141026101008601826139ea565b508091505092915050565b60006141198383614033565b905092915050565b6000602082019050919050565b600061413982614007565b6141438185614012565b93508360208202850161415585614023565b8060005b858110156141915784840389528151614172858261410d565b945061417d83614121565b925060208a01995050600181019050614159565b50829750879550505050505092915050565b600060208201905081810360008301526141bd818461412e565b905092915050565b600080fd5b7f4e487b7100000000000000000000000000000000000000000000000000000000600052604160045260246000fd5b61420282613651565b810181811067ffffffffffffffff82111715614221576142206141ca565b5b80604052505050565b600061423461353c565b905061424082826141f9565b919050565b600067ffffffffffffffff8211156142605761425f6141ca565b5b61426982613651565b9050602081019050919050565b82818337600083830152505050565b600061429861429384614245565b61422a565b9050828152602081018484840111156142b4576142b36141c5565b5b6142bf848285614276565b509392505050565b600082601f8301126142dc576142db6137e8565b5b81356142ec848260208601614285565b91505092915050565b6000806000806080858703121561430f5761430e613546565b5b600061431d87828801613793565b945050602061432e87828801613793565b935050604061433f878288016136de565b925050606085013567ffffffffffffffff8111156143605761435f61354b565b5b61436c878288016142c7565b91505092959194509250565b6000806040838503121561438f5761438e613546565b5b600061439d85828601613793565b92505060206143ae85828601613793565b9150509250929050565b7f4e487b7100000000000000000000000000000000000000000000000000000000600052602260045260246000fd5b600060028204905060018216806143ff57607f821691505b602082108103614412576144116143b8565b5b50919050565b7f4552433732313a20617070726f76616c20746f2063757272656e74206f776e6560008201527f7200000000000000000000000000000000000000000000000000000000000000602082015250565b6000614474602183613616565b915061447f82614418565b604082019050919050565b600060208201905081810360008301526144a381614467565b9050919050565b7f4552433732313a20617070726f76652063616c6c6572206973206e6f7420746f60008201527f6b656e206f776e6572206f7220617070726f76656420666f7220616c6c000000602082015250565b6000614506603d83613616565b9150614511826144aa565b604082019050919050565b60006020820190508181036000830152614535816144f9565b9050919050565b7f4e616d652063616e6e6f7420626520656d707479000000000000000000000000600082015250565b6000614572601483613616565b915061457d8261453c565b602082019050919050565b600060208201905081810360008301526145a181614565565b9050919050565b7f486173682063616e6e6f7420626520656d707479000000000000000000000000600082015250565b60006145de601483613616565b91506145e9826145a8565b602082019050919050565b6000602082019050818103600083015261460d816145d1565b9050919050565b7f4e487b7100000000000000000000000000000000000000000000000000000000600052601160045260246000fd5b600061464e826136bd565b91507fffffffffffffffffffffffffffffffffffffffffffffffffffffffffffffffff82036146805761467f614614565b5b600182019050919050565b60008190508160005260206000209050919050565b60006020601f8301049050919050565b600082821b905092915050565b6000600883026146ed7fffffffffffffffffffffffffffffffffffffffffffffffffffffffffffffffff826146b0565b6146f786836146b0565b95508019841693508086168417925050509392505050565b6000819050919050565b600061473461472f61472a846136bd565b61470f565b6136bd565b9050919050565b6000819050919050565b61474e83614719565b61476261475a8261473b565b8484546146bd565b825550505050565b600090565b61477761476a565b614782818484614745565b505050565b5b818110156147a65761479b60008261476f565b600181019050614788565b5050565b601f8211156147eb576147bc8161468b565b6147c5846146a0565b810160208510156147d4578190505b6147e86147e0856146a0565b830182614787565b50505b505050565b600082821c905092915050565b600061480e600019846008026147f0565b1980831691505092915050565b600061482783836147fd565b9150826002028217905092915050565b6148408261360b565b67ffffffffffffffff811115614859576148586141ca565b5b61486382546143e7565b61486e8282856147aa565b600060209050601f8311600181146148a1576000841561488f578287015190505b614899858261481b565b865550614901565b601f1984166148af8661468b565b60005b828110156148d7578489015182556001820191506020850194506020810190506148b2565b868310156148f457848901516148f0601f8916826147fd565b8355505b6001600288020188555050505b505050505050565b60006149158385613616565b9350614922838584614276565b61492b83613651565b840190509392505050565b6000819050919050565b600061495b61495661495184614936565b61470f565b6136bd565b9050919050565b61496b81614940565b82525050565b6000604082019050818103600083015261498c818587614909565b905061499b6020830184614962565b949350505050565b7f4552433732313a2063616c6c6572206973206e6f7420746f6b656e206f776e6560008201527f72206f7220617070726f76656400000000000000000000000000000000000000602082015250565b60006149ff602d83613616565b9150614a0a826149a3565b604082019050919050565b60006020820190508181036000830152614a2e816149f2565b9050919050565b7f436f756e7420312d313030000000000000000000000000000000000000000000600082015250565b6000614a6b600b83613616565b9150614a7682614a35565b602082019050919050565b60006020820190508181036000830152614a9a81614a5e565b9050919050565b6000614aac826136bd565b9150614ab7836136bd565b9250828201905080821115614acf57614ace614614565b5b92915050565b6000614ae0826136bd565b9150614aeb836136bd565b9250828203905081811115614b0357614b02614614565b5b92915050565b7f4e487b7100000000000000000000000000000000000000000000000000000000600052603260045260246000fd5b7f4d6f64656c206e6f7420666f756e640000000000000000000000000000000000600082015250565b6000614b6e600f83613616565b9150614b7982614b38565b602082019050919050565b60006020820190508181036000830152614b9d81614b61565b9050919050565b7f4552433732313a20696e76616c696420746f6b656e2049440000000000000000600082015250565b6000614bda601883613616565b9150614be582614ba4565b602082019050919050565b60006020820190508181036000830152614c0981614bcd565b9050919050565b7f52756e206e6f7420666f756e6400000000000000000000000000000000000000600082015250565b6000614c46600d83613616565b9150614c5182614c10565b602082019050919050565b60006020820190508181036000830152614c7581614c39565b9050919050565b7f4552433732313a2061646472657373207a65726f206973206e6f74206120766160008201527f6c6964206f776e65720000000000000000000000000000000000000000000000602082015250565b6000614cd8602983613616565b9150614ce382614c7c565b604082019050919050565b60006020820190508181036000830152614d0781614ccb565b9050919050565b7f4e6f74206d6f64656c206f776e65720000000000000000000000000000000000600082015250565b6000614d44600f83613616565b9150614d4f82614d0e565b602082019050919050565b60006020820190508181036000830152614d7381614d37565b9050919050565b600080fd5b600080fd5b600080fd5b60008083356001602003843603038112614da657614da5614d7a565b5b80840192508235915067ffffffffffffffff821115614dc857614dc7614d7f565b5b602083019250600182023603831315614de457614de3614d84565b5b509250929050565b7f45706f636873206d757374206265203e20300000000000000000000000000000600082015250565b6000614e22601283613616565b9150614e2d82614dec565b602082019050919050565b60006020820190508181036000830152614e5181614e15565b9050919050565b7f4163637572616379203e20313030250000000000000000000000000000000000600082015250565b6000614e8e600f83613616565b9150614e9982614e58565b602082019050919050565b60006020820190508181036000830152614ebd81614e81565b9050919050565b600080fd5b600080fd5b600067ffffffffffffffff821115614ee957614ee86141ca565b5b614ef282613651565b9050602081019050919050565b6000614f12614f0d84614ece565b61422a565b905082815260208101848484011115614f2e57614f2d6141c5565b5b614f39848285614276565b509392505050565b600082601f830112614f5657614f556137e8565b5b8135614f66848260208601614eff565b91505092915050565b600060808284031215614f8557614f84614ec4565b5b614f8f608061422a565b90506000614f9f848285016136de565b6000830152506020614fb3848285016136de565b6020830152506040614fc7848285016136de565b604083015250606082013567ffffffffffffffff811115614feb57614fea614ec9565b5b614ff784828501614f41565b60608301525092915050565b600061500f3683614f6f565b9050919050565b60006040820190508181036000830152615031818587614909565b90506150406020830184613901565b949350505050565b600081905092915050565b600061505e8261360b565b6150688185615048565b9350615078818560208601613627565b80840191505092915050565b60006150908285615053565b915061509c8284615053565b91508190509392505050565b7f4f776e61626c653a206e6577206f776e657220697320746865207a65726f206160008201527f6464726573730000000000000000000000000000000000000000000000000000602082015250565b6000615104602683613616565b915061510f826150a8565b604082019050919050565b60006020820190508181036000830152615133816150f7565b9050919050565b7f4552433732313a207472616e736665722066726f6d20696e636f72726563742060008201527f6f776e6572000000000000000000000000000000000000000000000000000000602082015250565b6000615196602583613616565b91506151a18261513a565b604082019050919050565b600060208201905081810360008301526151c581615189565b9050919050565b7f4552433732313a207472616e7366657220746f20746865207a65726f2061646460008201527f7265737300000000000000000000000000000000000000000000000000000000602082015250565b6000615228602483613616565b9150615233826151cc565b604082019050919050565b600060208201905081810360008301526152578161521b565b9050919050565b7f4f776e61626c653a2063616c6c6572206973206e6f7420746865206f776e6572600082015250565b6000615294602083613616565b915061529f8261525e565b602082019050919050565b600060208201905081810360008301526152c381615287565b9050919050565b7f4552433732313a20617070726f766520746f2063616c6c657200000000000000600082015250565b6000615300601983613616565b915061530b826152ca565b602082019050919050565b6000602082019050818103600083015261532f816152f3565b9050919050565b7f4552433732313a207472616e7366657220746f206e6f6e20455243373231526560008201527f63656976657220696d706c656d656e7465720000000000000000000000000000602082015250565b6000615392603283613616565b915061539d82615336565b604082019050919050565b600060208201905081810360008301526153c181615385565b9050919050565b7f4e487b7100000000000000000000000000000000000000000000000000000000600052601260045260246000fd5b600081519050919050565b600082825260208201905092915050565b600061541e826153f7565b6154288185615402565b9350615438818560208601613627565b61544181613651565b840191505092915050565b60006080820190506154616000830187613752565b61546e6020830186613752565b61547b6040830185613901565b818103606083015261548d8184615413565b905095945050505050565b6000815190506154a78161357c565b92915050565b6000602082840312156154c3576154c2613546565b5b60006154d184828501615498565b91505092915050565b7f4552433732313a206d696e7420746f20746865207a65726f2061646472657373600082015250565b6000615510602083613616565b915061551b826154da565b602082019050919050565b6000602082019050818103600083015261553f81615503565b9050919050565b7f4552433732313a20746f6b656e20616c7265616479206d696e74656400000000600082015250565b600061557c601c83613616565b915061558782615546565b602082019050919050565b600060208201905081810360008301526155ab8161556f565b905091905056fea2646970667358221220dab923f51d2b5106a97d6309bd021f9d01928bff2630069a1f3afbc72d1306fa64736f6c63430008180033",
  "linkReferences": {},
  "deployedLinkReferences": {},
  "immutableReferences": {},
  "inputSourceName": "project/contracts/MLModelRegistry.sol",
  "buildInfoId": "solc-0_8_24-313a7d3650a138daaab0a7e0dad8b11387227c08"
}