{
  "_format": "hh3-artifact-1",
  "contractName": "PaymentReceiver",
  "sourceName": "contracts/PaymentReceiver.sol",
  "abi": [
    {
      "inputs": [],
      "stateMutability": "nonpayable",
      "type": "constructor"
    },
    {
      "anonymous": false,
      "inputs": [
        {
          "indexed": true,
          "internalType": "address",
          "name": "besuProxy",
          "type": "address"
        },
        {
          "indexed": true,
          "internalType": "uint256",
          "name": "orderId",
          "type": "uint256"
        },
        {
          "indexed": false,
          "internalType": "uint256",
          "name": "amount",
          "type": "uint256"
        },
        {
          "indexed": false,
          "internalType": "address",
          "name": "recipient",
          "type": "address"
        }
      ],
      "name": "PaymentRecorded",
      "type": "event"
    },
    {
      "inputs": [
        {
          "internalType": "address",
          "name": "besuProxy",
          "type": "address"
        },
        {
          "internalType": "uint256",
          "name": "orderId",
          "type": "uint256"
        }
      ],
      "name": "getPayment",
      "outputs": [
        {
          "components": [
            {
              "internalType": "address",
              "name": "besuProxy",
              "type": "address"
            },
            {
              "internalType": "uint256",
              "name": "orderId",
              "type": "uint256"
            },
            {
              "internalType": "uint256",
              "name": "amount",
              "type": "uint256"
            },
            {
              "internalType": "address",
              "name": "recipient",
              "type": "address"
            },
            {
              "internalType": "uint256",
              "name": "timestamp",
              "type": "uint256"
            }
          ],
          "internalType": "struct PaymentReceiver.Payment",
          "name": "",
          "type": "tuple"
        }
      ],
      "stateMutability": "view",
      "type": "function"
    },
    {
      "inputs": [
        {
          "internalType": "address",
          "name": "besuProxy",
          "type": "address"
        },
        {
          "internalType": "uint256",
          "name": "orderId",
          "type": "uint256"
        }
      ],
      "name": "isRecorded",
      "outputs": [
        {
          "internalType": "bool",
          "name": "",
          "type": "bool"
        }
      ],
      "stateMutability": "view",
      "type": "function"
    },
    {
      "inputs": [
        {
          "internalType": "bytes32",
          "name": "",
          "type": "bytes32"
        }
      ],
      "name": "payments",
      "outputs": [
        {
          "internalType": "address",
          "name": "besuProxy",
          "type": "address"
        },
        {
          "internalType": "uint256",
          "name": "orderId",
          "type": "uint256"
        },
        {
          "internalType": "uint256",
          "name": "amount",
          "type": "uint256"
        },
        {
          "internalType": "address",
          "name": "recipient",
          "type": "address"
        },
        {
          "internalType": "uint256",
          "name": "timestamp",
          "type": "uint256"
        }
      ],
      "stateMutability": "view",
      "type": "function"
    },
    {
      "inputs": [
        {
          "internalType": "address",
          "name": "besuProxy",
          "type": "address"
        },
        {
          "internalType": "uint256",
          "name": "orderId",
          "type": "uint256"
        },
        {
          "internalType": "uint256",
          "name": "amount",
          "type": "uint256"
        },
        {
          "internalType": "address",
          "name": "recipient",
          "type": "address"
        }
      ],
      "name": "recordPayment",
      "outputs": [],
      "stateMutability": "nonpayable",
      "type": "function"
    },
    {
      "inputs": [],
      "name": "relayer",
      "outputs": [
        {
          "internalType": "address",
          "name": "",
          "type": "address"
        }
      ],
      "stateMutability": "view",
      "type": "function"
    }
  ],
  "bytecode": "0x608060405234801561001057600080fd5b50336000806101000a81548173ffffffffffffffffffffffffffffffffffffffff021916908373ffffffffffffffffffffffffffffffffffffffff160217905550610afb806100606000396000f3fe608060405234801561001057600080fd5b50600436106100575760003560e01c80630716326d1461005c5780631bfebc02146100905780638406c079146100ac578063977a767c146100ca578063f07b4052146100fa575b600080fd5b61007660048036038101906100719190610653565b61012a565b6040516100879594939291906106da565b60405180910390f35b6100aa60048036038101906100a59190610785565b6101a0565b005b6100b4610421565b6040516100c191906107ec565b60405180910390f35b6100e460048036038101906100df9190610807565b610445565b6040516100f191906108cd565b60405180910390f35b610114600480360381019061010f9190610807565b61056b565b6040516101219190610903565b60405180910390f35b60016020528060005260406000206000915090508060000160009054906101000a900473ffffffffffffffffffffffffffffffffffffffff16908060010154908060020154908060030160009054906101000a900473ffffffffffffffffffffffffffffffffffffffff16908060040154905085565b60008054906101000a900473ffffffffffffffffffffffffffffffffffffffff1673ffffffffffffffffffffffffffffffffffffffff163373ffffffffffffffffffffffffffffffffffffffff161461022e576040517f08c379a00000000000000000000000000000000000000000000000000000000081526004016102259061097b565b60405180910390fd5b60008484604051602001610243929190610a04565b60405160208183030381529060405280519060200120905060006001600083815260200190815260200160002060040154146102b4576040517f08c379a00000000000000000000000000000000000000000000000000000000081526004016102ab90610a7c565b60405180910390fd5b6040518060a001604052808673ffffffffffffffffffffffffffffffffffffffff1681526020018581526020018481526020018373ffffffffffffffffffffffffffffffffffffffff168152602001428152506001600083815260200190815260200160002060008201518160000160006101000a81548173ffffffffffffffffffffffffffffffffffffffff021916908373ffffffffffffffffffffffffffffffffffffffff160217905550602082015181600101556040820151816002015560608201518160030160006101000a81548173ffffffffffffffffffffffffffffffffffffffff021916908373ffffffffffffffffffffffffffffffffffffffff16021790555060808201518160040155905050838573ffffffffffffffffffffffffffffffffffffffff167fa6b5b5e3d791999197e7c14c3437b43cb1758bfd4d2c46bbefb48a3ece3b23c68585604051610412929190610a9c565b60405180910390a35050505050565b60008054906101000a900473ffffffffffffffffffffffffffffffffffffffff1681565b61044d6105bd565b60008383604051602001610462929190610a04565b604051602081830303815290604052805190602001209050600160008281526020019081526020016000206040518060a00160405290816000820160009054906101000a900473ffffffffffffffffffffffffffffffffffffffff1673ffffffffffffffffffffffffffffffffffffffff1673ffffffffffffffffffffffffffffffffffffffff16815260200160018201548152602001600282015481526020016003820160009054906101000a900473ffffffffffffffffffffffffffffffffffffffff1673ffffffffffffffffffffffffffffffffffffffff1673ffffffffffffffffffffffffffffffffffffffff16815260200160048201548152505091505092915050565b6000808383604051602001610581929190610a04565b60405160208183030381529060405280519060200120905060006001600083815260200190815260200160002060040154141591505092915050565b6040518060a00160405280600073ffffffffffffffffffffffffffffffffffffffff1681526020016000815260200160008152602001600073ffffffffffffffffffffffffffffffffffffffff168152602001600081525090565b600080fd5b6000819050919050565b6106308161061d565b811461063b57600080fd5b50565b60008135905061064d81610627565b92915050565b60006020828403121561066957610668610618565b5b60006106778482850161063e565b91505092915050565b600073ffffffffffffffffffffffffffffffffffffffff82169050919050565b60006106ab82610680565b9050919050565b6106bb816106a0565b82525050565b6000819050919050565b6106d4816106c1565b82525050565b600060a0820190506106ef60008301886106b2565b6106fc60208301876106cb565b61070960408301866106cb565b61071660608301856106b2565b61072360808301846106cb565b9695505050505050565b610736816106a0565b811461074157600080fd5b50565b6000813590506107538161072d565b92915050565b610762816106c1565b811461076d57600080fd5b50565b60008135905061077f81610759565b92915050565b6000806000806080858703121561079f5761079e610618565b5b60006107ad87828801610744565b94505060206107be87828801610770565b93505060406107cf87828801610770565b92505060606107e087828801610744565b91505092959194509250565b600060208201905061080160008301846106b2565b92915050565b6000806040838503121561081e5761081d610618565b5b600061082c85828601610744565b925050602061083d85828601610770565b9150509250929050565b610850816106a0565b82525050565b61085f816106c1565b82525050565b60a08201600082015161087b6000850182610847565b50602082015161088e6020850182610856565b5060408201516108a16040850182610856565b5060608201516108b46060850182610847565b5060808201516108c76080850182610856565b50505050565b600060a0820190506108e26000830184610865565b92915050565b60008115159050919050565b6108fd816108e8565b82525050565b600060208201905061091860008301846108f4565b92915050565b600082825260208201905092915050565b7f4f6e6c792072656c617965720000000000000000000000000000000000000000600082015250565b6000610965600c8361091e565b91506109708261092f565b602082019050919050565b6000602082019050818103600083015261099481610958565b9050919050565b60008160601b9050919050565b60006109b38261099b565b9050919050565b60006109c5826109a8565b9050919050565b6109dd6109d8826106a0565b6109ba565b82525050565b6000819050919050565b6109fe6109f9826106c1565b6109e3565b82525050565b6000610a1082856109cc565b601482019150610a2082846109ed565b6020820191508190509392505050565b7f416c7265616479207265636f7264656400000000000000000000000000000000600082015250565b6000610a6660108361091e565b9150610a7182610a30565b602082019050919050565b60006020820190508181036000830152610a9581610a59565b9050919050565b6000604082019050610ab160008301856106cb565b610abe60208301846106b2565b939250505056fea2646970667358221220246a6b53b860859da3f7c9cf3d7bcc45eeb129cc75b8e83268fb571b29ab164764736f6c63430008180033",
  "linkReferences": {},
  "deployedLinkReferences": {},
  "immutableReferences": {},
  "inputSourceName": "project/contracts/PaymentReceiver.sol",
  "buildInfoId": "solc-0_8_24-f7e331ea4415232e741a8e791027228bd76b1808"
}